{
  "_format": "hh-sol-artifact-1",
  "contractName": "RedirectAllPutOption",
  "sourceName": "contracts/RedirectAllPutOption.sol",
  "abi": [
    {
      "inputs": [
        {
          "internalType": "contract ISuperfluid",
          "name": "host",
          "type": "address"
        },
        {
          "internalType": "contract IConstantFlowAgreementV1",
          "name": "cfa",
          "type": "address"
        },
        {
          "internalType": "contract ISuperToken",
          "name": "acceptedToken",
          "type": "address"
        },
        {
          "internalType": "contract ERC20",
          "name": "dai",
          "type": "address"
        },
        {
          "internalType": "address",
          "name": "receiver",
          "type": "address"
        }
      ],
      "stateMutability": "nonpayable",
      "type": "constructor"
    },
    {
      "anonymous": false,
      "inputs": [
        {
          "indexed": false,
          "internalType": "address",
          "name": "receiver",
          "type": "address"
        }
      ],
      "name": "ReceiverChanged",
      "type": "event"
    },
    {
      "inputs": [],
      "name": "_acceptedToken",
      "outputs": [
        {
          "internalType": "contract ISuperToken",
          "name": "",
          "type": "address"
        }
      ],
      "stateMutability": "view",
      "type": "function"
    },
    {
      "inputs": [],
      "name": "_dai",
      "outputs": [
        {
          "internalType": "contract ERC20",
          "name": "",
          "type": "address"
        }
      ],
      "stateMutability": "view",
      "type": "function"
    },
    {
      "inputs": [],
      "name": "_expirationDate",
      "outputs": [
        {
          "internalType": "uint256",
          "name": "",
          "type": "uint256"
        }
      ],
      "stateMutability": "view",
      "type": "function"
    },
    {
      "inputs": [],
      "name": "_priceFeed",
      "outputs": [
        {
          "internalType": "contract AggregatorV3Interface",
          "name": "",
          "type": "address"
        }
      ],
      "stateMutability": "view",
      "type": "function"
    },
    {
      "inputs": [],
      "name": "_priceFeedDecimals",
      "outputs": [
        {
          "internalType": "uint8",
          "name": "",
          "type": "uint8"
        }
      ],
      "stateMutability": "view",
      "type": "function"
    },
    {
      "inputs": [],
      "name": "_purchasingAsset",
      "outputs": [
        {
          "internalType": "contract ERC20",
          "name": "",
          "type": "address"
        }
      ],
      "stateMutability": "view",
      "type": "function"
    },
    {
      "inputs": [],
      "name": "_purchasingDecimals",
      "outputs": [
        {
          "internalType": "uint256",
          "name": "",
          "type": "uint256"
        }
      ],
      "stateMutability": "view",
      "type": "function"
    },
    {
      "inputs": [],
      "name": "_receiver",
      "outputs": [
        {
          "internalType": "address",
          "name": "",
          "type": "address"
        }
      ],
      "stateMutability": "view",
      "type": "function"
    },
    {
      "inputs": [],
      "name": "_requiredFlowRate",
      "outputs": [
        {
          "internalType": "int96",
          "name": "",
          "type": "int96"
        }
      ],
      "stateMutability": "view",
      "type": "function"
    },
    {
      "inputs": [],
      "name": "_strikePrice",
      "outputs": [
        {
          "internalType": "int256",
          "name": "",
          "type": "int256"
        }
      ],
      "stateMutability": "view",
      "type": "function"
    },
    {
      "inputs": [],
      "name": "_underlyingAmount",
      "outputs": [
        {
          "internalType": "uint256",
          "name": "",
          "type": "uint256"
        }
      ],
      "stateMutability": "view",
      "type": "function"
    },
    {
      "inputs": [],
      "name": "_underlyingDecimals",
      "outputs": [
        {
          "internalType": "uint8",
          "name": "",
          "type": "uint8"
        }
      ],
      "stateMutability": "view",
      "type": "function"
    },
    {
      "inputs": [
        {
          "internalType": "contract ISuperToken",
          "name": "_superToken",
          "type": "address"
        },
        {
          "internalType": "address",
          "name": "_agreementClass",
          "type": "address"
        },
        {
          "internalType": "bytes32",
          "name": "",
          "type": "bytes32"
        },
        {
          "internalType": "bytes",
          "name": "",
          "type": "bytes"
        },
        {
          "internalType": "bytes",
          "name": "",
          "type": "bytes"
        },
        {
          "internalType": "bytes",
          "name": "_ctx",
          "type": "bytes"
        }
      ],
      "name": "afterAgreementCreated",
      "outputs": [
        {
          "internalType": "bytes",
          "name": "newCtx",
          "type": "bytes"
        }
      ],
      "stateMutability": "nonpayable",
      "type": "function"
    },
    {
      "inputs": [
        {
          "internalType": "contract ISuperToken",
          "name": "_superToken",
          "type": "address"
        },
        {
          "internalType": "address",
          "name": "_agreementClass",
          "type": "address"
        },
        {
          "internalType": "bytes32",
          "name": "",
          "type": "bytes32"
        },
        {
          "internalType": "bytes",
          "name": "",
          "type": "bytes"
        },
        {
          "internalType": "bytes",
          "name": "",
          "type": "bytes"
        },
        {
          "internalType": "bytes",
          "name": "_ctx",
          "type": "bytes"
        }
      ],
      "name": "afterAgreementTerminated",
      "outputs": [
        {
          "internalType": "bytes",
          "name": "newCtx",
          "type": "bytes"
        }
      ],
      "stateMutability": "nonpayable",
      "type": "function"
    },
    {
      "inputs": [
        {
          "internalType": "contract ISuperToken",
          "name": "_superToken",
          "type": "address"
        },
        {
          "internalType": "address",
          "name": "_agreementClass",
          "type": "address"
        },
        {
          "internalType": "bytes32",
          "name": "",
          "type": "bytes32"
        },
        {
          "internalType": "bytes",
          "name": "",
          "type": "bytes"
        },
        {
          "internalType": "bytes",
          "name": "",
          "type": "bytes"
        },
        {
          "internalType": "bytes",
          "name": "_ctx",
          "type": "bytes"
        }
      ],
      "name": "afterAgreementUpdated",
      "outputs": [
        {
          "internalType": "bytes",
          "name": "newCtx",
          "type": "bytes"
        }
      ],
      "stateMutability": "nonpayable",
      "type": "function"
    },
    {
      "inputs": [
        {
          "internalType": "contract ISuperToken",
          "name": "",
          "type": "address"
        },
        {
          "internalType": "address",
          "name": "",
          "type": "address"
        },
        {
          "internalType": "bytes32",
          "name": "",
          "type": "bytes32"
        },
        {
          "internalType": "bytes",
          "name": "",
          "type": "bytes"
        },
        {
          "internalType": "bytes",
          "name": "",
          "type": "bytes"
        }
      ],
      "name": "beforeAgreementCreated",
      "outputs": [
        {
          "internalType": "bytes",
          "name": "",
          "type": "bytes"
        }
      ],
      "stateMutability": "view",
      "type": "function"
    },
    {
      "inputs": [
        {
          "internalType": "contract ISuperToken",
          "name": "",
          "type": "address"
        },
        {
          "internalType": "address",
          "name": "",
          "type": "address"
        },
        {
          "internalType": "bytes32",
          "name": "",
          "type": "bytes32"
        },
        {
          "internalType": "bytes",
          "name": "",
          "type": "bytes"
        },
        {
          "internalType": "bytes",
          "name": "",
          "type": "bytes"
        }
      ],
      "name": "beforeAgreementTerminated",
      "outputs": [
        {
          "internalType": "bytes",
          "name": "",
          "type": "bytes"
        }
      ],
      "stateMutability": "view",
      "type": "function"
    },
    {
      "inputs": [
        {
          "internalType": "contract ISuperToken",
          "name": "",
          "type": "address"
        },
        {
          "internalType": "address",
          "name": "",
          "type": "address"
        },
        {
          "internalType": "bytes32",
          "name": "",
          "type": "bytes32"
        },
        {
          "internalType": "bytes",
          "name": "",
          "type": "bytes"
        },
        {
          "internalType": "bytes",
          "name": "",
          "type": "bytes"
        }
      ],
      "name": "beforeAgreementUpdated",
      "outputs": [
        {
          "internalType": "bytes",
          "name": "",
          "type": "bytes"
        }
      ],
      "stateMutability": "view",
      "type": "function"
    },
    {
      "inputs": [
        {
          "internalType": "uint256",
          "name": "underlyingAmount",
          "type": "uint256"
        },
        {
          "internalType": "contract ERC20",
          "name": "purchasingAsset",
          "type": "address"
        },
        {
          "internalType": "int256",
          "name": "strikePrice",
          "type": "int256"
        },
        {
          "internalType": "uint8",
          "name": "purchasingDecimals",
          "type": "uint8"
        },
        {
          "internalType": "contract AggregatorV3Interface",
          "name": "priceFeed",
          "type": "address"
        },
        {
          "internalType": "uint8",
          "name": "priceFeedDecimals",
          "type": "uint8"
        },
        {
          "internalType": "int96",
          "name": "requiredFlowRate",
          "type": "int96"
        },
        {
          "internalType": "uint256",
          "name": "expirationDate",
          "type": "uint256"
        }
      ],
      "name": "createOption",
      "outputs": [],
      "stateMutability": "nonpayable",
      "type": "function"
    },
    {
      "inputs": [],
      "name": "currentReceiver",
      "outputs": [
        {
          "internalType": "uint256",
          "name": "startTime",
          "type": "uint256"
        },
        {
          "internalType": "address",
          "name": "receiver",
          "type": "address"
        },
        {
          "internalType": "int96",
          "name": "flowRate",
          "type": "int96"
        }
      ],
      "stateMutability": "view",
      "type": "function"
    },
    {
      "inputs": [],
      "name": "exerciseOption",
      "outputs": [],
      "stateMutability": "nonpayable",
      "type": "function"
    },
    {
      "inputs": [],
      "name": "optionActive",
      "outputs": [
        {
          "internalType": "bool",
          "name": "",
          "type": "bool"
        }
      ],
      "stateMutability": "view",
      "type": "function"
    },
    {
      "inputs": [],
      "name": "optionReady",
      "outputs": [
        {
          "internalType": "bool",
          "name": "",
          "type": "bool"
        }
      ],
      "stateMutability": "view",
      "type": "function"
    }
  ],
  "bytecode": "0x60806040526002805460ff191660121790553480156200001e57600080fd5b5060405162002582380380620025828339810160408190526200004191620002d3565b6001600160a01b0385166200005557600080fd5b6001600160a01b0384166200006957600080fd5b6001600160a01b0383166200007d57600080fd5b6001600160a01b0381166200009157600080fd5b604051631e51d6a760e11b81526001600160a01b038281166004830152861690633ca3ad4e90602401602060405180830381865afa158015620000d8573d6000803e3d6000fd5b505050506040513d601f19601f82011682018060405250810190620000fe919062000353565b156200010957600080fd5b60088054600980546001600160a01b03199081166001600160a01b0389811691909117909255600c80548216888416179055600080548216878416179055600d80549091168583161790556001600160b01b031990911662010000888316810261ffff191691909117928390556040516315a722b960e31b81526415000000016004820181905293919091049091169063ad3915c890602401600060405180830381600087803b158015620001bd57600080fd5b505af1158015620001d2573d6000803e3d6000fd5b50506040805180820182526001600160a01b038a168082529151635b69006f60e11b81527fa9214cc96615e0085d3bb077758db69497dc2dce3b2b1e97bc93c3d18d83efd3600482015290935060208401925063b6d200de90602401602060405180830381865afa1580156200024c573d6000803e3d6000fd5b505050506040513d601f19601f820116820180604052508101906200027291906200037e565b6001600160a01b039081169091528151600a80546001600160a01b0319908116928416929092179055602090920151600b80549093169116179055506200039e945050505050565b6001600160a01b0381168114620002d057600080fd5b50565b600080600080600060a08688031215620002ec57600080fd5b8551620002f981620002ba565b60208701519095506200030c81620002ba565b60408701519094506200031f81620002ba565b60608701519093506200033281620002ba565b60808701519092506200034581620002ba565b809150509295509295909350565b6000602082840312156200036657600080fd5b815180151581146200037757600080fd5b9392505050565b6000602082840312156200039157600080fd5b81516200037781620002ba565b6121d480620003ae6000396000f3fe608060405234801561001057600080fd5b506004361061014d5760003560e01c80635838048d116100c3578063ad0081841161007c578063ad008184146102e0578063d86ed3e5146102f4578063db10b64214610307578063e9997cdd14610311578063f667a90f14610331578063fcedc2c11461034457600080fd5b80635838048d1461026c5780635c2fad3b1461028b5780635c78db46146102945780635f9e7d77146102a757806377f78ad3146102ba578063884d1f40146102cd57600080fd5b806330d9c9151161011557806330d9c91514610209578063338937521461021c578063352fd128146102345780634528ba601461023d5780634e5b3c7c1461024657806353c11f991461025957600080fd5b806302964ff11461015257806316c9b88014610182578063230dbd2914610199578063243c0465146101b957806328d2bf94146101db575b600080fd5b600d54610165906001600160a01b031681565b6040516001600160a01b0390911681526020015b60405180910390f35b61018b60035481565b604051908152602001610179565b6101ac6101a736600461174f565b610351565b6040516101799190611872565b6008546101cb90610100900460ff1681565b6040519015158152602001610179565b6101e3610538565b604080519384526001600160a01b039092166020840152600b0b90820152606001610179565b6101ac61021736600461188c565b6105ec565b6002546101659061010090046001600160a01b031681565b61018b60015481565b61018b60045481565b600c54610165906001600160a01b031681565b6101ac61026736600461174f565b61064f565b6002546102799060ff1681565b60405160ff9091168152602001610179565b61018b60075481565b600554610165906001600160a01b031681565b6101ac6102b536600461188c565b610810565b600054610165906001600160a01b031681565b6101ac6102db36600461188c565b610877565b60055461027990600160a01b900460ff1681565b6101ac61030236600461174f565b6108da565b61030f610aed565b005b60065461031e90600b0b81565b604051600b9190910b8152602001610179565b61030f61033f366004611949565b610f51565b6008546101cb9060ff1681565b6060898961036d82600c546001600160a01b0391821691161490565b6103be5760405162461bcd60e51b815260206004820152601f60248201527f5265646972656374416c6c3a206e6f7420616363657074656420746f6b656e0060448201526064015b60405180910390fd5b6103c781611001565b6103e35760405162461bcd60e51b81526004016103b5906119d7565b6008546201000090046001600160a01b031633146104135760405162461bcd60e51b81526004016103b590611a18565b600954600c54604051631cd43d1160e31b81526000926001600160a01b039081169263e6a1e8889261044f929091169033903090600401611a5a565b608060405180830381865afa15801561046c573d6000803e3d6000fd5b505050506040513d601f19601f820116820180604052508101906104909190611a7d565b5050600654909250600b90810b9083900b12801591506104b1575060075442105b80156104c4575060085460ff1615156001145b80156104d85750600854610100900460ff16155b156104ea576104e561108d565b61051d565b60085460ff61010090910416151560011480156105105750600654600b90810b9082900b125b1561051d5761051d611122565b61052786866111b1565b9d9c50505050505050505050505050565b600d54600090819081906001600160a01b0316156105e757600954600c54600d54604051631cd43d1160e31b81526001600160a01b039384169363e6a1e8889361058e9390821692309290911690600401611a5a565b608060405180830381865afa1580156105ab573d6000803e3d6000fd5b505050506040513d601f19601f820116820180604052508101906105cf9190611a7d565b5050600d549194506001600160a01b03909116925090505b909192565b60405162461bcd60e51b815260206004820152602f60248201527f556e737570706f727465642063616c6c6261636b202d204265666f726520416760448201526e1c99595b595b9d0810dc99585d1959608a1b60648201526060906084016103b5565b6008546060906201000090046001600160a01b031633146106825760405162461bcd60e51b81526004016103b590611a18565b600c546001600160a01b038b811691161415806106a557506106a389611001565b155b156106e95782828080601f01602080910402602001604051908101604052809392919081815260200183838082843760009201919091525092935061080392505050565b426007556008805461ffff19169055600054600d5460015460405163a9059cbb60e01b81526001600160a01b039283166004820152602481019190915291169063a9059cbb906044016020604051808303816000875af192505050801561076d575060408051601f3d908101601f1916820190925261076a91810190611abb565b60015b6107f457600054600d5460015460405163095ea7b360e01b81526001600160a01b039283166004820152602481019190915291169063095ea7b3906044016020604051808303816000875af11580156107ca573d6000803e3d6000fd5b505050506040513d601f19601f820116820180604052508101906107ee9190611abb565b506107f6565b505b61080083836111b1565b90505b9998505050505050505050565b60405162461bcd60e51b815260206004820152603360248201527f556e737570706f727465642063616c6c6261636b202d20204265666f7265204160448201527219dc99595b595b9d0815195c9b5a5b985d1959606a1b60648201526060906084016103b5565b60405162461bcd60e51b815260206004820152602f60248201527f556e737570706f727465642063616c6c6261636b202d204265666f726520416760448201526e1c99595b595b9d081d5c19185d1959608a1b60648201526060906084016103b5565b606089896108f682600c546001600160a01b0391821691161490565b6109425760405162461bcd60e51b815260206004820152601f60248201527f5265646972656374416c6c3a206e6f7420616363657074656420746f6b656e0060448201526064016103b5565b61094b81611001565b6109675760405162461bcd60e51b81526004016103b5906119d7565b6008546201000090046001600160a01b031633146109975760405162461bcd60e51b81526004016103b590611a18565b600854604051631fb6491d60e11b81526000916201000090046001600160a01b031690633f6c923a906109d09089908990600401611add565b600060405180830381865afa1580156109ed573d6000803e3d6000fd5b505050506040513d6000823e601f3d908101601f19168201604052610a159190810190611bfd565b6060810151600954600c54604051631cd43d1160e31b815293945091926000926001600160a01b039283169263e6a1e88892610a5b929091169086903090600401611a5a565b608060405180830381865afa158015610a78573d6000803e3d6000fd5b505050506040513d601f19601f82011682018060405250810190610a9c9190611a7d565b5050600654909250600b90810b9083900b1280159150610ac3575060085460ff1615156001145b15610ad057610ad061108d565b610ada88886111b1565b9f9e505050505050505050505050505050565b600354600254604051636eb1769f60e11b81523360048201523060248201526101009091046001600160a01b03169063dd62ed3e90604401602060405180830381865afa158015610b42573d6000803e3d6000fd5b505050506040513d601f19601f82011682018060405250810190610b669190611d04565b1015610bb45760405162461bcd60e51b815260206004820152601760248201527f6d7573742063616c6c20617070726f766520666972737400000000000000000060448201526064016103b5565b6007544210610bc757610bc5611122565b565b60055460408051633fabe5a360e21b815290516000926001600160a01b03169163feaf968c9160048083019260a09291908290030181865afa158015610c11573d6000803e3d6000fd5b505050506040513d601f19601f82011682018060405250810190610c359190611d37565b505060025460055492945060ff908116600160a01b90930416919091149150610cb0905057600554600254600091610c7a9160ff600160a01b90920482169116611d9d565b60ff1690506000811215610c9757610c9481600019611dc0565b90505b610ca281600a611f2b565b610cac9083611f37565b9150505b600954600c54604051631cd43d1160e31b81526000926001600160a01b039081169263e6a1e88892610cec929091169033903090600401611a5a565b608060405180830381865afa158015610d09573d6000803e3d6000fd5b505050506040513d601f19601f82011682018060405250810190610d2d9190611a7d565b50509150506000600454600a610d439190611f2b565b600354610d509085611dc0565b610d5a9190611f56565b9050600154811115610dae5760405162461bcd60e51b815260206004820152601760248201527f6f7074696f6e206f7574206f6620746865206d6f6e657900000000000000000060448201526064016103b5565b600654600b90810b9083900b1215610e015760405162461bcd60e51b8152602060048201526016602482015275696e73756666696369656e7420666c6f77207261746560501b60448201526064016103b5565b600254600d546003546040516323b872dd60e01b81523360048201526001600160a01b039283166024820152604481019190915261010090920416906323b872dd906064016020604051808303816000875af1158015610e65573d6000803e3d6000fd5b505050506040513d601f19601f82011682018060405250810190610e899190611abb565b5060005460015460405163a9059cbb60e01b815233600482015260248101919091526001600160a01b039091169063a9059cbb906044016020604051808303816000875af1158015610edf573d6000803e3d6000fd5b505050506040513d601f19601f82011682018060405250810190610f039190611abb565b50600d54600c54610f2591600a9130916001600160a01b0390811691166113f3565b600c54610f4190600a90339030906001600160a01b03166113f3565b50506008805461ffff1916905550565b600d546001600160a01b03163314610f6857600080fd5b6001978855600280546001600160a01b0398891661010002610100600160a81b031990911617905560ff9485166004556005805493909516600160a01b026001600160a81b0319909316939096169290921717909155600391909155600680546bffffffffffffffffffffffff9092166bffffffffffffffffffffffff199092169190911790556007556008805460ff19169091179055565b60007fa9214cc96615e0085d3bb077758db69497dc2dce3b2b1e97bc93c3d18d83efd3826001600160a01b0316637730599e6040518163ffffffff1660e01b8152600401602060405180830381865afa158015611062573d6000803e3d6000fd5b505050506040513d601f19601f820116820180604052508101906110869190611d04565b1492915050565b600054600d546001546040516323b872dd60e01b81526001600160a01b03928316600482015230602482015260448101919091529116906323b872dd906064016020604051808303816000875af11580156110ec573d6000803e3d6000fd5b505050506040513d601f19601f820116820180604052508101906111109190611abb565b506008805461ff001916610100179055565b600054600d5460015460405163a9059cbb60e01b81526001600160a01b039283166004820152602481019190915291169063a9059cbb906044016020604051808303816000875af115801561117b573d6000803e3d6000fd5b505050506040513d601f19601f8201168201806040525081019061119f9190611abb565b50426007556008805461ffff19169055565b606082828080601f0160208091040260200160405190810160405280939291908181526020018383808284376000920182905250600954600c5460405163e8e7e2d160e01b81526001600160a01b03918216600482015230602482015296975091959116935063e8e7e2d192506044019050602060405180830381865afa158015611240573d6000803e3d6000fd5b505050506040513d601f19601f820116820180604052508101906112649190611f92565b600954600c54600d54604051631cd43d1160e31b81529394506000936001600160a01b039384169363e6a1e888936112a89390821692309290911690600401611a5a565b608060405180830381865afa1580156112c5573d6000803e3d6000fd5b505050506040513d601f19601f820116820180604052508101906112e99190611a7d565b5050915050600081836112fc9190611faf565b9050600b81900b61133157600d54600c5461132a91600a91879130916001600160a01b039182169116611419565b93506113ea565b600b82900b156113915761132a86868080601f01602080910402602001604051908101604052809392919081815260200183838082843760009201919091525050600d54600c54600a9493506001600160a01b0391821692501685611448565b6113e786868080601f01602080910402602001604051908101604052809392919081815260200183838082843760009201919091525050600d54600c54600a9493506001600160a01b039182169250168561146d565b93505b50505092915050565b604080516000815260208101909152611413908590859085908590611492565b50505050565b60408051600081526020810190915260609061143e9087908790879087908790611571565b9695505050505050565b60408051600081526020810190915260609061143e908790879087908790879061165a565b60408051600081526020810190915260609061143e90879087908790879087906116c1565b845460018601546040805160008152602081019091526001600160a01b03928316926339255d5b921690819063b4b333c6906114d79088908b908b9060448101612008565b60408051808303601f1901815291815260208201805160e094851b6001600160e01b03909116179052519185901b6001600160e01b031916825261152293925090869060040161203c565b6000604051808303816000875af1158015611541573d6000803e3d6000fd5b505050506040513d6000823e601f3d908101601f191682016040526115699190810190612072565b505050505050565b855460018701546040805160008152602081019091526060926001600160a01b0390811692634329d29392911690819063b4b333c6906115ba9089908c908c9060448101612008565b60408051808303601f1901815291815260208201805160e094851b6001600160e01b03909116179052519185901b6001600160e01b03191682526116079392509087908c906004016120af565b6000604051808303816000875af1158015611626573d6000803e3d6000fd5b505050506040513d6000823e601f3d908101601f1916820160405261164e9190810190612104565b50979650505050505050565b855460018701546060916001600160a01b0390811691634329d2939116806350209a62888a8960005b6040519080825280601f01601f1916602001820160405280156116ad576020820181803683370190505b506040516024016115ba9493929190612168565b855460018701546060916001600160a01b0390811691634329d2939116806362fc305e888a896000611683565b6001600160a01b038116811461170357600080fd5b50565b60008083601f84011261171857600080fd5b50813567ffffffffffffffff81111561173057600080fd5b60208301915083602082850101111561174857600080fd5b9250929050565b600080600080600080600080600060c08a8c03121561176d57600080fd5b8935611778816116ee565b985060208a0135611788816116ee565b975060408a0135965060608a013567ffffffffffffffff808211156117ac57600080fd5b6117b88d838e01611706565b909850965060808c01359150808211156117d157600080fd5b6117dd8d838e01611706565b909650945060a08c01359150808211156117f657600080fd5b506118038c828d01611706565b915080935050809150509295985092959850929598565b60005b8381101561183557818101518382015260200161181d565b838111156114135750506000910152565b6000815180845261185e81602086016020860161181a565b601f01601f19169290920160200192915050565b6020815260006118856020830184611846565b9392505050565b600080600080600080600060a0888a0312156118a757600080fd5b87356118b2816116ee565b965060208801356118c2816116ee565b955060408801359450606088013567ffffffffffffffff808211156118e657600080fd5b6118f28b838c01611706565b909650945060808a013591508082111561190b57600080fd5b506119188a828b01611706565b989b979a50959850939692959293505050565b60ff8116811461170357600080fd5b80600b0b811461170357600080fd5b600080600080600080600080610100898b03121561196657600080fd5b883597506020890135611978816116ee565b965060408901359550606089013561198f8161192b565b9450608089013561199f816116ee565b935060a08901356119af8161192b565b925060c08901356119bf8161193a565b8092505060e089013590509295985092959890939650565b60208082526021908201527f5265646972656374416c6c3a206f6e6c7920434641763120737570706f7274656040820152601960fa1b606082015260800190565b60208082526022908201527f5265646972656374416c6c3a20737570706f7274206f6e6c79206f6e6520686f6040820152611cdd60f21b606082015260800190565b6001600160a01b0393841681529183166020830152909116604082015260600190565b60008060008060808587031215611a9357600080fd5b845193506020850151611aa58161193a565b6040860151606090960151949790965092505050565b600060208284031215611acd57600080fd5b8151801515811461188557600080fd5b60208152816020820152818360408301376000818301604090810191909152601f909201601f19160101919050565b634e487b7160e01b600052604160045260246000fd5b604051610160810167ffffffffffffffff81118282101715611b4657611b46611b0c565b60405290565b8051611b578161192b565b919050565b8051611b57816116ee565b80516001600160e01b031981168114611b5757600080fd5b600082601f830112611b9057600080fd5b815167ffffffffffffffff80821115611bab57611bab611b0c565b604051601f8301601f19908116603f01168101908282118183101715611bd357611bd3611b0c565b81604052838152866020858801011115611bec57600080fd5b61143e84602083016020890161181a565b600060208284031215611c0f57600080fd5b815167ffffffffffffffff80821115611c2757600080fd5b908301906101608286031215611c3c57600080fd5b611c44611b22565b611c4d83611b4c565b8152611c5b60208401611b4c565b602082015260408301516040820152611c7660608401611b5c565b6060820152611c8760808401611b67565b608082015260a083015182811115611c9e57600080fd5b611caa87828601611b7f565b60a08301525060c083015160c082015260e083015160e0820152610100915081830151828201526101209150611ce1828401611b5c565b828201526101409150611cf5828401611b5c565b91810191909152949350505050565b600060208284031215611d1657600080fd5b5051919050565b805169ffffffffffffffffffff81168114611b5757600080fd5b600080600080600060a08688031215611d4f57600080fd5b611d5886611d1d565b9450602086015193506040860151925060608601519150611d7b60808701611d1d565b90509295509295909350565b634e487b7160e01b600052601160045260246000fd5b600060ff821660ff841680821015611db757611db7611d87565b90039392505050565b60006001600160ff1b0381841382841380821686840486111615611de657611de6611d87565b600160ff1b6000871282811687830589121615611e0557611e05611d87565b60008712925087820587128484161615611e2157611e21611d87565b87850587128184161615611e3757611e37611d87565b505050929093029392505050565b600181815b80851115611e80578160001904821115611e6657611e66611d87565b80851615611e7357918102915b93841c9390800290611e4a565b509250929050565b600082611e9757506001611f25565b81611ea457506000611f25565b8160018114611eba5760028114611ec457611ee0565b6001915050611f25565b60ff841115611ed557611ed5611d87565b50506001821b611f25565b5060208310610133831016604e8410600b8410161715611f03575081810a611f25565b611f0d8383611e45565b8060001904821115611f2157611f21611d87565b0290505b92915050565b60006118858383611e88565b6000816000190483118215151615611f5157611f51611d87565b500290565b600082611f7357634e487b7160e01b600052601260045260246000fd5b600160ff1b821460001984141615611f8d57611f8d611d87565b500590565b600060208284031215611fa457600080fd5b81516118858161193a565b600081600b0b83600b0b60008212826b7fffffffffffffffffffffff03821381151615611fde57611fde611d87565b826b7fffffffffffffffffffffff19038212811615611fff57611fff611d87565b50019392505050565b6001600160a01b03858116825284811660208301528316604082015260806060820181905260009061143e90830184611846565b6001600160a01b038416815260606020820181905260009061206090830185611846565b828103604084015261143e8185611846565b60006020828403121561208457600080fd5b815167ffffffffffffffff81111561209b57600080fd5b6120a784828501611b7f565b949350505050565b6001600160a01b03851681526080602082018190526000906120d390830186611846565b82810360408401526120e58186611846565b905082810360608401526120f98185611846565b979650505050505050565b6000806040838503121561211757600080fd5b825167ffffffffffffffff8082111561212f57600080fd5b61213b86838701611b7f565b9350602085015191508082111561215157600080fd5b5061215e85828601611b7f565b9150509250929050565b6001600160a01b03858116825284166020820152600b83900b604082015260806060820181905260009061143e9083018461184656fea264697066735822122006a90266fbbbf5849cf28af012624744ef34f609ea6df63ddb9e273d9bfa421a64736f6c634300080d0033",
  "linkReferences": {},
  "deployedLinkReferences": {}
}