{
  "_format": "hh-sol-artifact-1",
  "contractName": "TradeableCallOption",
  "sourceName": "contracts/TradeableCallOption.sol",
  "abi": [
    {
      "inputs": [
        {
          "internalType": "address",
          "name": "owner",
          "type": "address"
        },
        {
          "internalType": "string",
          "name": "_name",
          "type": "string"
        },
        {
          "internalType": "string",
          "name": "_symbol",
          "type": "string"
        },
        {
          "internalType": "contract ISuperfluid",
          "name": "host",
          "type": "address"
        },
        {
          "internalType": "contract IConstantFlowAgreementV1",
          "name": "cfa",
          "type": "address"
        },
        {
          "internalType": "contract ISuperToken",
          "name": "acceptedToken",
          "type": "address"
        },
        {
          "internalType": "contract ERC20",
          "name": "dai",
          "type": "address"
        }
      ],
      "stateMutability": "nonpayable",
      "type": "constructor"
    },
    {
      "anonymous": false,
      "inputs": [
        {
          "indexed": true,
          "internalType": "address",
          "name": "owner",
          "type": "address"
        },
        {
          "indexed": true,
          "internalType": "address",
          "name": "approved",
          "type": "address"
        },
        {
          "indexed": true,
          "internalType": "uint256",
          "name": "tokenId",
          "type": "uint256"
        }
      ],
      "name": "Approval",
      "type": "event"
    },
    {
      "anonymous": false,
      "inputs": [
        {
          "indexed": true,
          "internalType": "address",
          "name": "owner",
          "type": "address"
        },
        {
          "indexed": true,
          "internalType": "address",
          "name": "operator",
          "type": "address"
        },
        {
          "indexed": false,
          "internalType": "bool",
          "name": "approved",
          "type": "bool"
        }
      ],
      "name": "ApprovalForAll",
      "type": "event"
    },
    {
      "anonymous": false,
      "inputs": [
        {
          "indexed": false,
          "internalType": "address",
          "name": "receiver",
          "type": "address"
        }
      ],
      "name": "ReceiverChanged",
      "type": "event"
    },
    {
      "anonymous": false,
      "inputs": [
        {
          "indexed": true,
          "internalType": "address",
          "name": "from",
          "type": "address"
        },
        {
          "indexed": true,
          "internalType": "address",
          "name": "to",
          "type": "address"
        },
        {
          "indexed": true,
          "internalType": "uint256",
          "name": "tokenId",
          "type": "uint256"
        }
      ],
      "name": "Transfer",
      "type": "event"
    },
    {
      "inputs": [],
      "name": "_acceptedToken",
      "outputs": [
        {
          "internalType": "contract ISuperToken",
          "name": "",
          "type": "address"
        }
      ],
      "stateMutability": "view",
      "type": "function"
    },
    {
      "inputs": [],
      "name": "_dai",
      "outputs": [
        {
          "internalType": "contract ERC20",
          "name": "",
          "type": "address"
        }
      ],
      "stateMutability": "view",
      "type": "function"
    },
    {
      "inputs": [],
      "name": "_expirationDate",
      "outputs": [
        {
          "internalType": "uint256",
          "name": "",
          "type": "uint256"
        }
      ],
      "stateMutability": "view",
      "type": "function"
    },
    {
      "inputs": [],
      "name": "_priceFeed",
      "outputs": [
        {
          "internalType": "contract AggregatorV3Interface",
          "name": "",
          "type": "address"
        }
      ],
      "stateMutability": "view",
      "type": "function"
    },
    {
      "inputs": [],
      "name": "_priceFeedDecimals",
      "outputs": [
        {
          "internalType": "uint8",
          "name": "",
          "type": "uint8"
        }
      ],
      "stateMutability": "view",
      "type": "function"
    },
    {
      "inputs": [],
      "name": "_receiver",
      "outputs": [
        {
          "internalType": "address",
          "name": "",
          "type": "address"
        }
      ],
      "stateMutability": "view",
      "type": "function"
    },
    {
      "inputs": [],
      "name": "_requiredFlowRate",
      "outputs": [
        {
          "internalType": "int96",
          "name": "",
          "type": "int96"
        }
      ],
      "stateMutability": "view",
      "type": "function"
    },
    {
      "inputs": [],
      "name": "_strikePrice",
      "outputs": [
        {
          "internalType": "int256",
          "name": "",
          "type": "int256"
        }
      ],
      "stateMutability": "view",
      "type": "function"
    },
    {
      "inputs": [],
      "name": "_underlyingAmount",
      "outputs": [
        {
          "internalType": "uint256",
          "name": "",
          "type": "uint256"
        }
      ],
      "stateMutability": "view",
      "type": "function"
    },
    {
      "inputs": [],
      "name": "_underlyingAsset",
      "outputs": [
        {
          "internalType": "contract ERC20",
          "name": "",
          "type": "address"
        }
      ],
      "stateMutability": "view",
      "type": "function"
    },
    {
      "inputs": [],
      "name": "_underlyingDecimals",
      "outputs": [
        {
          "internalType": "uint8",
          "name": "",
          "type": "uint8"
        }
      ],
      "stateMutability": "view",
      "type": "function"
    },
    {
      "inputs": [
        {
          "internalType": "contract ISuperToken",
          "name": "_superToken",
          "type": "address"
        },
        {
          "internalType": "address",
          "name": "_agreementClass",
          "type": "address"
        },
        {
          "internalType": "bytes32",
          "name": "",
          "type": "bytes32"
        },
        {
          "internalType": "bytes",
          "name": "",
          "type": "bytes"
        },
        {
          "internalType": "bytes",
          "name": "",
          "type": "bytes"
        },
        {
          "internalType": "bytes",
          "name": "_ctx",
          "type": "bytes"
        }
      ],
      "name": "afterAgreementCreated",
      "outputs": [
        {
          "internalType": "bytes",
          "name": "newCtx",
          "type": "bytes"
        }
      ],
      "stateMutability": "nonpayable",
      "type": "function"
    },
    {
      "inputs": [
        {
          "internalType": "contract ISuperToken",
          "name": "_superToken",
          "type": "address"
        },
        {
          "internalType": "address",
          "name": "_agreementClass",
          "type": "address"
        },
        {
          "internalType": "bytes32",
          "name": "",
          "type": "bytes32"
        },
        {
          "internalType": "bytes",
          "name": "",
          "type": "bytes"
        },
        {
          "internalType": "bytes",
          "name": "",
          "type": "bytes"
        },
        {
          "internalType": "bytes",
          "name": "_ctx",
          "type": "bytes"
        }
      ],
      "name": "afterAgreementTerminated",
      "outputs": [
        {
          "internalType": "bytes",
          "name": "newCtx",
          "type": "bytes"
        }
      ],
      "stateMutability": "nonpayable",
      "type": "function"
    },
    {
      "inputs": [
        {
          "internalType": "contract ISuperToken",
          "name": "_superToken",
          "type": "address"
        },
        {
          "internalType": "address",
          "name": "_agreementClass",
          "type": "address"
        },
        {
          "internalType": "bytes32",
          "name": "",
          "type": "bytes32"
        },
        {
          "internalType": "bytes",
          "name": "",
          "type": "bytes"
        },
        {
          "internalType": "bytes",
          "name": "",
          "type": "bytes"
        },
        {
          "internalType": "bytes",
          "name": "_ctx",
          "type": "bytes"
        }
      ],
      "name": "afterAgreementUpdated",
      "outputs": [
        {
          "internalType": "bytes",
          "name": "newCtx",
          "type": "bytes"
        }
      ],
      "stateMutability": "nonpayable",
      "type": "function"
    },
    {
      "inputs": [
        {
          "internalType": "address",
          "name": "to",
          "type": "address"
        },
        {
          "internalType": "uint256",
          "name": "tokenId",
          "type": "uint256"
        }
      ],
      "name": "approve",
      "outputs": [],
      "stateMutability": "nonpayable",
      "type": "function"
    },
    {
      "inputs": [
        {
          "internalType": "address",
          "name": "owner",
          "type": "address"
        }
      ],
      "name": "balanceOf",
      "outputs": [
        {
          "internalType": "uint256",
          "name": "",
          "type": "uint256"
        }
      ],
      "stateMutability": "view",
      "type": "function"
    },
    {
      "inputs": [
        {
          "internalType": "contract ISuperToken",
          "name": "",
          "type": "address"
        },
        {
          "internalType": "address",
          "name": "",
          "type": "address"
        },
        {
          "internalType": "bytes32",
          "name": "",
          "type": "bytes32"
        },
        {
          "internalType": "bytes",
          "name": "",
          "type": "bytes"
        },
        {
          "internalType": "bytes",
          "name": "",
          "type": "bytes"
        }
      ],
      "name": "beforeAgreementCreated",
      "outputs": [
        {
          "internalType": "bytes",
          "name": "",
          "type": "bytes"
        }
      ],
      "stateMutability": "view",
      "type": "function"
    },
    {
      "inputs": [
        {
          "internalType": "contract ISuperToken",
          "name": "",
          "type": "address"
        },
        {
          "internalType": "address",
          "name": "",
          "type": "address"
        },
        {
          "internalType": "bytes32",
          "name": "",
          "type": "bytes32"
        },
        {
          "internalType": "bytes",
          "name": "",
          "type": "bytes"
        },
        {
          "internalType": "bytes",
          "name": "",
          "type": "bytes"
        }
      ],
      "name": "beforeAgreementTerminated",
      "outputs": [
        {
          "internalType": "bytes",
          "name": "",
          "type": "bytes"
        }
      ],
      "stateMutability": "view",
      "type": "function"
    },
    {
      "inputs": [
        {
          "internalType": "contract ISuperToken",
          "name": "",
          "type": "address"
        },
        {
          "internalType": "address",
          "name": "",
          "type": "address"
        },
        {
          "internalType": "bytes32",
          "name": "",
          "type": "bytes32"
        },
        {
          "internalType": "bytes",
          "name": "",
          "type": "bytes"
        },
        {
          "internalType": "bytes",
          "name": "",
          "type": "bytes"
        }
      ],
      "name": "beforeAgreementUpdated",
      "outputs": [
        {
          "internalType": "bytes",
          "name": "",
          "type": "bytes"
        }
      ],
      "stateMutability": "view",
      "type": "function"
    },
    {
      "inputs": [
        {
          "internalType": "contract ERC20",
          "name": "underlyingAsset",
          "type": "address"
        },
        {
          "internalType": "uint256",
          "name": "underlyingAmount",
          "type": "uint256"
        },
        {
          "internalType": "uint8",
          "name": "underlyingDecimals",
          "type": "uint8"
        },
        {
          "internalType": "contract AggregatorV3Interface",
          "name": "priceFeed",
          "type": "address"
        },
        {
          "internalType": "uint8",
          "name": "priceFeedDecimals",
          "type": "uint8"
        },
        {
          "internalType": "int96",
          "name": "requiredFlowRate",
          "type": "int96"
        },
        {
          "internalType": "uint256",
          "name": "expirationDate",
          "type": "uint256"
        },
        {
          "internalType": "int256",
          "name": "strikePrice",
          "type": "int256"
        }
      ],
      "name": "createOption",
      "outputs": [],
      "stateMutability": "nonpayable",
      "type": "function"
    },
    {
      "inputs": [],
      "name": "currentReceiver",
      "outputs": [
        {
          "internalType": "uint256",
          "name": "startTime",
          "type": "uint256"
        },
        {
          "internalType": "address",
          "name": "receiver",
          "type": "address"
        },
        {
          "internalType": "int96",
          "name": "flowRate",
          "type": "int96"
        }
      ],
      "stateMutability": "view",
      "type": "function"
    },
    {
      "inputs": [],
      "name": "exerciseOption",
      "outputs": [],
      "stateMutability": "nonpayable",
      "type": "function"
    },
    {
      "inputs": [],
      "name": "factory",
      "outputs": [
        {
          "internalType": "contract OptionFactory",
          "name": "",
          "type": "address"
        }
      ],
      "stateMutability": "view",
      "type": "function"
    },
    {
      "inputs": [
        {
          "internalType": "uint256",
          "name": "tokenId",
          "type": "uint256"
        }
      ],
      "name": "getApproved",
      "outputs": [
        {
          "internalType": "address",
          "name": "",
          "type": "address"
        }
      ],
      "stateMutability": "view",
      "type": "function"
    },
    {
      "inputs": [
        {
          "internalType": "address",
          "name": "owner",
          "type": "address"
        },
        {
          "internalType": "address",
          "name": "operator",
          "type": "address"
        }
      ],
      "name": "isApprovedForAll",
      "outputs": [
        {
          "internalType": "bool",
          "name": "",
          "type": "bool"
        }
      ],
      "stateMutability": "view",
      "type": "function"
    },
    {
      "inputs": [],
      "name": "name",
      "outputs": [
        {
          "internalType": "string",
          "name": "",
          "type": "string"
        }
      ],
      "stateMutability": "view",
      "type": "function"
    },
    {
      "inputs": [],
      "name": "optionActive",
      "outputs": [
        {
          "internalType": "bool",
          "name": "",
          "type": "bool"
        }
      ],
      "stateMutability": "view",
      "type": "function"
    },
    {
      "inputs": [],
      "name": "optionReady",
      "outputs": [
        {
          "internalType": "bool",
          "name": "",
          "type": "bool"
        }
      ],
      "stateMutability": "view",
      "type": "function"
    },
    {
      "inputs": [
        {
          "internalType": "uint256",
          "name": "tokenId",
          "type": "uint256"
        }
      ],
      "name": "ownerOf",
      "outputs": [
        {
          "internalType": "address",
          "name": "",
          "type": "address"
        }
      ],
      "stateMutability": "view",
      "type": "function"
    },
    {
      "inputs": [
        {
          "internalType": "address",
          "name": "from",
          "type": "address"
        },
        {
          "internalType": "address",
          "name": "to",
          "type": "address"
        },
        {
          "internalType": "uint256",
          "name": "tokenId",
          "type": "uint256"
        }
      ],
      "name": "safeTransferFrom",
      "outputs": [],
      "stateMutability": "nonpayable",
      "type": "function"
    },
    {
      "inputs": [
        {
          "internalType": "address",
          "name": "from",
          "type": "address"
        },
        {
          "internalType": "address",
          "name": "to",
          "type": "address"
        },
        {
          "internalType": "uint256",
          "name": "tokenId",
          "type": "uint256"
        },
        {
          "internalType": "bytes",
          "name": "data",
          "type": "bytes"
        }
      ],
      "name": "safeTransferFrom",
      "outputs": [],
      "stateMutability": "nonpayable",
      "type": "function"
    },
    {
      "inputs": [
        {
          "internalType": "address",
          "name": "operator",
          "type": "address"
        },
        {
          "internalType": "bool",
          "name": "approved",
          "type": "bool"
        }
      ],
      "name": "setApprovalForAll",
      "outputs": [],
      "stateMutability": "nonpayable",
      "type": "function"
    },
    {
      "inputs": [
        {
          "internalType": "bytes4",
          "name": "interfaceId",
          "type": "bytes4"
        }
      ],
      "name": "supportsInterface",
      "outputs": [
        {
          "internalType": "bool",
          "name": "",
          "type": "bool"
        }
      ],
      "stateMutability": "view",
      "type": "function"
    },
    {
      "inputs": [],
      "name": "symbol",
      "outputs": [
        {
          "internalType": "string",
          "name": "",
          "type": "string"
        }
      ],
      "stateMutability": "view",
      "type": "function"
    },
    {
      "inputs": [
        {
          "internalType": "uint256",
          "name": "tokenId",
          "type": "uint256"
        }
      ],
      "name": "tokenURI",
      "outputs": [
        {
          "internalType": "string",
          "name": "",
          "type": "string"
        }
      ],
      "stateMutability": "view",
      "type": "function"
    },
    {
      "inputs": [
        {
          "internalType": "address",
          "name": "from",
          "type": "address"
        },
        {
          "internalType": "address",
          "name": "to",
          "type": "address"
        },
        {
          "internalType": "uint256",
          "name": "tokenId",
          "type": "uint256"
        }
      ],
      "name": "transferFrom",
      "outputs": [],
      "stateMutability": "nonpayable",
      "type": "function"
    }
  ],
  "bytecode": "0x60806040523480156200001157600080fd5b506040516200422338038062004223833981016040819052620000349162000a96565b838383838a8a8a816000908051906020019062000053929190620008ec565b50805162000069906001906020840190620008ec565b5050506001600160a01b0385166200008057600080fd5b6001600160a01b0384166200009457600080fd5b6001600160a01b038316620000a857600080fd5b6001600160a01b038116620000bc57600080fd5b604051631e51d6a760e11b81526001600160a01b038281166004830152861690633ca3ad4e90602401602060405180830381865afa15801562000103573d6000803e3d6000fd5b505050506040513d601f19601f8201168201806040525081019062000129919062000b6d565b156200013457600080fd5b600d8054600e80546001600160a01b03199081166001600160a01b038981169190911790925560118054821688841617905560088054610100600160a81b03191661010088851602179055601280549091168583161790556001600160b01b031990911662010000888316810261ffff191691909117928390556040516315a722b960e31b81526415000000016004820181905293919091049091169063ad3915c890602401600060405180830381600087803b158015620001f557600080fd5b505af11580156200020a573d6000803e3d6000fd5b50506040805180820182526001600160a01b038a168082529151635b69006f60e11b81527fa9214cc96615e0085d3bb077758db69497dc2dce3b2b1e97bc93c3d18d83efd3600482015290935060208401925063b6d200de90602401602060405180830381865afa15801562000284573d6000803e3d6000fd5b505050506040513d601f19601f82011682018060405250810190620002aa919062000b91565b6001600160a01b039081169091528151600f80546001600160a01b031990811692841692909217905560209092015160108054909316911617905550620002fc94508b9350600192506200031c915050565b5050601380546001600160a01b031916331790555062000dbe9350505050565b6001600160a01b038216620003785760405162461bcd60e51b815260206004820181905260248201527f4552433732313a206d696e7420746f20746865207a65726f206164647265737360448201526064015b60405180910390fd5b6000818152600260205260409020546001600160a01b031615620003df5760405162461bcd60e51b815260206004820152601c60248201527f4552433732313a20746f6b656e20616c7265616479206d696e7465640000000060448201526064016200036f565b620003ed6000838362000476565b6001600160a01b03821660009081526003602052604081208054600192906200041890849062000bb1565b909155505060008181526002602052604080822080546001600160a01b0319166001600160a01b03861690811790915590518392907fddf252ad1be2c89b69c2b068fc378daa952ba7f163c4a11628f55a4df523b3ef908290a45050565b620004818262000506565b6001600160a01b0383161562000501576013546040516337997bf960e21b81523060048201526001600160a01b03858116602483015284811660448301529091169063de65efe490606401600060405180830381600087803b158015620004e757600080fd5b505af1158015620004fc573d6000803e3d6000fd5b505050505b505050565b6001600160a01b0381166200051a57600080fd5b600d54604051631e51d6a760e11b81526001600160a01b0383811660048301526201000090920490911690633ca3ad4e90602401602060405180830381865afa1580156200056c573d6000803e3d6000fd5b505050506040513d601f19601f8201168201806040525081019062000592919062000b6d565b156200059d57600080fd5b6012546001600160a01b0390811690821603620005b75750565b600e54601154601254604051631cd43d1160e31b81526001600160a01b0392831660048201523060248201529082166044820152600092919091169063e6a1e88890606401608060405180830381865afa1580156200061a573d6000803e3d6000fd5b505050506040513d601f19601f8201168201806040525081019062000640919062000bf0565b5050915050600081600b0b131562000720576012546011546200068191600f9130916001600160a01b03908116911662000775602090811b620015dc17901c565b601254601154600e5460405163e8e7e2d160e01b81526001600160a01b039283166004820181905230602483015262000720948416939092169063e8e7e2d190604401602060405180830381865afa158015620006e2573d6000803e3d6000fd5b505050506040513d601f19601f8201168201806040525081019062000708919062000c2f565b600f6200079d60201b620015fc17909392919060201c565b601280546001600160a01b0319166001600160a01b0384169081179091556040519081527f7dfb1d59db37a3fd2e15e796c189dcab714cdbb18650d68a1de58f8fa60718c99060200160405180910390a15050565b60408051600081526020810190915262000797908590859085908590620007bf565b50505050565b60408051600081526020810190915262000797908590859085908590620008a5565b845460018601546040805160008152602081019091526001600160a01b03928316926339255d5b921690819063b4b333c690620008069088908b908b906044810162000c7b565b60408051808303601f1901815291815260208201805160e094851b6001600160e01b03909116179052519185901b6001600160e01b03191682526200085393925090869060040162000cbb565b6000604051808303816000875af115801562000873573d6000803e3d6000fd5b505050506040513d6000823e601f3d908101601f191682016040526200089d919081019062000cf5565b505050505050565b845460018601546040805160008152602081019091526001600160a01b03928316926339255d5b92169081906362fc305e90620008069089908b908a906044810162000d4a565b828054620008fa9062000d82565b90600052602060002090601f0160209004810192826200091e576000855562000969565b82601f106200093957805160ff191683800117855562000969565b8280016001018555821562000969579182015b82811115620009695782518255916020019190600101906200094c565b50620009779291506200097b565b5090565b5b808211156200097757600081556001016200097c565b6001600160a01b0381168114620009a857600080fd5b50565b634e487b7160e01b600052604160045260246000fd5b60005b83811015620009de578181015183820152602001620009c4565b83811115620007975750506000910152565b60006001600160401b038084111562000a0d5762000a0d620009ab565b604051601f8501601f19908116603f0116810190828211818310171562000a385762000a38620009ab565b8160405280935085815286868601111562000a5257600080fd5b62000a62866020830187620009c1565b5050509392505050565b600082601f83011262000a7e57600080fd5b62000a8f83835160208501620009f0565b9392505050565b600080600080600080600060e0888a03121562000ab257600080fd5b875162000abf8162000992565b60208901519097506001600160401b038082111562000add57600080fd5b62000aeb8b838c0162000a6c565b975060408a015191508082111562000b0257600080fd5b5062000b118a828b0162000a6c565b955050606088015162000b248162000992565b608089015190945062000b378162000992565b60a089015190935062000b4a8162000992565b60c089015190925062000b5d8162000992565b8091505092959891949750929550565b60006020828403121562000b8057600080fd5b8151801515811462000a8f57600080fd5b60006020828403121562000ba457600080fd5b815162000a8f8162000992565b6000821982111562000bd357634e487b7160e01b600052601160045260246000fd5b500190565b8051600b81900b811462000beb57600080fd5b919050565b6000806000806080858703121562000c0757600080fd5b8451935062000c196020860162000bd8565b6040860151606090960151949790965092505050565b60006020828403121562000c4257600080fd5b62000a8f8262000bd8565b6000815180845262000c67816020860160208601620009c1565b601f01601f19169290920160200192915050565b6001600160a01b03858116825284811660208301528316604082015260806060820181905260009062000cb19083018462000c4d565b9695505050505050565b6001600160a01b038416815260606020820181905260009062000ce19083018562000c4d565b828103604084015262000cb1818562000c4d565b60006020828403121562000d0857600080fd5b81516001600160401b0381111562000d1f57600080fd5b8201601f8101841362000d3157600080fd5b62000d4284825160208401620009f0565b949350505050565b6001600160a01b03858116825284166020820152600b83900b604082015260806060820181905260009062000cb19083018462000c4d565b600181811c9082168062000d9757607f821691505b60208210810362000db857634e487b7160e01b600052602260045260246000fd5b50919050565b6134558062000dce6000396000f3fe608060405234801561001057600080fd5b506004361061021c5760003560e01c80635f9e7d7711610125578063ad008184116100ad578063d86ed3e51161007c578063d86ed3e5146104b0578063db10b642146104c3578063e985e9c5146104cb578063e9997cdd146104de578063fcedc2c1146104fd57600080fd5b8063ad00818414610463578063b88d4fde14610477578063c45a01551461048a578063c87b56dd1461049d57600080fd5b806377f78ad3116100f457806377f78ad31461040a57806382776b6214610422578063884d1f401461043557806395d89b4114610448578063a22cb4651461045057600080fd5b80635f9e7d77146103be57806361c83a45146103d15780636352211e146103e457806370a08231146103f757600080fd5b806328d2bf94116101a85780634e5b3c7c116101775780634e5b3c7c1461035d57806353c11f99146103705780635838048d146103835780635c2fad3b146103a25780635c78db46146103ab57600080fd5b806328d2bf941461030057806330d9c9151461032e578063352fd1281461034157806342842e0e1461034a57600080fd5b8063095ea7b3116101ef578063095ea7b31461029c57806316c9b880146102b1578063230dbd29146102c857806323b872dd146102db578063243c0465146102ee57600080fd5b806301ffc9a71461022157806302964ff11461024957806306fdde0314610274578063081812fc14610289575b600080fd5b61023461022f3660046125da565b61050a565b60405190151581526020015b60405180910390f35b60125461025c906001600160a01b031681565b6040516001600160a01b039091168152602001610240565b61027c61055c565b604051610240919061264f565b61025c610297366004612662565b6105ee565b6102af6102aa366004612690565b610615565b005b6102ba600a5481565b604051908152602001610240565b61027c6102d6366004612705565b61072f565b6102af6102e93660046127d0565b61090e565b600d5461023490610100900460ff1681565b61030861093f565b604080519384526001600160a01b039092166020840152600b0b90820152606001610240565b61027c61033c366004612811565b6109f3565b6102ba60075481565b6102af6103583660046127d0565b610a56565b60115461025c906001600160a01b031681565b61027c61037e366004612705565b610a71565b6008546103909060ff1681565b60405160ff9091168152602001610240565b6102ba600c5481565b60095461025c906001600160a01b031681565b61027c6103cc366004612811565b610c32565b6102af6103df3660046128ce565b610c99565b61025c6103f2366004612662565b610d52565b6102ba61040536600461295a565b610db2565b60085461025c9061010090046001600160a01b031681565b60065461025c906001600160a01b031681565b61027c610443366004612811565b610e38565b61027c610e9b565b6102af61045e366004612985565b610eaa565b60095461039090600160a01b900460ff1681565b6102af610485366004612a57565b610eb9565b60135461025c906001600160a01b031681565b61027c6104ab366004612662565b610ef1565b61027c6104be366004612705565b610f65565b6102af611177565b6102346104d9366004612b06565b6115ae565b600b80546104ea910b81565b604051600b9190910b8152602001610240565b600d546102349060ff1681565b60006001600160e01b031982166380ac58cd60e01b148061053b57506001600160e01b03198216635b5e139f60e01b145b8061055657506301ffc9a760e01b6001600160e01b03198316145b92915050565b60606000805461056b90612b34565b80601f016020809104026020016040519081016040528092919081815260200182805461059790612b34565b80156105e45780601f106105b9576101008083540402835291602001916105e4565b820191906000526020600020905b8154815290600101906020018083116105c757829003601f168201915b5050505050905090565b60006105f98261161c565b506000908152600460205260409020546001600160a01b031690565b600061062082610d52565b9050806001600160a01b0316836001600160a01b0316036106925760405162461bcd60e51b815260206004820152602160248201527f4552433732313a20617070726f76616c20746f2063757272656e74206f776e656044820152603960f91b60648201526084015b60405180910390fd5b336001600160a01b03821614806106ae57506106ae81336115ae565b6107205760405162461bcd60e51b815260206004820152603e60248201527f4552433732313a20617070726f76652063616c6c6572206973206e6f7420746f60448201527f6b656e206f776e6572206e6f7220617070726f76656420666f7220616c6c00006064820152608401610689565b61072a838361167e565b505050565b6060898961074b826011546001600160a01b0391821691161490565b6107975760405162461bcd60e51b815260206004820152601f60248201527f5265646972656374416c6c3a206e6f7420616363657074656420746f6b656e006044820152606401610689565b6107a0816116ec565b6107bc5760405162461bcd60e51b815260040161068990612b6e565b600d546201000090046001600160a01b031633146107ec5760405162461bcd60e51b815260040161068990612baf565b600e54601154604051631cd43d1160e31b81526000926001600160a01b039081169263e6a1e88892610828929091169033903090600401612bf1565b608060405180830381865afa158015610845573d6000803e3d6000fd5b505050506040513d601f19601f820116820180604052508101906108699190612c14565b5050600b805491935090810b9083900b12801591506108895750600c5442105b801561089c5750600d5460ff1615156001145b80156108b05750600d54610100900460ff16155b156108c2576108bd611778565b6108f3565b600d5460ff61010090910416151560011480156108e65750600b8054810b9082900b125b156108f3576108f361180d565b6108fd868661189c565b9d9c50505050505050505050505050565b6109183382611ade565b6109345760405162461bcd60e51b815260040161068990612c52565b61072a838383611b3d565b601254600090819081906001600160a01b0316156109ee57600e54601154601254604051631cd43d1160e31b81526001600160a01b039384169363e6a1e888936109959390821692309290911690600401612bf1565b608060405180830381865afa1580156109b2573d6000803e3d6000fd5b505050506040513d601f19601f820116820180604052508101906109d69190612c14565b50506012549194506001600160a01b03909116925090505b909192565b60405162461bcd60e51b815260206004820152602f60248201527f556e737570706f727465642063616c6c6261636b202d204265666f726520416760448201526e1c99595b595b9d0810dc99585d1959608a1b6064820152606090608401610689565b61072a83838360405180602001604052806000815250610eb9565b600d546060906201000090046001600160a01b03163314610aa45760405162461bcd60e51b815260040161068990612baf565b6011546001600160a01b038b81169116141580610ac75750610ac5896116ec565b155b15610b0b5782828080601f016020809104026020016040519081016040528093929190818152602001838380828437600092019190915250929350610c2592505050565b42600c55600d805461ffff1916905560065460125460075460405163a9059cbb60e01b81526001600160a01b039283166004820152602481019190915291169063a9059cbb906044016020604051808303816000875af1925050508015610b8f575060408051601f3d908101601f19168201909252610b8c91810190612ca0565b60015b610c165760065460125460075460405163095ea7b360e01b81526001600160a01b039283166004820152602481019190915291169063095ea7b3906044016020604051808303816000875af1158015610bec573d6000803e3d6000fd5b505050506040513d601f19601f82011682018060405250810190610c109190612ca0565b50610c18565b505b610c22838361189c565b90505b9998505050505050505050565b60405162461bcd60e51b815260206004820152603360248201527f556e737570706f727465642063616c6c6261636b202d20204265666f7265204160448201527219dc99595b595b9d0815195c9b5a5b985d1959606a1b6064820152606090608401610689565b6012546001600160a01b03163314610cb057600080fd5b600680546001600160a01b03998a166001600160a01b03199091161790556007969096556008805460ff96871660ff19918216179091556009805494909616600160a01b026001600160a81b0319909416949097169390931791909117909255600a92909255600b80546bffffffffffffffffffffffff9092166bffffffffffffffffffffffff19909216919091179055600c55600d80549091166001179055565b6000818152600260205260408120546001600160a01b0316806105565760405162461bcd60e51b8152602060048201526018602482015277115490cdcc8c4e881a5b9d985b1a59081d1bdad95b88125160421b6044820152606401610689565b60006001600160a01b038216610e1c5760405162461bcd60e51b815260206004820152602960248201527f4552433732313a2061646472657373207a65726f206973206e6f7420612076616044820152683634b21037bbb732b960b91b6064820152608401610689565b506001600160a01b031660009081526003602052604090205490565b60405162461bcd60e51b815260206004820152602f60248201527f556e737570706f727465642063616c6c6261636b202d204265666f726520416760448201526e1c99595b595b9d081d5c19185d1959608a1b6064820152606090608401610689565b60606001805461056b90612b34565b610eb5338383611ce4565b5050565b610ec33383611ade565b610edf5760405162461bcd60e51b815260040161068990612c52565b610eeb84848484611db2565b50505050565b6060610efc8261161c565b6000610f1360408051602081019091526000815290565b90506000815111610f335760405180602001604052806000815250610f5e565b80610f3d84611de5565b604051602001610f4e929190612cbd565b6040516020818303038152906040525b9392505050565b60608989610f81826011546001600160a01b0391821691161490565b610fcd5760405162461bcd60e51b815260206004820152601f60248201527f5265646972656374416c6c3a206e6f7420616363657074656420746f6b656e006044820152606401610689565b610fd6816116ec565b610ff25760405162461bcd60e51b815260040161068990612b6e565b600d546201000090046001600160a01b031633146110225760405162461bcd60e51b815260040161068990612baf565b600d54604051631fb6491d60e11b81526000916201000090046001600160a01b031690633f6c923a9061105b9089908990600401612cec565b600060405180830381865afa158015611078573d6000803e3d6000fd5b505050506040513d6000823e601f3d908101601f191682016040526110a09190810190612d86565b6060810151600e54601154604051631cd43d1160e31b815293945091926000926001600160a01b039283169263e6a1e888926110e6929091169086903090600401612bf1565b608060405180830381865afa158015611103573d6000803e3d6000fd5b505050506040513d601f19601f820116820180604052508101906111279190612c14565b5050600b805491935090810b9083900b128015915061114d5750600d5460ff1615156001145b1561115a5761115a611778565b611164888861189c565b9f9e505050505050505050505050505050565b600a54600854604051636eb1769f60e11b81523360048201523060248201526101009091046001600160a01b03169063dd62ed3e90604401602060405180830381865afa1580156111cc573d6000803e3d6000fd5b505050506040513d601f19601f820116820180604052508101906111f09190612e8d565b101561123e5760405162461bcd60e51b815260206004820152601760248201527f6d7573742063616c6c20617070726f76652066697273740000000000000000006044820152606401610689565b600c5442106112515761124f61180d565b565b60095460408051633fabe5a360e21b815290516000926001600160a01b03169163feaf968c9160048083019260a09291908290030181865afa15801561129b573d6000803e3d6000fd5b505050506040513d601f19601f820116820180604052508101906112bf9190612ec0565b505060085460095492945060ff908116600160a01b9093041691909114915061133a9050576009546008546000916113049160ff600160a01b90920482169116612f26565b60ff16905060008112156113215761131e81600019612f49565b90505b61132c81600a6130b2565b61133690836130be565b9150505b600e54601154604051631cd43d1160e31b81526000926001600160a01b039081169263e6a1e88892611376929091169033903090600401612bf1565b608060405180830381865afa158015611393573d6000803e3d6000fd5b505050506040513d601f19601f820116820180604052508101906113b79190612c14565b5050915050600a5482121561140e5760405162461bcd60e51b815260206004820152601760248201527f6f7074696f6e206f7574206f6620746865206d6f6e65790000000000000000006044820152606401610689565b600b8054810b9082900b121561145f5760405162461bcd60e51b8152602060048201526016602482015275696e73756666696369656e7420666c6f77207261746560501b6044820152606401610689565b600854601254600a546040516323b872dd60e01b81523360048201526001600160a01b039283166024820152604481019190915261010090920416906323b872dd906064016020604051808303816000875af11580156114c3573d6000803e3d6000fd5b505050506040513d601f19601f820116820180604052508101906114e79190612ca0565b5060065460075460405163a9059cbb60e01b815233600482015260248101919091526001600160a01b039091169063a9059cbb906044016020604051808303816000875af115801561153d573d6000803e3d6000fd5b505050506040513d601f19601f820116820180604052508101906115619190612ca0565b5060125460115461158391600f9130916001600160a01b0390811691166115dc565b60115461159f90600f90339030906001600160a01b03166115dc565b5050600d805461ffff19169055565b6001600160a01b03918216600090815260056020908152604080832093909416825291909152205460ff1690565b604080516000815260208101909152610eeb908590859085908590611ee6565b604080516000815260208101909152610eeb908590859085908590611fc5565b6000818152600260205260409020546001600160a01b031661167b5760405162461bcd60e51b8152602060048201526018602482015277115490cdcc8c4e881a5b9d985b1a59081d1bdad95b88125160421b6044820152606401610689565b50565b600081815260046020526040902080546001600160a01b0319166001600160a01b03841690811790915581906116b382610d52565b6001600160a01b03167f8c5be1e5ebec7d5bd14f71427d1e84f3dd0314c0f7b2291e5b200ac8c7c3b92560405160405180910390a45050565b60007fa9214cc96615e0085d3bb077758db69497dc2dce3b2b1e97bc93c3d18d83efd3826001600160a01b0316637730599e6040518163ffffffff1660e01b8152600401602060405180830381865afa15801561174d573d6000803e3d6000fd5b505050506040513d601f19601f820116820180604052508101906117719190612e8d565b1492915050565b6006546012546007546040516323b872dd60e01b81526001600160a01b03928316600482015230602482015260448101919091529116906323b872dd906064016020604051808303816000875af11580156117d7573d6000803e3d6000fd5b505050506040513d601f19601f820116820180604052508101906117fb9190612ca0565b50600d805461ff001916610100179055565b60065460125460075460405163a9059cbb60e01b81526001600160a01b039283166004820152602481019190915291169063a9059cbb906044016020604051808303816000875af1158015611866573d6000803e3d6000fd5b505050506040513d601f19601f8201168201806040525081019061188a9190612ca0565b5042600c55600d805461ffff19169055565b606082828080601f0160208091040260200160405190810160405280939291908181526020018383808284376000920182905250600e5460115460405163e8e7e2d160e01b81526001600160a01b03918216600482015230602482015296975091959116935063e8e7e2d192506044019050602060405180830381865afa15801561192b573d6000803e3d6000fd5b505050506040513d601f19601f8201168201806040525081019061194f91906130dd565b600e54601154601254604051631cd43d1160e31b81529394506000936001600160a01b039384169363e6a1e888936119939390821692309290911690600401612bf1565b608060405180830381865afa1580156119b0573d6000803e3d6000fd5b505050506040513d601f19601f820116820180604052508101906119d49190612c14565b5050915050600081836119e791906130fa565b9050600b81900b611a1c57601254601154611a1591600f91879130916001600160a01b03918216911661200a565b9350611ad5565b600b82900b15611a7c57611a1586868080601f01602080910402602001604051908101604052809392919081815260200183838082843760009201919091525050601254601154600f9493506001600160a01b0391821692501685612039565b611ad286868080601f01602080910402602001604051908101604052809392919081815260200183838082843760009201919091525050601254601154600f9493506001600160a01b039182169250168561205e565b93505b50505092915050565b600080611aea83610d52565b9050806001600160a01b0316846001600160a01b03161480611b115750611b1181856115ae565b80611b355750836001600160a01b0316611b2a846105ee565b6001600160a01b0316145b949350505050565b826001600160a01b0316611b5082610d52565b6001600160a01b031614611bb45760405162461bcd60e51b815260206004820152602560248201527f4552433732313a207472616e736665722066726f6d20696e636f72726563742060448201526437bbb732b960d91b6064820152608401610689565b6001600160a01b038216611c165760405162461bcd60e51b8152602060048201526024808201527f4552433732313a207472616e7366657220746f20746865207a65726f206164646044820152637265737360e01b6064820152608401610689565b611c21838383612083565b611c2c60008261167e565b6001600160a01b0383166000908152600360205260408120805460019290611c55908490613153565b90915550506001600160a01b0382166000908152600360205260408120805460019290611c8390849061316a565b909155505060008181526002602052604080822080546001600160a01b0319166001600160a01b0386811691821790925591518493918716917fddf252ad1be2c89b69c2b068fc378daa952ba7f163c4a11628f55a4df523b3ef91a4505050565b816001600160a01b0316836001600160a01b031603611d455760405162461bcd60e51b815260206004820152601960248201527f4552433732313a20617070726f766520746f2063616c6c6572000000000000006044820152606401610689565b6001600160a01b03838116600081815260056020908152604080832094871680845294825291829020805460ff191686151590811790915591519182527f17307eab39ab6107e8899845ad3d59bd9653f200f220920489ca2b5937696c31910160405180910390a3505050565b611dbd848484611b3d565b611dc984848484612106565b610eeb5760405162461bcd60e51b815260040161068990613182565b606081600003611e0c5750506040805180820190915260018152600360fc1b602082015290565b8160005b8115611e365780611e20816131d4565b9150611e2f9050600a83613203565b9150611e10565b60008167ffffffffffffffff811115611e5157611e516129be565b6040519080825280601f01601f191660200182016040528015611e7b576020820181803683370190505b5090505b8415611b3557611e90600183613153565b9150611e9d600a86613217565b611ea890603061316a565b60f81b818381518110611ebd57611ebd61322b565b60200101906001600160f81b031916908160001a905350611edf600a86613203565b9450611e7f565b845460018601546040805160008152602081019091526001600160a01b03928316926339255d5b921690819063b4b333c690611f2b9088908b908b9060448101613241565b60408051808303601f1901815291815260208201805160e094851b6001600160e01b03909116179052519185901b6001600160e01b0319168252611f76939250908690600401613275565b6000604051808303816000875af1158015611f95573d6000803e3d6000fd5b505050506040513d6000823e601f3d908101601f19168201604052611fbd91908101906132ab565b505050505050565b845460018601546040805160008152602081019091526001600160a01b03928316926339255d5b92169081906362fc305e90611f2b9089908b908a90604481016132e0565b60408051600081526020810190915260609061202f9087908790879087908790612207565b9695505050505050565b60408051600081526020810190915260609061202f90879087908790879087906122f0565b60408051600081526020810190915260609061202f9087908790879087908790612357565b61208c82612384565b6001600160a01b0383161561072a576013546040516337997bf960e21b81526001600160a01b039091169063de65efe4906120cf90309087908790600401612bf1565b600060405180830381600087803b1580156120e957600080fd5b505af11580156120fd573d6000803e3d6000fd5b50505050505050565b60006001600160a01b0384163b156121fc57604051630a85bd0160e11b81526001600160a01b0385169063150b7a029061214a903390899088908890600401613316565b6020604051808303816000875af1925050508015612185575060408051601f3d908101601f1916820190925261218291810190613349565b60015b6121e2573d8080156121b3576040519150601f19603f3d011682016040523d82523d6000602084013e6121b8565b606091505b5080516000036121da5760405162461bcd60e51b815260040161068990613182565b805181602001fd5b6001600160e01b031916630a85bd0160e11b149050611b35565b506001949350505050565b855460018701546040805160008152602081019091526060926001600160a01b0390811692634329d29392911690819063b4b333c6906122509089908c908c9060448101613241565b60408051808303601f1901815291815260208201805160e094851b6001600160e01b03909116179052519185901b6001600160e01b031916825261229d9392509087908c90600401613366565b6000604051808303816000875af11580156122bc573d6000803e3d6000fd5b505050506040513d6000823e601f3d908101601f191682016040526122e491908101906133bb565b50979650505050505050565b855460018701546060916001600160a01b0390811691634329d2939116806350209a62888a8960005b6040519080825280601f01601f191660200182016040528015612343576020820181803683370190505b5060405160240161225094939291906132e0565b855460018701546060916001600160a01b0390811691634329d2939116806362fc305e888a896000612319565b6001600160a01b03811661239757600080fd5b600d54604051631e51d6a760e11b81526001600160a01b0383811660048301526201000090920490911690633ca3ad4e90602401602060405180830381865afa1580156123e8573d6000803e3d6000fd5b505050506040513d601f19601f8201168201806040525081019061240c9190612ca0565b1561241657600080fd5b6012546001600160a01b039081169082160361242f5750565b600e54601154601254604051631cd43d1160e31b81526000936001600160a01b039081169363e6a1e8889361246f93918316923092911690600401612bf1565b608060405180830381865afa15801561248c573d6000803e3d6000fd5b505050506040513d601f19601f820116820180604052508101906124b09190612c14565b5050915050600081600b0b131561256f576012546011546124e291600f9130916001600160a01b0390811691166115dc565b601254601154600e5460405163e8e7e2d160e01b81526001600160a01b039283166004820181905230602483015261256f948416939092169063e8e7e2d190604401602060405180830381865afa158015612541573d6000803e3d6000fd5b505050506040513d601f19601f8201168201806040525081019061256591906130dd565b600f9291906115fc565b601280546001600160a01b0319166001600160a01b0384169081179091556040519081527f7dfb1d59db37a3fd2e15e796c189dcab714cdbb18650d68a1de58f8fa60718c99060200160405180910390a15050565b6001600160e01b03198116811461167b57600080fd5b6000602082840312156125ec57600080fd5b8135610f5e816125c4565b60005b838110156126125781810151838201526020016125fa565b83811115610eeb5750506000910152565b6000815180845261263b8160208601602086016125f7565b601f01601f19169290920160200192915050565b602081526000610f5e6020830184612623565b60006020828403121561267457600080fd5b5035919050565b6001600160a01b038116811461167b57600080fd5b600080604083850312156126a357600080fd5b82356126ae8161267b565b946020939093013593505050565b60008083601f8401126126ce57600080fd5b50813567ffffffffffffffff8111156126e657600080fd5b6020830191508360208285010111156126fe57600080fd5b9250929050565b600080600080600080600080600060c08a8c03121561272357600080fd5b893561272e8161267b565b985060208a013561273e8161267b565b975060408a0135965060608a013567ffffffffffffffff8082111561276257600080fd5b61276e8d838e016126bc565b909850965060808c013591508082111561278757600080fd5b6127938d838e016126bc565b909650945060a08c01359150808211156127ac57600080fd5b506127b98c828d016126bc565b915080935050809150509295985092959850929598565b6000806000606084860312156127e557600080fd5b83356127f08161267b565b925060208401356128008161267b565b929592945050506040919091013590565b600080600080600080600060a0888a03121561282c57600080fd5b87356128378161267b565b965060208801356128478161267b565b955060408801359450606088013567ffffffffffffffff8082111561286b57600080fd5b6128778b838c016126bc565b909650945060808a013591508082111561289057600080fd5b5061289d8a828b016126bc565b989b979a50959850939692959293505050565b60ff8116811461167b57600080fd5b80600b0b811461167b57600080fd5b600080600080600080600080610100898b0312156128eb57600080fd5b88356128f68161267b565b975060208901359650604089013561290d816128b0565b9550606089013561291d8161267b565b9450608089013561292d816128b0565b935060a089013561293d816128bf565b979a969950949793969295929450505060c08201359160e0013590565b60006020828403121561296c57600080fd5b8135610f5e8161267b565b801515811461167b57600080fd5b6000806040838503121561299857600080fd5b82356129a38161267b565b915060208301356129b381612977565b809150509250929050565b634e487b7160e01b600052604160045260246000fd5b604051610160810167ffffffffffffffff811182821017156129f8576129f86129be565b60405290565b604051601f8201601f1916810167ffffffffffffffff81118282101715612a2757612a276129be565b604052919050565b600067ffffffffffffffff821115612a4957612a496129be565b50601f01601f191660200190565b60008060008060808587031215612a6d57600080fd5b8435612a788161267b565b93506020850135612a888161267b565b925060408501359150606085013567ffffffffffffffff811115612aab57600080fd5b8501601f81018713612abc57600080fd5b8035612acf612aca82612a2f565b6129fe565b818152886020838501011115612ae457600080fd5b8160208401602083013760006020838301015280935050505092959194509250565b60008060408385031215612b1957600080fd5b8235612b248161267b565b915060208301356129b38161267b565b600181811c90821680612b4857607f821691505b602082108103612b6857634e487b7160e01b600052602260045260246000fd5b50919050565b60208082526021908201527f5265646972656374416c6c3a206f6e6c7920434641763120737570706f7274656040820152601960fa1b606082015260800190565b60208082526022908201527f5265646972656374416c6c3a20737570706f7274206f6e6c79206f6e6520686f6040820152611cdd60f21b606082015260800190565b6001600160a01b0393841681529183166020830152909116604082015260600190565b60008060008060808587031215612c2a57600080fd5b845193506020850151612c3c816128bf565b6040860151606090960151949790965092505050565b6020808252602e908201527f4552433732313a2063616c6c6572206973206e6f7420746f6b656e206f776e6560408201526d1c881b9bdc88185c1c1c9bdd995960921b606082015260800190565b600060208284031215612cb257600080fd5b8151610f5e81612977565b60008351612ccf8184602088016125f7565b835190830190612ce38183602088016125f7565b01949350505050565b60208152816020820152818360408301376000818301604090810191909152601f909201601f19160101919050565b8051612d26816128b0565b919050565b8051612d268161267b565b8051612d26816125c4565b600082601f830112612d5257600080fd5b8151612d60612aca82612a2f565b818152846020838601011115612d7557600080fd5b611b358260208301602087016125f7565b600060208284031215612d9857600080fd5b815167ffffffffffffffff80821115612db057600080fd5b908301906101608286031215612dc557600080fd5b612dcd6129d4565b612dd683612d1b565b8152612de460208401612d1b565b602082015260408301516040820152612dff60608401612d2b565b6060820152612e1060808401612d36565b608082015260a083015182811115612e2757600080fd5b612e3387828601612d41565b60a08301525060c083015160c082015260e083015160e0820152610100915081830151828201526101209150612e6a828401612d2b565b828201526101409150612e7e828401612d2b565b91810191909152949350505050565b600060208284031215612e9f57600080fd5b5051919050565b805169ffffffffffffffffffff81168114612d2657600080fd5b600080600080600060a08688031215612ed857600080fd5b612ee186612ea6565b9450602086015193506040860151925060608601519150612f0460808701612ea6565b90509295509295909350565b634e487b7160e01b600052601160045260246000fd5b600060ff821660ff841680821015612f4057612f40612f10565b90039392505050565b60006001600160ff1b0381841382841380821686840486111615612f6f57612f6f612f10565b600160ff1b6000871282811687830589121615612f8e57612f8e612f10565b60008712925087820587128484161615612faa57612faa612f10565b87850587128184161615612fc057612fc0612f10565b505050929093029392505050565b600181815b80851115613009578160001904821115612fef57612fef612f10565b80851615612ffc57918102915b93841c9390800290612fd3565b509250929050565b60008261302057506001610556565b8161302d57506000610556565b8160018114613043576002811461304d57613069565b6001915050610556565b60ff84111561305e5761305e612f10565b50506001821b610556565b5060208310610133831016604e8410600b841016171561308c575081810a610556565b6130968383612fce565b80600019048211156130aa576130aa612f10565b029392505050565b6000610f5e8383613011565b60008160001904831182151516156130d8576130d8612f10565b500290565b6000602082840312156130ef57600080fd5b8151610f5e816128bf565b600081600b0b83600b0b60008212826b7fffffffffffffffffffffff0382138115161561312957613129612f10565b826b7fffffffffffffffffffffff1903821281161561314a5761314a612f10565b50019392505050565b60008282101561316557613165612f10565b500390565b6000821982111561317d5761317d612f10565b500190565b60208082526032908201527f4552433732313a207472616e7366657220746f206e6f6e20455243373231526560408201527131b2b4bb32b91034b6b83632b6b2b73a32b960711b606082015260800190565b6000600182016131e6576131e6612f10565b5060010190565b634e487b7160e01b600052601260045260246000fd5b600082613212576132126131ed565b500490565b600082613226576132266131ed565b500690565b634e487b7160e01b600052603260045260246000fd5b6001600160a01b03858116825284811660208301528316604082015260806060820181905260009061202f90830184612623565b6001600160a01b038416815260606020820181905260009061329990830185612623565b828103604084015261202f8185612623565b6000602082840312156132bd57600080fd5b815167ffffffffffffffff8111156132d457600080fd5b611b3584828501612d41565b6001600160a01b03858116825284166020820152600b83900b604082015260806060820181905260009061202f90830184612623565b6001600160a01b038581168252841660208201526040810183905260806060820181905260009061202f90830184612623565b60006020828403121561335b57600080fd5b8151610f5e816125c4565b6001600160a01b038516815260806020820181905260009061338a90830186612623565b828103604084015261339c8186612623565b905082810360608401526133b08185612623565b979650505050505050565b600080604083850312156133ce57600080fd5b825167ffffffffffffffff808211156133e657600080fd5b6133f286838701612d41565b9350602085015191508082111561340857600080fd5b5061341585828601612d41565b915050925092905056fea2646970667358221220e103b94d7beb6b502593c013830a0fb2396adc69a467813e833d76b35bcee38f64736f6c634300080d0033",
  "linkReferences": {},
  "deployedLinkReferences": {}
}