{
  "_format": "hh-sol-artifact-1",
  "contractName": "OptionPutFactory",
  "sourceName": "contracts/OptionPutFactory.sol",
  "abi": [
    {
      "inputs": [
        {
          "internalType": "address",
          "name": "_option",
          "type": "address"
        },
        {
          "internalType": "address",
          "name": "_from",
          "type": "address"
        },
        {
          "internalType": "address",
          "name": "_to",
          "type": "address"
        }
      ],
      "name": "changePutOptionOwner",
      "outputs": [],
      "stateMutability": "nonpayable",
      "type": "function"
    },
    {
      "inputs": [],
      "name": "getPutOptions",
      "outputs": [
        {
          "internalType": "address[]",
          "name": "",
          "type": "address[]"
        }
      ],
      "stateMutability": "view",
      "type": "function"
    },
    {
      "inputs": [
        {
          "internalType": "address",
          "name": "_wallet",
          "type": "address"
        }
      ],
      "name": "getPutOptionsByWallet",
      "outputs": [
        {
          "internalType": "address[]",
          "name": "",
          "type": "address[]"
        }
      ],
      "stateMutability": "view",
      "type": "function"
    },
    {
      "inputs": [
        {
          "internalType": "address",
          "name": "owner",
          "type": "address"
        },
        {
          "internalType": "string",
          "name": "_name",
          "type": "string"
        },
        {
          "internalType": "string",
          "name": "_symbol",
          "type": "string"
        },
        {
          "internalType": "contract ISuperfluid",
          "name": "host",
          "type": "address"
        },
        {
          "internalType": "contract IConstantFlowAgreementV1",
          "name": "cfa",
          "type": "address"
        },
        {
          "internalType": "contract ISuperToken",
          "name": "acceptedToken",
          "type": "address"
        },
        {
          "internalType": "contract ERC20",
          "name": "dai",
          "type": "address"
        }
      ],
      "name": "mintPutOption",
      "outputs": [],
      "stateMutability": "nonpayable",
      "type": "function"
    },
    {
      "inputs": [
        {
          "internalType": "address",
          "name": "",
          "type": "address"
        },
        {
          "internalType": "uint256",
          "name": "",
          "type": "uint256"
        }
      ],
      "name": "walletToPutOptions",
      "outputs": [
        {
          "internalType": "address",
          "name": "",
          "type": "address"
        }
      ],
      "stateMutability": "view",
      "type": "function"
    }
  ],
  "bytecode": "0x608060405234801561001057600080fd5b50614b0f806100206000396000f3fe60806040523480156200001157600080fd5b50600436106200005e5760003560e01c80631f6a512814620000635780637aa6ee0614620000925780638f7b66fc14620000ab57806394d0a2ef14620000db578063dcd1624f14620000e5575b600080fd5b6200007a62000074366004620004ac565b620000fc565b604051620000899190620004d3565b60405180910390f35b620000a9620000a3366004620005cd565b62000172565b005b620000c2620000bc366004620006a1565b62000238565b6040516001600160a01b03909116815260200162000089565b6200007a62000271565b620000a9620000f6366004620006d0565b620002d5565b6001600160a01b038116600090815260208181526040918290208054835181840281018401909452808452606093928301828280156200016657602002820191906000526020600020905b81546001600160a01b0316815260019091019060200180831162000147575b50505050509050919050565b600087878787878787604051620001899062000485565b6200019b979695949392919062000772565b604051809103906000f080158015620001b8573d6000803e3d6000fd5b506001600160a01b03988916600090815260208181526040822080546001818101835591845291832090910180549b9093166001600160a01b03199b8c1681179093558054808201825591527fb10e2d527612073b26eecdfd717e6a320cf44b4afac2b0732d9fcbe2b7fa0cf60180549099161790975550505050505050565b600060205281600052604060002081815481106200025557600080fd5b6000918252602090912001546001600160a01b03169150829050565b60606001805480602002602001604051908101604052809291908181526020018280548015620002cb57602002820191906000526020600020905b81546001600160a01b03168152600190910190602001808311620002ac575b5050505050905090565b60005b6001600160a01b038316600090815260208190526040902054811162000443576001600160a01b038381166000908152602081905260409020805491861691839081106200032a576200032a620007d4565b6000918252602090912001546001600160a01b0316036200042e576001600160a01b038316600090815260208190526040902080546200036d9060019062000800565b81548110620003805762000380620007d4565b60009182526020808320909101546001600160a01b038681168452918390526040909220805491909216919083908110620003bf57620003bf620007d4565b600091825260208083209190910180546001600160a01b0319166001600160a01b03948516179055918516815290819052604090208054806200040657620004066200081a565b600082815260209020810160001990810180546001600160a01b031916905501905562000443565b806200043a8162000830565b915050620002d8565b506001600160a01b039081166000908152602081815260408220805460018101825590835291200180546001600160a01b031916939091169290921790915550565b61428d806200084d83390190565b6001600160a01b0381168114620004a957600080fd5b50565b600060208284031215620004bf57600080fd5b8135620004cc8162000493565b9392505050565b6020808252825182820181905260009190848201906040850190845b81811015620005165783516001600160a01b031683529284019291840191600101620004ef565b50909695505050505050565b634e487b7160e01b600052604160045260246000fd5b600082601f8301126200054a57600080fd5b813567ffffffffffffffff8082111562000568576200056862000522565b604051601f8301601f19908116603f0116810190828211818310171562000593576200059362000522565b81604052838152866020858801011115620005ad57600080fd5b836020870160208301376000602085830101528094505050505092915050565b600080600080600080600060e0888a031215620005e957600080fd5b8735620005f68162000493565b9650602088013567ffffffffffffffff808211156200061457600080fd5b620006228b838c0162000538565b975060408a01359150808211156200063957600080fd5b50620006488a828b0162000538565b95505060608801356200065b8162000493565b935060808801356200066d8162000493565b925060a08801356200067f8162000493565b915060c0880135620006918162000493565b8091505092959891949750929550565b60008060408385031215620006b557600080fd5b8235620006c28162000493565b946020939093013593505050565b600080600060608486031215620006e657600080fd5b8335620006f38162000493565b92506020840135620007058162000493565b91506040840135620007178162000493565b809150509250925092565b6000815180845260005b818110156200074a576020818501810151868301820152016200072c565b818111156200075d576000602083870101525b50601f01601f19169290920160200192915050565b600060018060a01b03808a16835260e060208401526200079660e084018a62000722565b8381036040850152620007aa818a62000722565b97821660608501525094851660808301525091831660a083015290911660c0909101529392505050565b634e487b7160e01b600052603260045260246000fd5b634e487b7160e01b600052601160045260246000fd5b600082821015620008155762000815620007ea565b500390565b634e487b7160e01b600052603160045260246000fd5b600060018201620008455762000845620007ea565b506001019056fe60806040526008805460ff191660121790553480156200001e57600080fd5b506040516200428d3803806200428d833981016040819052620000419162000a96565b838383838a8a8a816000908051906020019062000060929190620008ec565b50805162000076906001906020840190620008ec565b5050506001600160a01b0385166200008d57600080fd5b6001600160a01b038416620000a157600080fd5b6001600160a01b038316620000b557600080fd5b6001600160a01b038116620000c957600080fd5b604051631e51d6a760e11b81526001600160a01b038281166004830152861690633ca3ad4e90602401602060405180830381865afa15801562000110573d6000803e3d6000fd5b505050506040513d601f19601f8201168201806040525081019062000136919062000b6d565b156200014157600080fd5b600e8054600f80546001600160a01b03199081166001600160a01b0389811691909117909255601280548216888416179055600680548216878416179055601380549091168583161790556001600160b01b031990911662010000888316810261ffff191691909117928390556040516315a722b960e31b81526415000000016004820181905293919091049091169063ad3915c890602401600060405180830381600087803b158015620001f557600080fd5b505af11580156200020a573d6000803e3d6000fd5b50506040805180820182526001600160a01b038a168082529151635b69006f60e11b81527fa9214cc96615e0085d3bb077758db69497dc2dce3b2b1e97bc93c3d18d83efd3600482015290935060208401925063b6d200de90602401602060405180830381865afa15801562000284573d6000803e3d6000fd5b505050506040513d601f19601f82011682018060405250810190620002aa919062000b91565b6001600160a01b039081169091528151601080546001600160a01b031990811692841692909217905560209092015160118054909316911617905550620002fc94508b9350600192506200031c915050565b5050601480546001600160a01b031916331790555062000dbe9350505050565b6001600160a01b038216620003785760405162461bcd60e51b815260206004820181905260248201527f4552433732313a206d696e7420746f20746865207a65726f206164647265737360448201526064015b60405180910390fd5b6000818152600260205260409020546001600160a01b031615620003df5760405162461bcd60e51b815260206004820152601c60248201527f4552433732313a20746f6b656e20616c7265616479206d696e7465640000000060448201526064016200036f565b620003ed6000838362000476565b6001600160a01b03821660009081526003602052604081208054600192906200041890849062000bb1565b909155505060008181526002602052604080822080546001600160a01b0319166001600160a01b03861690811790915590518392907fddf252ad1be2c89b69c2b068fc378daa952ba7f163c4a11628f55a4df523b3ef908290a45050565b620004818262000506565b6001600160a01b03831615620005015760145460405163dcd1624f60e01b81523060048201526001600160a01b03858116602483015284811660448301529091169063dcd1624f90606401600060405180830381600087803b158015620004e757600080fd5b505af1158015620004fc573d6000803e3d6000fd5b505050505b505050565b6001600160a01b0381166200051a57600080fd5b600e54604051631e51d6a760e11b81526001600160a01b0383811660048301526201000090920490911690633ca3ad4e90602401602060405180830381865afa1580156200056c573d6000803e3d6000fd5b505050506040513d601f19601f8201168201806040525081019062000592919062000b6d565b156200059d57600080fd5b6013546001600160a01b0390811690821603620005b75750565b600f54601254601354604051631cd43d1160e31b81526001600160a01b0392831660048201523060248201529082166044820152600092919091169063e6a1e88890606401608060405180830381865afa1580156200061a573d6000803e3d6000fd5b505050506040513d601f19601f8201168201806040525081019062000640919062000bf0565b5050915050600081600b0b13156200072057601354601254620006819160109130916001600160a01b03908116911662000775602090811b6200161617901c565b601354601254600f5460405163e8e7e2d160e01b81526001600160a01b039283166004820181905230602483015262000720948416939092169063e8e7e2d190604401602060405180830381865afa158015620006e2573d6000803e3d6000fd5b505050506040513d601f19601f8201168201806040525081019062000708919062000c2f565b60106200079d60201b6200163617909392919060201c565b601380546001600160a01b0319166001600160a01b0384169081179091556040519081527f7dfb1d59db37a3fd2e15e796c189dcab714cdbb18650d68a1de58f8fa60718c99060200160405180910390a15050565b60408051600081526020810190915262000797908590859085908590620007bf565b50505050565b60408051600081526020810190915262000797908590859085908590620008a5565b845460018601546040805160008152602081019091526001600160a01b03928316926339255d5b921690819063b4b333c690620008069088908b908b906044810162000c7b565b60408051808303601f1901815291815260208201805160e094851b6001600160e01b03909116179052519185901b6001600160e01b03191682526200085393925090869060040162000cbb565b6000604051808303816000875af115801562000873573d6000803e3d6000fd5b505050506040513d6000823e601f3d908101601f191682016040526200089d919081019062000cf5565b505050505050565b845460018601546040805160008152602081019091526001600160a01b03928316926339255d5b92169081906362fc305e90620008069089908b908a906044810162000d4a565b828054620008fa9062000d82565b90600052602060002090601f0160209004810192826200091e576000855562000969565b82601f106200093957805160ff191683800117855562000969565b8280016001018555821562000969579182015b82811115620009695782518255916020019190600101906200094c565b50620009779291506200097b565b5090565b5b808211156200097757600081556001016200097c565b6001600160a01b0381168114620009a857600080fd5b50565b634e487b7160e01b600052604160045260246000fd5b60005b83811015620009de578181015183820152602001620009c4565b83811115620007975750506000910152565b60006001600160401b038084111562000a0d5762000a0d620009ab565b604051601f8501601f19908116603f0116810190828211818310171562000a385762000a38620009ab565b8160405280935085815286868601111562000a5257600080fd5b62000a62866020830187620009c1565b5050509392505050565b600082601f83011262000a7e57600080fd5b62000a8f83835160208501620009f0565b9392505050565b600080600080600080600060e0888a03121562000ab257600080fd5b875162000abf8162000992565b60208901519097506001600160401b038082111562000add57600080fd5b62000aeb8b838c0162000a6c565b975060408a015191508082111562000b0257600080fd5b5062000b118a828b0162000a6c565b955050606088015162000b248162000992565b608089015190945062000b378162000992565b60a089015190935062000b4a8162000992565b60c089015190925062000b5d8162000992565b8091505092959891949750929550565b60006020828403121562000b8057600080fd5b8151801515811462000a8f57600080fd5b60006020828403121562000ba457600080fd5b815162000a8f8162000992565b6000821982111562000bd357634e487b7160e01b600052601160045260246000fd5b500190565b8051600b81900b811462000beb57600080fd5b919050565b6000806000806080858703121562000c0757600080fd5b8451935062000c196020860162000bd8565b6040860151606090960151949790965092505050565b60006020828403121562000c4257600080fd5b62000a8f8262000bd8565b6000815180845262000c67816020860160208601620009c1565b601f01601f19169290920160200192915050565b6001600160a01b03858116825284811660208301528316604082015260806060820181905260009062000cb19083018462000c4d565b9695505050505050565b6001600160a01b038416815260606020820181905260009062000ce19083018562000c4d565b828103604084015262000cb1818562000c4d565b60006020828403121562000d0857600080fd5b81516001600160401b0381111562000d1f57600080fd5b8201601f8101841362000d3157600080fd5b62000d4284825160208401620009f0565b949350505050565b6001600160a01b03858116825284166020820152600b83900b604082015260806060820181905260009062000cb19083018462000c4d565b600181811c9082168062000d9757607f821691505b60208210810362000db857634e487b7160e01b600052602260045260246000fd5b50919050565b6134bf8062000dce6000396000f3fe608060405234801561001057600080fd5b50600436106102275760003560e01c80635c2fad3b11610130578063ad008184116100b8578063db10b6421161007c578063db10b642146104c4578063e985e9c5146104cc578063e9997cdd146104df578063f667a90f146104ff578063fcedc2c11461051257600080fd5b8063ad00818414610464578063b88d4fde14610478578063c45a01551461048b578063c87b56dd1461049e578063d86ed3e5146104b157600080fd5b806370a08231116100ff57806370a082311461041057806377f78ad314610423578063884d1f401461043657806395d89b4114610449578063a22cb4651461045157600080fd5b80635c2fad3b146103ce5780635c78db46146103d75780635f9e7d77146103ea5780636352211e146103fd57600080fd5b806328d2bf94116101b357806342842e0e1161018257806342842e0e1461036d5780634528ba60146103805780634e5b3c7c1461038957806353c11f991461039c5780635838048d146103af57600080fd5b806328d2bf941461030b57806330d9c91514610339578063338937521461034c578063352fd1281461036457600080fd5b8063095ea7b3116101fa578063095ea7b3146102a757806316c9b880146102bc578063230dbd29146102d357806323b872dd146102e6578063243c0465146102f957600080fd5b806301ffc9a71461022c57806302964ff11461025457806306fdde031461027f578063081812fc14610294575b600080fd5b61023f61023a366004612614565b61051f565b60405190151581526020015b60405180910390f35b601354610267906001600160a01b031681565b6040516001600160a01b03909116815260200161024b565b610287610571565b60405161024b9190612689565b6102676102a236600461269c565b610603565b6102ba6102b53660046126ca565b61062a565b005b6102c560095481565b60405190815260200161024b565b6102876102e136600461273f565b610744565b6102ba6102f436600461280a565b610926565b600e5461023f90610100900460ff1681565b610313610957565b604080519384526001600160a01b039092166020840152600b0b9082015260600161024b565b61028761034736600461284b565b610a0b565b6008546102679061010090046001600160a01b031681565b6102c560075481565b6102ba61037b36600461280a565b610a6e565b6102c5600a5481565b601254610267906001600160a01b031681565b6102876103aa36600461273f565b610a89565b6008546103bc9060ff1681565b60405160ff909116815260200161024b565b6102c5600d5481565b600b54610267906001600160a01b031681565b6102876103f836600461284b565b610c4a565b61026761040b36600461269c565b610cb1565b6102c561041e3660046128ea565b610d11565b600654610267906001600160a01b031681565b61028761044436600461284b565b610d97565b610287610dfa565b6102ba61045f366004612915565b610e09565b600b546103bc90600160a01b900460ff1681565b6102ba6104863660046129e7565b610e18565b601454610267906001600160a01b031681565b6102876104ac36600461269c565b610e50565b6102876104bf36600461273f565b610ec4565b6102ba6110d7565b61023f6104da366004612a96565b61153b565b600c546104ec90600b0b81565b604051600b9190910b815260200161024b565b6102ba61050d366004612ae2565b611569565b600e5461023f9060ff1681565b60006001600160e01b031982166380ac58cd60e01b148061055057506001600160e01b03198216635b5e139f60e01b145b8061056b57506301ffc9a760e01b6001600160e01b03198316145b92915050565b60606000805461058090612b70565b80601f01602080910402602001604051908101604052809291908181526020018280546105ac90612b70565b80156105f95780601f106105ce576101008083540402835291602001916105f9565b820191906000526020600020905b8154815290600101906020018083116105dc57829003601f168201915b5050505050905090565b600061060e82611656565b506000908152600460205260409020546001600160a01b031690565b600061063582610cb1565b9050806001600160a01b0316836001600160a01b0316036106a75760405162461bcd60e51b815260206004820152602160248201527f4552433732313a20617070726f76616c20746f2063757272656e74206f776e656044820152603960f91b60648201526084015b60405180910390fd5b336001600160a01b03821614806106c357506106c3813361153b565b6107355760405162461bcd60e51b815260206004820152603e60248201527f4552433732313a20617070726f76652063616c6c6572206973206e6f7420746f60448201527f6b656e206f776e6572206e6f7220617070726f76656420666f7220616c6c0000606482015260840161069e565b61073f83836116b8565b505050565b60608989610760826012546001600160a01b0391821691161490565b6107ac5760405162461bcd60e51b815260206004820152601f60248201527f5265646972656374416c6c3a206e6f7420616363657074656420746f6b656e00604482015260640161069e565b6107b581611726565b6107d15760405162461bcd60e51b815260040161069e90612baa565b600e546201000090046001600160a01b031633146108015760405162461bcd60e51b815260040161069e90612beb565b600f54601254604051631cd43d1160e31b81526000926001600160a01b039081169263e6a1e8889261083d929091169033903090600401612c2d565b608060405180830381865afa15801561085a573d6000803e3d6000fd5b505050506040513d601f19601f8201168201806040525081019061087e9190612c50565b5050600c54909250600b90810b9083900b128015915061089f5750600d5442105b80156108b25750600e5460ff1615156001145b80156108c65750600e54610100900460ff16155b156108d8576108d36117b2565b61090b565b600e5460ff61010090910416151560011480156108fe5750600c54600b90810b9082900b125b1561090b5761090b611847565b61091586866118d6565b9d9c50505050505050505050505050565b6109303382611b18565b61094c5760405162461bcd60e51b815260040161069e90612c8e565b61073f838383611b77565b601354600090819081906001600160a01b031615610a0657600f54601254601354604051631cd43d1160e31b81526001600160a01b039384169363e6a1e888936109ad9390821692309290911690600401612c2d565b608060405180830381865afa1580156109ca573d6000803e3d6000fd5b505050506040513d601f19601f820116820180604052508101906109ee9190612c50565b50506013549194506001600160a01b03909116925090505b909192565b60405162461bcd60e51b815260206004820152602f60248201527f556e737570706f727465642063616c6c6261636b202d204265666f726520416760448201526e1c99595b595b9d0810dc99585d1959608a1b606482015260609060840161069e565b61073f83838360405180602001604052806000815250610e18565b600e546060906201000090046001600160a01b03163314610abc5760405162461bcd60e51b815260040161069e90612beb565b6012546001600160a01b038b81169116141580610adf5750610add89611726565b155b15610b235782828080601f016020809104026020016040519081016040528093929190818152602001838380828437600092019190915250929350610c3d92505050565b42600d55600e805461ffff1916905560065460135460075460405163a9059cbb60e01b81526001600160a01b039283166004820152602481019190915291169063a9059cbb906044016020604051808303816000875af1925050508015610ba7575060408051601f3d908101601f19168201909252610ba491810190612cdc565b60015b610c2e5760065460135460075460405163095ea7b360e01b81526001600160a01b039283166004820152602481019190915291169063095ea7b3906044016020604051808303816000875af1158015610c04573d6000803e3d6000fd5b505050506040513d601f19601f82011682018060405250810190610c289190612cdc565b50610c30565b505b610c3a83836118d6565b90505b9998505050505050505050565b60405162461bcd60e51b815260206004820152603360248201527f556e737570706f727465642063616c6c6261636b202d20204265666f7265204160448201527219dc99595b595b9d0815195c9b5a5b985d1959606a1b606482015260609060840161069e565b6000818152600260205260408120546001600160a01b03168061056b5760405162461bcd60e51b8152602060048201526018602482015277115490cdcc8c4e881a5b9d985b1a59081d1bdad95b88125160421b604482015260640161069e565b60006001600160a01b038216610d7b5760405162461bcd60e51b815260206004820152602960248201527f4552433732313a2061646472657373207a65726f206973206e6f7420612076616044820152683634b21037bbb732b960b91b606482015260840161069e565b506001600160a01b031660009081526003602052604090205490565b60405162461bcd60e51b815260206004820152602f60248201527f556e737570706f727465642063616c6c6261636b202d204265666f726520416760448201526e1c99595b595b9d081d5c19185d1959608a1b606482015260609060840161069e565b60606001805461058090612b70565b610e14338383611d1e565b5050565b610e223383611b18565b610e3e5760405162461bcd60e51b815260040161069e90612c8e565b610e4a84848484611dec565b50505050565b6060610e5b82611656565b6000610e7260408051602081019091526000815290565b90506000815111610e925760405180602001604052806000815250610ebd565b80610e9c84611e1f565b604051602001610ead929190612cf9565b6040516020818303038152906040525b9392505050565b60608989610ee0826012546001600160a01b0391821691161490565b610f2c5760405162461bcd60e51b815260206004820152601f60248201527f5265646972656374416c6c3a206e6f7420616363657074656420746f6b656e00604482015260640161069e565b610f3581611726565b610f515760405162461bcd60e51b815260040161069e90612baa565b600e546201000090046001600160a01b03163314610f815760405162461bcd60e51b815260040161069e90612beb565b600e54604051631fb6491d60e11b81526000916201000090046001600160a01b031690633f6c923a90610fba9089908990600401612d28565b600060405180830381865afa158015610fd7573d6000803e3d6000fd5b505050506040513d6000823e601f3d908101601f19168201604052610fff9190810190612dc2565b6060810151600f54601254604051631cd43d1160e31b815293945091926000926001600160a01b039283169263e6a1e88892611045929091169086903090600401612c2d565b608060405180830381865afa158015611062573d6000803e3d6000fd5b505050506040513d601f19601f820116820180604052508101906110869190612c50565b5050600c54909250600b90810b9083900b12801591506110ad5750600e5460ff1615156001145b156110ba576110ba6117b2565b6110c488886118d6565b9f9e505050505050505050505050505050565b600954600854604051636eb1769f60e11b81523360048201523060248201526101009091046001600160a01b03169063dd62ed3e90604401602060405180830381865afa15801561112c573d6000803e3d6000fd5b505050506040513d601f19601f820116820180604052508101906111509190612ec9565b101561119e5760405162461bcd60e51b815260206004820152601760248201527f6d7573742063616c6c20617070726f7665206669727374000000000000000000604482015260640161069e565b600d5442106111b1576111af611847565b565b600b5460408051633fabe5a360e21b815290516000926001600160a01b03169163feaf968c9160048083019260a09291908290030181865afa1580156111fb573d6000803e3d6000fd5b505050506040513d601f19601f8201168201806040525081019061121f9190612efc565b5050600854600b5492945060ff908116600160a01b9093041691909114915061129a905057600b546008546000916112649160ff600160a01b90920482169116612f62565b60ff16905060008112156112815761127e81600019612f85565b90505b61128c81600a6130ee565b61129690836130fa565b9150505b600f54601254604051631cd43d1160e31b81526000926001600160a01b039081169263e6a1e888926112d6929091169033903090600401612c2d565b608060405180830381865afa1580156112f3573d6000803e3d6000fd5b505050506040513d601f19601f820116820180604052508101906113179190612c50565b50509150506000600a54600a61132d91906130ee565b60095461133a9085612f85565b611344919061312f565b90506007548111156113985760405162461bcd60e51b815260206004820152601760248201527f6f7074696f6e206f7574206f6620746865206d6f6e6579000000000000000000604482015260640161069e565b600c54600b90810b9083900b12156113eb5760405162461bcd60e51b8152602060048201526016602482015275696e73756666696369656e7420666c6f77207261746560501b604482015260640161069e565b6008546013546009546040516323b872dd60e01b81523360048201526001600160a01b039283166024820152604481019190915261010090920416906323b872dd906064016020604051808303816000875af115801561144f573d6000803e3d6000fd5b505050506040513d601f19601f820116820180604052508101906114739190612cdc565b5060065460075460405163a9059cbb60e01b815233600482015260248101919091526001600160a01b039091169063a9059cbb906044016020604051808303816000875af11580156114c9573d6000803e3d6000fd5b505050506040513d601f19601f820116820180604052508101906114ed9190612cdc565b5060135460125461150f9160109130916001600160a01b039081169116611616565b60125461152b90601090339030906001600160a01b0316611616565b5050600e805461ffff1916905550565b6001600160a01b03918216600090815260056020908152604080832093909416825291909152205460ff1690565b6013546001600160a01b0316331461158057600080fd5b600797909755600880546001600160a01b0397881661010002610100600160a81b031990911617905560ff938416600a55600b805492909416600160a01b026001600160a81b03199092169290951691909117179055600955600c80546bffffffffffffffffffffffff9092166bffffffffffffffffffffffff19909216919091179055600d55600e805460ff19166001179055565b604080516000815260208101909152610e4a908590859085908590611f20565b604080516000815260208101909152610e4a908590859085908590611fff565b6000818152600260205260409020546001600160a01b03166116b55760405162461bcd60e51b8152602060048201526018602482015277115490cdcc8c4e881a5b9d985b1a59081d1bdad95b88125160421b604482015260640161069e565b50565b600081815260046020526040902080546001600160a01b0319166001600160a01b03841690811790915581906116ed82610cb1565b6001600160a01b03167f8c5be1e5ebec7d5bd14f71427d1e84f3dd0314c0f7b2291e5b200ac8c7c3b92560405160405180910390a45050565b60007fa9214cc96615e0085d3bb077758db69497dc2dce3b2b1e97bc93c3d18d83efd3826001600160a01b0316637730599e6040518163ffffffff1660e01b8152600401602060405180830381865afa158015611787573d6000803e3d6000fd5b505050506040513d601f19601f820116820180604052508101906117ab9190612ec9565b1492915050565b6006546013546007546040516323b872dd60e01b81526001600160a01b03928316600482015230602482015260448101919091529116906323b872dd906064016020604051808303816000875af1158015611811573d6000803e3d6000fd5b505050506040513d601f19601f820116820180604052508101906118359190612cdc565b50600e805461ff001916610100179055565b60065460135460075460405163a9059cbb60e01b81526001600160a01b039283166004820152602481019190915291169063a9059cbb906044016020604051808303816000875af11580156118a0573d6000803e3d6000fd5b505050506040513d601f19601f820116820180604052508101906118c49190612cdc565b5042600d55600e805461ffff19169055565b606082828080601f0160208091040260200160405190810160405280939291908181526020018383808284376000920182905250600f5460125460405163e8e7e2d160e01b81526001600160a01b03918216600482015230602482015296975091959116935063e8e7e2d192506044019050602060405180830381865afa158015611965573d6000803e3d6000fd5b505050506040513d601f19601f82011682018060405250810190611989919061315d565b600f54601254601354604051631cd43d1160e31b81529394506000936001600160a01b039384169363e6a1e888936119cd9390821692309290911690600401612c2d565b608060405180830381865afa1580156119ea573d6000803e3d6000fd5b505050506040513d601f19601f82011682018060405250810190611a0e9190612c50565b505091505060008183611a21919061317a565b9050600b81900b611a5657601354601254611a4f91601091879130916001600160a01b039182169116612044565b9350611b0f565b600b82900b15611ab657611a4f86868080601f0160208091040260200160405190810160405280939291908181526020018383808284376000920191909152505060135460125460109493506001600160a01b0391821692501685612073565b611b0c86868080601f0160208091040260200160405190810160405280939291908181526020018383808284376000920191909152505060135460125460109493506001600160a01b0391821692501685612098565b93505b50505092915050565b600080611b2483610cb1565b9050806001600160a01b0316846001600160a01b03161480611b4b5750611b4b818561153b565b80611b6f5750836001600160a01b0316611b6484610603565b6001600160a01b0316145b949350505050565b826001600160a01b0316611b8a82610cb1565b6001600160a01b031614611bee5760405162461bcd60e51b815260206004820152602560248201527f4552433732313a207472616e736665722066726f6d20696e636f72726563742060448201526437bbb732b960d91b606482015260840161069e565b6001600160a01b038216611c505760405162461bcd60e51b8152602060048201526024808201527f4552433732313a207472616e7366657220746f20746865207a65726f206164646044820152637265737360e01b606482015260840161069e565b611c5b8383836120bd565b611c666000826116b8565b6001600160a01b0383166000908152600360205260408120805460019290611c8f9084906131d3565b90915550506001600160a01b0382166000908152600360205260408120805460019290611cbd9084906131ea565b909155505060008181526002602052604080822080546001600160a01b0319166001600160a01b0386811691821790925591518493918716917fddf252ad1be2c89b69c2b068fc378daa952ba7f163c4a11628f55a4df523b3ef91a4505050565b816001600160a01b0316836001600160a01b031603611d7f5760405162461bcd60e51b815260206004820152601960248201527f4552433732313a20617070726f766520746f2063616c6c657200000000000000604482015260640161069e565b6001600160a01b03838116600081815260056020908152604080832094871680845294825291829020805460ff191686151590811790915591519182527f17307eab39ab6107e8899845ad3d59bd9653f200f220920489ca2b5937696c31910160405180910390a3505050565b611df7848484611b77565b611e0384848484612140565b610e4a5760405162461bcd60e51b815260040161069e90613202565b606081600003611e465750506040805180820190915260018152600360fc1b602082015290565b8160005b8115611e705780611e5a81613254565b9150611e699050600a8361326d565b9150611e4a565b60008167ffffffffffffffff811115611e8b57611e8b61294e565b6040519080825280601f01601f191660200182016040528015611eb5576020820181803683370190505b5090505b8415611b6f57611eca6001836131d3565b9150611ed7600a86613281565b611ee29060306131ea565b60f81b818381518110611ef757611ef7613295565b60200101906001600160f81b031916908160001a905350611f19600a8661326d565b9450611eb9565b845460018601546040805160008152602081019091526001600160a01b03928316926339255d5b921690819063b4b333c690611f659088908b908b90604481016132ab565b60408051808303601f1901815291815260208201805160e094851b6001600160e01b03909116179052519185901b6001600160e01b0319168252611fb09392509086906004016132df565b6000604051808303816000875af1158015611fcf573d6000803e3d6000fd5b505050506040513d6000823e601f3d908101601f19168201604052611ff79190810190613315565b505050505050565b845460018601546040805160008152602081019091526001600160a01b03928316926339255d5b92169081906362fc305e90611f659089908b908a906044810161334a565b6040805160008152602081019091526060906120699087908790879087908790612241565b9695505050505050565b604080516000815260208101909152606090612069908790879087908790879061232a565b6040805160008152602081019091526060906120699087908790879087908790612391565b6120c6826123be565b6001600160a01b0383161561073f5760145460405163dcd1624f60e01b81526001600160a01b039091169063dcd1624f9061210990309087908790600401612c2d565b600060405180830381600087803b15801561212357600080fd5b505af1158015612137573d6000803e3d6000fd5b50505050505050565b60006001600160a01b0384163b1561223657604051630a85bd0160e11b81526001600160a01b0385169063150b7a0290612184903390899088908890600401613380565b6020604051808303816000875af19250505080156121bf575060408051601f3d908101601f191682019092526121bc918101906133b3565b60015b61221c573d8080156121ed576040519150601f19603f3d011682016040523d82523d6000602084013e6121f2565b606091505b5080516000036122145760405162461bcd60e51b815260040161069e90613202565b805181602001fd5b6001600160e01b031916630a85bd0160e11b149050611b6f565b506001949350505050565b855460018701546040805160008152602081019091526060926001600160a01b0390811692634329d29392911690819063b4b333c69061228a9089908c908c90604481016132ab565b60408051808303601f1901815291815260208201805160e094851b6001600160e01b03909116179052519185901b6001600160e01b03191682526122d79392509087908c906004016133d0565b6000604051808303816000875af11580156122f6573d6000803e3d6000fd5b505050506040513d6000823e601f3d908101601f1916820160405261231e9190810190613425565b50979650505050505050565b855460018701546060916001600160a01b0390811691634329d2939116806350209a62888a8960005b6040519080825280601f01601f19166020018201604052801561237d576020820181803683370190505b5060405160240161228a949392919061334a565b855460018701546060916001600160a01b0390811691634329d2939116806362fc305e888a896000612353565b6001600160a01b0381166123d157600080fd5b600e54604051631e51d6a760e11b81526001600160a01b0383811660048301526201000090920490911690633ca3ad4e90602401602060405180830381865afa158015612422573d6000803e3d6000fd5b505050506040513d601f19601f820116820180604052508101906124469190612cdc565b1561245057600080fd5b6013546001600160a01b03908116908216036124695750565b600f54601254601354604051631cd43d1160e31b81526000936001600160a01b039081169363e6a1e888936124a993918316923092911690600401612c2d565b608060405180830381865afa1580156124c6573d6000803e3d6000fd5b505050506040513d601f19601f820116820180604052508101906124ea9190612c50565b5050915050600081600b0b13156125a95760135460125461251c9160109130916001600160a01b039081169116611616565b601354601254600f5460405163e8e7e2d160e01b81526001600160a01b03928316600482018190523060248301526125a9948416939092169063e8e7e2d190604401602060405180830381865afa15801561257b573d6000803e3d6000fd5b505050506040513d601f19601f8201168201806040525081019061259f919061315d565b6010929190611636565b601380546001600160a01b0319166001600160a01b0384169081179091556040519081527f7dfb1d59db37a3fd2e15e796c189dcab714cdbb18650d68a1de58f8fa60718c99060200160405180910390a15050565b6001600160e01b0319811681146116b557600080fd5b60006020828403121561262657600080fd5b8135610ebd816125fe565b60005b8381101561264c578181015183820152602001612634565b83811115610e4a5750506000910152565b60008151808452612675816020860160208601612631565b601f01601f19169290920160200192915050565b602081526000610ebd602083018461265d565b6000602082840312156126ae57600080fd5b5035919050565b6001600160a01b03811681146116b557600080fd5b600080604083850312156126dd57600080fd5b82356126e8816126b5565b946020939093013593505050565b60008083601f84011261270857600080fd5b50813567ffffffffffffffff81111561272057600080fd5b60208301915083602082850101111561273857600080fd5b9250929050565b600080600080600080600080600060c08a8c03121561275d57600080fd5b8935612768816126b5565b985060208a0135612778816126b5565b975060408a0135965060608a013567ffffffffffffffff8082111561279c57600080fd5b6127a88d838e016126f6565b909850965060808c01359150808211156127c157600080fd5b6127cd8d838e016126f6565b909650945060a08c01359150808211156127e657600080fd5b506127f38c828d016126f6565b915080935050809150509295985092959850929598565b60008060006060848603121561281f57600080fd5b833561282a816126b5565b9250602084013561283a816126b5565b929592945050506040919091013590565b600080600080600080600060a0888a03121561286657600080fd5b8735612871816126b5565b96506020880135612881816126b5565b955060408801359450606088013567ffffffffffffffff808211156128a557600080fd5b6128b18b838c016126f6565b909650945060808a01359150808211156128ca57600080fd5b506128d78a828b016126f6565b989b979a50959850939692959293505050565b6000602082840312156128fc57600080fd5b8135610ebd816126b5565b80151581146116b557600080fd5b6000806040838503121561292857600080fd5b8235612933816126b5565b9150602083013561294381612907565b809150509250929050565b634e487b7160e01b600052604160045260246000fd5b604051610160810167ffffffffffffffff811182821017156129885761298861294e565b60405290565b604051601f8201601f1916810167ffffffffffffffff811182821017156129b7576129b761294e565b604052919050565b600067ffffffffffffffff8211156129d9576129d961294e565b50601f01601f191660200190565b600080600080608085870312156129fd57600080fd5b8435612a08816126b5565b93506020850135612a18816126b5565b925060408501359150606085013567ffffffffffffffff811115612a3b57600080fd5b8501601f81018713612a4c57600080fd5b8035612a5f612a5a826129bf565b61298e565b818152886020838501011115612a7457600080fd5b8160208401602083013760006020838301015280935050505092959194509250565b60008060408385031215612aa957600080fd5b8235612ab4816126b5565b91506020830135612943816126b5565b60ff811681146116b557600080fd5b80600b0b81146116b557600080fd5b600080600080600080600080610100898b031215612aff57600080fd5b883597506020890135612b11816126b5565b9650604089013595506060890135612b2881612ac4565b94506080890135612b38816126b5565b935060a0890135612b4881612ac4565b925060c0890135612b5881612ad3565b8092505060e089013590509295985092959890939650565b600181811c90821680612b8457607f821691505b602082108103612ba457634e487b7160e01b600052602260045260246000fd5b50919050565b60208082526021908201527f5265646972656374416c6c3a206f6e6c7920434641763120737570706f7274656040820152601960fa1b606082015260800190565b60208082526022908201527f5265646972656374416c6c3a20737570706f7274206f6e6c79206f6e6520686f6040820152611cdd60f21b606082015260800190565b6001600160a01b0393841681529183166020830152909116604082015260600190565b60008060008060808587031215612c6657600080fd5b845193506020850151612c7881612ad3565b6040860151606090960151949790965092505050565b6020808252602e908201527f4552433732313a2063616c6c6572206973206e6f7420746f6b656e206f776e6560408201526d1c881b9bdc88185c1c1c9bdd995960921b606082015260800190565b600060208284031215612cee57600080fd5b8151610ebd81612907565b60008351612d0b818460208801612631565b835190830190612d1f818360208801612631565b01949350505050565b60208152816020820152818360408301376000818301604090810191909152601f909201601f19160101919050565b8051612d6281612ac4565b919050565b8051612d62816126b5565b8051612d62816125fe565b600082601f830112612d8e57600080fd5b8151612d9c612a5a826129bf565b818152846020838601011115612db157600080fd5b611b6f826020830160208701612631565b600060208284031215612dd457600080fd5b815167ffffffffffffffff80821115612dec57600080fd5b908301906101608286031215612e0157600080fd5b612e09612964565b612e1283612d57565b8152612e2060208401612d57565b602082015260408301516040820152612e3b60608401612d67565b6060820152612e4c60808401612d72565b608082015260a083015182811115612e6357600080fd5b612e6f87828601612d7d565b60a08301525060c083015160c082015260e083015160e0820152610100915081830151828201526101209150612ea6828401612d67565b828201526101409150612eba828401612d67565b91810191909152949350505050565b600060208284031215612edb57600080fd5b5051919050565b805169ffffffffffffffffffff81168114612d6257600080fd5b600080600080600060a08688031215612f1457600080fd5b612f1d86612ee2565b9450602086015193506040860151925060608601519150612f4060808701612ee2565b90509295509295909350565b634e487b7160e01b600052601160045260246000fd5b600060ff821660ff841680821015612f7c57612f7c612f4c565b90039392505050565b60006001600160ff1b0381841382841380821686840486111615612fab57612fab612f4c565b600160ff1b6000871282811687830589121615612fca57612fca612f4c565b60008712925087820587128484161615612fe657612fe6612f4c565b87850587128184161615612ffc57612ffc612f4c565b505050929093029392505050565b600181815b8085111561304557816000190482111561302b5761302b612f4c565b8085161561303857918102915b93841c939080029061300f565b509250929050565b60008261305c5750600161056b565b816130695750600061056b565b816001811461307f5760028114613089576130a5565b600191505061056b565b60ff84111561309a5761309a612f4c565b50506001821b61056b565b5060208310610133831016604e8410600b84101617156130c8575081810a61056b565b6130d2838361300a565b80600019048211156130e6576130e6612f4c565b029392505050565b6000610ebd838361304d565b600081600019048311821515161561311457613114612f4c565b500290565b634e487b7160e01b600052601260045260246000fd5b60008261313e5761313e613119565b600160ff1b82146000198414161561315857613158612f4c565b500590565b60006020828403121561316f57600080fd5b8151610ebd81612ad3565b600081600b0b83600b0b60008212826b7fffffffffffffffffffffff038213811516156131a9576131a9612f4c565b826b7fffffffffffffffffffffff190382128116156131ca576131ca612f4c565b50019392505050565b6000828210156131e5576131e5612f4c565b500390565b600082198211156131fd576131fd612f4c565b500190565b60208082526032908201527f4552433732313a207472616e7366657220746f206e6f6e20455243373231526560408201527131b2b4bb32b91034b6b83632b6b2b73a32b960711b606082015260800190565b60006001820161326657613266612f4c565b5060010190565b60008261327c5761327c613119565b500490565b60008261329057613290613119565b500690565b634e487b7160e01b600052603260045260246000fd5b6001600160a01b0385811682528481166020830152831660408201526080606082018190526000906120699083018461265d565b6001600160a01b03841681526060602082018190526000906133039083018561265d565b8281036040840152612069818561265d565b60006020828403121561332757600080fd5b815167ffffffffffffffff81111561333e57600080fd5b611b6f84828501612d7d565b6001600160a01b03858116825284166020820152600b83900b60408201526080606082018190526000906120699083018461265d565b6001600160a01b03858116825284166020820152604081018390526080606082018190526000906120699083018461265d565b6000602082840312156133c557600080fd5b8151610ebd816125fe565b6001600160a01b03851681526080602082018190526000906133f49083018661265d565b8281036040840152613406818661265d565b9050828103606084015261341a818561265d565b979650505050505050565b6000806040838503121561343857600080fd5b825167ffffffffffffffff8082111561345057600080fd5b61345c86838701612d7d565b9350602085015191508082111561347257600080fd5b5061347f85828601612d7d565b915050925092905056fea264697066735822122065dd661f6b827dc6c90243ab7132ca0c3966290e09a9d8f928bc7ee2c058621564736f6c634300080d0033a2646970667358221220b33534ab6d2a9a8f502b3bc6ee1826bc16055216966a3aa6fb38eeea9f53866c64736f6c634300080d0033",
  "linkReferences": {},
  "deployedLinkReferences": {}
}