{
  "_format": "hh-sol-artifact-1",
  "contractName": "OptionPutFactory",
  "sourceName": "contracts/OptionPutFactory.sol",
  "abi": [
    {
      "inputs": [
        {
          "internalType": "address",
          "name": "_option",
          "type": "address"
        },
        {
          "internalType": "address",
          "name": "_from",
          "type": "address"
        },
        {
          "internalType": "address",
          "name": "_to",
          "type": "address"
        }
      ],
      "name": "changePutOptionOwner",
      "outputs": [],
      "stateMutability": "nonpayable",
      "type": "function"
    },
    {
      "inputs": [],
      "name": "getPutOptions",
      "outputs": [
        {
          "internalType": "address[]",
          "name": "",
          "type": "address[]"
        }
      ],
      "stateMutability": "view",
      "type": "function"
    },
    {
      "inputs": [
        {
          "internalType": "address",
          "name": "_wallet",
          "type": "address"
        }
      ],
      "name": "getPutOptionsByWallet",
      "outputs": [
        {
          "internalType": "address[]",
          "name": "",
          "type": "address[]"
        }
      ],
      "stateMutability": "view",
      "type": "function"
    },
    {
      "inputs": [
        {
          "internalType": "address",
          "name": "owner",
          "type": "address"
        },
        {
          "internalType": "string",
          "name": "_name",
          "type": "string"
        },
        {
          "internalType": "contract ISuperToken",
          "name": "acceptedToken",
          "type": "address"
        },
        {
          "internalType": "contract ERC20",
          "name": "dai",
          "type": "address"
        },
        {
          "internalType": "contract ERC20",
          "name": "purchasingAsset",
          "type": "address"
        },
        {
          "internalType": "uint256",
          "name": "underlyingAmount",
          "type": "uint256"
        },
        {
          "internalType": "uint8",
          "name": "purchasingDecimals",
          "type": "uint8"
        },
        {
          "internalType": "contract AggregatorV3Interface",
          "name": "priceFeed",
          "type": "address"
        },
        {
          "internalType": "uint8",
          "name": "priceFeedDecimals",
          "type": "uint8"
        },
        {
          "internalType": "int96",
          "name": "requiredFlowRate",
          "type": "int96"
        },
        {
          "internalType": "uint256",
          "name": "expirationDate",
          "type": "uint256"
        },
        {
          "internalType": "int256",
          "name": "strikePrice",
          "type": "int256"
        }
      ],
      "name": "mintPutOption",
      "outputs": [],
      "stateMutability": "nonpayable",
      "type": "function"
    },
    {
      "inputs": [
        {
          "internalType": "address",
          "name": "",
          "type": "address"
        },
        {
          "internalType": "uint256",
          "name": "",
          "type": "uint256"
        }
      ],
      "name": "walletToPutOptions",
      "outputs": [
        {
          "internalType": "address",
          "name": "",
          "type": "address"
        }
      ],
      "stateMutability": "view",
      "type": "function"
    }
  ],
  "bytecode": "0x6080604052600080546001600160a01b03199081167322ff293e14f1ec3a09b137e9e06084afd63addf9179091556001805490911673ed6bcbf6907d4feeee8a8875543249bea9d308e817905534801561005857600080fd5b50614c90806100686000396000f3fe60806040523480156200001157600080fd5b50600436106200005e5760003560e01c80631f6a512814620000635780638efbe6f514620000925780638f7b66fc14620000ab57806394d0a2ef14620000db578063dcd1624f14620000e5575b600080fd5b6200007a62000074366004620005b7565b620000fc565b604051620000899190620005de565b60405180910390f35b620000a9620000a3366004620006fd565b62000174565b005b620000c2620000bc366004620007f5565b6200032d565b6040516001600160a01b03909116815260200162000089565b6200007a62000366565b620000a9620000f636600462000824565b620003ca565b6001600160a01b0381166000908152600260209081526040918290208054835181840281018401909452808452606093928301828280156200016857602002820191906000526020600020905b81546001600160a01b0316815260019091019060200180831162000149575b50505050509050919050565b600080546001546040518f928f926001600160a01b03918216929116908f908f90620001a0906200057e565b620001b19695949392919062000876565b604051809103906000f080158015620001ce573d6000803e3d6000fd5b506040516361c83a4560e01b81526001600160a01b038b81166004830152602482018b905260ff808b166044840152898216606484015288166084830152600b87900b60a483015260c4820186905260e48201859052919250908216906361c83a459061010401600060405180830381600087803b1580156200025057600080fd5b505af115801562000265573d6000803e3d6000fd5b50505050600260008e6001600160a01b03166001600160a01b03168152602001908152602001600020819080600181540180825580915050600190039060005260206000200160009091909190916101000a8154816001600160a01b0302191690836001600160a01b031602179055506003819080600181540180825580915050600190039060005260206000200160009091909190916101000a8154816001600160a01b0302191690836001600160a01b0316021790555050505050505050505050505050565b600260205281600052604060002081815481106200034a57600080fd5b6000918252602090912001546001600160a01b03169150829050565b60606003805480602002602001604051908101604052809291908181526020018280548015620003c057602002820191906000526020600020905b81546001600160a01b03168152600190910190602001808311620003a1575b5050505050905090565b60005b6001600160a01b03831660009081526002602052604090205481116200053a576001600160a01b038381166000908152600260205260409020805491861691839081106200041f576200041f62000953565b6000918252602090912001546001600160a01b03160362000525576001600160a01b0383166000908152600260205260409020805462000462906001906200097f565b8154811062000475576200047562000953565b60009182526020808320909101546001600160a01b03868116845260029092526040909220805491909216919083908110620004b557620004b562000953565b600091825260208083209190910180546001600160a01b0319166001600160a01b039485161790559185168152600290915260409020805480620004fd57620004fd62000999565b600082815260209020810160001990810180546001600160a01b03191690550190556200053a565b806200053181620009af565b915050620003cd565b506001600160a01b0390811660009081526002602090815260408220805460018101825590835291200180546001600160a01b031916939091169290921790915550565b61428f80620009cc83390190565b6001600160a01b0381168114620005a257600080fd5b50565b8035620005b2816200058c565b919050565b600060208284031215620005ca57600080fd5b8135620005d7816200058c565b9392505050565b6020808252825182820181905260009190848201906040850190845b81811015620006215783516001600160a01b031683529284019291840191600101620005fa565b50909695505050505050565b634e487b7160e01b600052604160045260246000fd5b600082601f8301126200065557600080fd5b813567ffffffffffffffff808211156200067357620006736200062d565b604051601f8301601f19908116603f011681019082821181831017156200069e576200069e6200062d565b81604052838152866020858801011115620006b857600080fd5b836020870160208301376000602085830101528094505050505092915050565b803560ff81168114620005b257600080fd5b8035600b81900b8114620005b257600080fd5b6000806000806000806000806000806000806101808d8f0312156200072157600080fd5b6200072c8d620005a5565b9b5067ffffffffffffffff60208e013511156200074857600080fd5b6200075a8e60208f01358f0162000643565b9a506200076a60408e01620005a5565b99506200077a60608e01620005a5565b98506200078a60808e01620005a5565b975060a08d01359650620007a160c08e01620006d8565b9550620007b160e08e01620005a5565b9450620007c26101008e01620006d8565b9350620007d36101208e01620006ea565b92506101408d013591506101608d013590509295989b509295989b509295989b565b600080604083850312156200080957600080fd5b823562000816816200058c565b946020939093013593505050565b6000806000606084860312156200083a57600080fd5b833562000847816200058c565b9250602084013562000859816200058c565b915060408401356200086b816200058c565b809150509250925092565b60018060a01b03871681526000602060e08184015287518060e085015260005b81811015620008b5578981018301518582016101000152820162000896565b81811115620008c957600061010083870101525b50601f01601f1916830183810361010090810160408601529091506200090181830160038152620464f560ec1b602082015260400190565b925050506200091b60608301876001600160a01b03169052565b6001600160a01b03851660808301526001600160a01b03841660a08301526001600160a01b03831660c0830152979650505050505050565b634e487b7160e01b600052603260045260246000fd5b634e487b7160e01b600052601160045260246000fd5b60008282101562000994576200099462000969565b500390565b634e487b7160e01b600052603160045260246000fd5b600060018201620009c457620009c462000969565b506001019056fe60806040526008805460ff191660121790553480156200001e57600080fd5b506040516200428f3803806200428f833981016040819052620000419162000a96565b838383838a8a8a816000908051906020019062000060929190620008ec565b50805162000076906001906020840190620008ec565b5050506001600160a01b0385166200008d57600080fd5b6001600160a01b038416620000a157600080fd5b6001600160a01b038316620000b557600080fd5b6001600160a01b038116620000c957600080fd5b604051631e51d6a760e11b81526001600160a01b038281166004830152861690633ca3ad4e90602401602060405180830381865afa15801562000110573d6000803e3d6000fd5b505050506040513d601f19601f8201168201806040525081019062000136919062000b6d565b156200014157600080fd5b600e8054600f80546001600160a01b03199081166001600160a01b0389811691909117909255601280548216888416179055600680548216878416179055601380549091168583161790556001600160b01b031990911662010000888316810261ffff191691909117928390556040516315a722b960e31b81526415000000016004820181905293919091049091169063ad3915c890602401600060405180830381600087803b158015620001f557600080fd5b505af11580156200020a573d6000803e3d6000fd5b50506040805180820182526001600160a01b038a168082529151635b69006f60e11b81527fa9214cc96615e0085d3bb077758db69497dc2dce3b2b1e97bc93c3d18d83efd3600482015290935060208401925063b6d200de90602401602060405180830381865afa15801562000284573d6000803e3d6000fd5b505050506040513d601f19601f82011682018060405250810190620002aa919062000b91565b6001600160a01b039081169091528151601080546001600160a01b031990811692841692909217905560209092015160118054909316911617905550620002fc94508b9350600192506200031c915050565b5050601480546001600160a01b031916331790555062000dbe9350505050565b6001600160a01b038216620003785760405162461bcd60e51b815260206004820181905260248201527f4552433732313a206d696e7420746f20746865207a65726f206164647265737360448201526064015b60405180910390fd5b6000818152600260205260409020546001600160a01b031615620003df5760405162461bcd60e51b815260206004820152601c60248201527f4552433732313a20746f6b656e20616c7265616479206d696e7465640000000060448201526064016200036f565b620003ed6000838362000476565b6001600160a01b03821660009081526003602052604081208054600192906200041890849062000bb1565b909155505060008181526002602052604080822080546001600160a01b0319166001600160a01b03861690811790915590518392907fddf252ad1be2c89b69c2b068fc378daa952ba7f163c4a11628f55a4df523b3ef908290a45050565b620004818262000506565b6001600160a01b03831615620005015760145460405163dcd1624f60e01b81523060048201526001600160a01b03858116602483015284811660448301529091169063dcd1624f90606401600060405180830381600087803b158015620004e757600080fd5b505af1158015620004fc573d6000803e3d6000fd5b505050505b505050565b6001600160a01b0381166200051a57600080fd5b600e54604051631e51d6a760e11b81526001600160a01b0383811660048301526201000090920490911690633ca3ad4e90602401602060405180830381865afa1580156200056c573d6000803e3d6000fd5b505050506040513d601f19601f8201168201806040525081019062000592919062000b6d565b156200059d57600080fd5b6013546001600160a01b0390811690821603620005b75750565b600f54601254601354604051631cd43d1160e31b81526001600160a01b0392831660048201523060248201529082166044820152600092919091169063e6a1e88890606401608060405180830381865afa1580156200061a573d6000803e3d6000fd5b505050506040513d601f19601f8201168201806040525081019062000640919062000bf0565b5050915050600081600b0b13156200072057601354601254620006819160109130916001600160a01b03908116911662000775602090811b6200161a17901c565b601354601254600f5460405163e8e7e2d160e01b81526001600160a01b039283166004820181905230602483015262000720948416939092169063e8e7e2d190604401602060405180830381865afa158015620006e2573d6000803e3d6000fd5b505050506040513d601f19601f8201168201806040525081019062000708919062000c2f565b60106200079d60201b6200163a17909392919060201c565b601380546001600160a01b0319166001600160a01b0384169081179091556040519081527f7dfb1d59db37a3fd2e15e796c189dcab714cdbb18650d68a1de58f8fa60718c99060200160405180910390a15050565b60408051600081526020810190915262000797908590859085908590620007bf565b50505050565b60408051600081526020810190915262000797908590859085908590620008a5565b845460018601546040805160008152602081019091526001600160a01b03928316926339255d5b921690819063b4b333c690620008069088908b908b906044810162000c7b565b60408051808303601f1901815291815260208201805160e094851b6001600160e01b03909116179052519185901b6001600160e01b03191682526200085393925090869060040162000cbb565b6000604051808303816000875af115801562000873573d6000803e3d6000fd5b505050506040513d6000823e601f3d908101601f191682016040526200089d919081019062000cf5565b505050505050565b845460018601546040805160008152602081019091526001600160a01b03928316926339255d5b92169081906362fc305e90620008069089908b908a906044810162000d4a565b828054620008fa9062000d82565b90600052602060002090601f0160209004810192826200091e576000855562000969565b82601f106200093957805160ff191683800117855562000969565b8280016001018555821562000969579182015b82811115620009695782518255916020019190600101906200094c565b50620009779291506200097b565b5090565b5b808211156200097757600081556001016200097c565b6001600160a01b0381168114620009a857600080fd5b50565b634e487b7160e01b600052604160045260246000fd5b60005b83811015620009de578181015183820152602001620009c4565b83811115620007975750506000910152565b60006001600160401b038084111562000a0d5762000a0d620009ab565b604051601f8501601f19908116603f0116810190828211818310171562000a385762000a38620009ab565b8160405280935085815286868601111562000a5257600080fd5b62000a62866020830187620009c1565b5050509392505050565b600082601f83011262000a7e57600080fd5b62000a8f83835160208501620009f0565b9392505050565b600080600080600080600060e0888a03121562000ab257600080fd5b875162000abf8162000992565b60208901519097506001600160401b038082111562000add57600080fd5b62000aeb8b838c0162000a6c565b975060408a015191508082111562000b0257600080fd5b5062000b118a828b0162000a6c565b955050606088015162000b248162000992565b608089015190945062000b378162000992565b60a089015190935062000b4a8162000992565b60c089015190925062000b5d8162000992565b8091505092959891949750929550565b60006020828403121562000b8057600080fd5b8151801515811462000a8f57600080fd5b60006020828403121562000ba457600080fd5b815162000a8f8162000992565b6000821982111562000bd357634e487b7160e01b600052601160045260246000fd5b500190565b8051600b81900b811462000beb57600080fd5b919050565b6000806000806080858703121562000c0757600080fd5b8451935062000c196020860162000bd8565b6040860151606090960151949790965092505050565b60006020828403121562000c4257600080fd5b62000a8f8262000bd8565b6000815180845262000c67816020860160208601620009c1565b601f01601f19169290920160200192915050565b6001600160a01b03858116825284811660208301528316604082015260806060820181905260009062000cb19083018462000c4d565b9695505050505050565b6001600160a01b038416815260606020820181905260009062000ce19083018562000c4d565b828103604084015262000cb1818562000c4d565b60006020828403121562000d0857600080fd5b81516001600160401b0381111562000d1f57600080fd5b8201601f8101841362000d3157600080fd5b62000d4284825160208401620009f0565b949350505050565b6001600160a01b03858116825284166020820152600b83900b604082015260806060820181905260009062000cb19083018462000c4d565b600181811c9082168062000d9757607f821691505b60208210810362000db857634e487b7160e01b600052602260045260246000fd5b50919050565b6134c18062000dce6000396000f3fe608060405234801561001057600080fd5b50600436106102275760003560e01c80635c2fad3b11610130578063a22cb465116100b8578063d86ed3e51161007c578063d86ed3e5146104c4578063db10b642146104d7578063e985e9c5146104df578063e9997cdd146104f2578063fcedc2c11461051257600080fd5b8063a22cb46514610464578063ad00818414610477578063b88d4fde1461048b578063c45a01551461049e578063c87b56dd146104b157600080fd5b80636352211e116100ff5780636352211e1461041057806370a082311461042357806377f78ad314610436578063884d1f401461044957806395d89b411461045c57600080fd5b80635c2fad3b146103ce5780635c78db46146103d75780635f9e7d77146103ea57806361c83a45146103fd57600080fd5b806328d2bf94116101b357806342842e0e1161018257806342842e0e1461036d5780634528ba60146103805780634e5b3c7c1461038957806353c11f991461039c5780635838048d146103af57600080fd5b806328d2bf941461030b57806330d9c91514610339578063338937521461034c578063352fd1281461036457600080fd5b8063095ea7b3116101fa578063095ea7b3146102a757806316c9b880146102bc578063230dbd29146102d357806323b872dd146102e6578063243c0465146102f957600080fd5b806301ffc9a71461022c57806302964ff11461025457806306fdde031461027f578063081812fc14610294575b600080fd5b61023f61023a366004612618565b61051f565b60405190151581526020015b60405180910390f35b601354610267906001600160a01b031681565b6040516001600160a01b03909116815260200161024b565b610287610571565b60405161024b919061268d565b6102676102a23660046126a0565b610603565b6102ba6102b53660046126ce565b61062a565b005b6102c560095481565b60405190815260200161024b565b6102876102e1366004612743565b610744565b6102ba6102f436600461280e565b610926565b600e5461023f90610100900460ff1681565b610313610957565b604080519384526001600160a01b039092166020840152600b0b9082015260600161024b565b61028761034736600461284f565b610a0b565b6008546102679061010090046001600160a01b031681565b6102c560075481565b6102ba61037b36600461280e565b610a6e565b6102c5600a5481565b601254610267906001600160a01b031681565b6102876103aa366004612743565b610a89565b6008546103bc9060ff1681565b60405160ff909116815260200161024b565b6102c5600d5481565b600b54610267906001600160a01b031681565b6102876103f836600461284f565b610c4a565b6102ba61040b36600461290c565b610cb1565b61026761041e3660046126a0565b610d62565b6102c5610431366004612998565b610dc2565b600654610267906001600160a01b031681565b61028761045736600461284f565b610e48565b610287610eab565b6102ba6104723660046129c3565b610eba565b600b546103bc90600160a01b900460ff1681565b6102ba610499366004612a95565b610ec9565b601454610267906001600160a01b031681565b6102876104bf3660046126a0565b610f01565b6102876104d2366004612743565b610f75565b6102ba611188565b61023f6104ed366004612b44565b6115ec565b600c546104ff90600b0b81565b604051600b9190910b815260200161024b565b600e5461023f9060ff1681565b60006001600160e01b031982166380ac58cd60e01b148061055057506001600160e01b03198216635b5e139f60e01b145b8061056b57506301ffc9a760e01b6001600160e01b03198316145b92915050565b60606000805461058090612b72565b80601f01602080910402602001604051908101604052809291908181526020018280546105ac90612b72565b80156105f95780601f106105ce576101008083540402835291602001916105f9565b820191906000526020600020905b8154815290600101906020018083116105dc57829003601f168201915b5050505050905090565b600061060e8261165a565b506000908152600460205260409020546001600160a01b031690565b600061063582610d62565b9050806001600160a01b0316836001600160a01b0316036106a75760405162461bcd60e51b815260206004820152602160248201527f4552433732313a20617070726f76616c20746f2063757272656e74206f776e656044820152603960f91b60648201526084015b60405180910390fd5b336001600160a01b03821614806106c357506106c381336115ec565b6107355760405162461bcd60e51b815260206004820152603e60248201527f4552433732313a20617070726f76652063616c6c6572206973206e6f7420746f60448201527f6b656e206f776e6572206e6f7220617070726f76656420666f7220616c6c0000606482015260840161069e565b61073f83836116bc565b505050565b60608989610760826012546001600160a01b0391821691161490565b6107ac5760405162461bcd60e51b815260206004820152601f60248201527f5265646972656374416c6c3a206e6f7420616363657074656420746f6b656e00604482015260640161069e565b6107b58161172a565b6107d15760405162461bcd60e51b815260040161069e90612bac565b600e546201000090046001600160a01b031633146108015760405162461bcd60e51b815260040161069e90612bed565b600f54601254604051631cd43d1160e31b81526000926001600160a01b039081169263e6a1e8889261083d929091169033903090600401612c2f565b608060405180830381865afa15801561085a573d6000803e3d6000fd5b505050506040513d601f19601f8201168201806040525081019061087e9190612c52565b5050600c54909250600b90810b9083900b128015915061089f5750600d5442105b80156108b25750600e5460ff1615156001145b80156108c65750600e54610100900460ff16155b156108d8576108d36117b6565b61090b565b600e5460ff61010090910416151560011480156108fe5750600c54600b90810b9082900b125b1561090b5761090b61184b565b61091586866118da565b9d9c50505050505050505050505050565b6109303382611b1c565b61094c5760405162461bcd60e51b815260040161069e90612c90565b61073f838383611b7b565b601354600090819081906001600160a01b031615610a0657600f54601254601354604051631cd43d1160e31b81526001600160a01b039384169363e6a1e888936109ad9390821692309290911690600401612c2f565b608060405180830381865afa1580156109ca573d6000803e3d6000fd5b505050506040513d601f19601f820116820180604052508101906109ee9190612c52565b50506013549194506001600160a01b03909116925090505b909192565b60405162461bcd60e51b815260206004820152602f60248201527f556e737570706f727465642063616c6c6261636b202d204265666f726520416760448201526e1c99595b595b9d0810dc99585d1959608a1b606482015260609060840161069e565b61073f83838360405180602001604052806000815250610ec9565b600e546060906201000090046001600160a01b03163314610abc5760405162461bcd60e51b815260040161069e90612bed565b6012546001600160a01b038b81169116141580610adf5750610add8961172a565b155b15610b235782828080601f016020809104026020016040519081016040528093929190818152602001838380828437600092019190915250929350610c3d92505050565b42600d55600e805461ffff1916905560065460135460075460405163a9059cbb60e01b81526001600160a01b039283166004820152602481019190915291169063a9059cbb906044016020604051808303816000875af1925050508015610ba7575060408051601f3d908101601f19168201909252610ba491810190612cde565b60015b610c2e5760065460135460075460405163095ea7b360e01b81526001600160a01b039283166004820152602481019190915291169063095ea7b3906044016020604051808303816000875af1158015610c04573d6000803e3d6000fd5b505050506040513d601f19601f82011682018060405250810190610c289190612cde565b50610c30565b505b610c3a83836118da565b90505b9998505050505050505050565b60405162461bcd60e51b815260206004820152603360248201527f556e737570706f727465642063616c6c6261636b202d20204265666f7265204160448201527219dc99595b595b9d0815195c9b5a5b985d1959606a1b606482015260609060840161069e565b6013546001600160a01b03163214610cc857600080fd5b600796909655600880546001600160a01b0398891661010002610100600160a81b031990911617905560ff948516600a55600b805493909516600160a01b026001600160a81b0319909316939096169290921717909155600991909155600c80546bffffffffffffffffffffffff9092166bffffffffffffffffffffffff19909216919091179055600d55600e805460ff19166001179055565b6000818152600260205260408120546001600160a01b03168061056b5760405162461bcd60e51b8152602060048201526018602482015277115490cdcc8c4e881a5b9d985b1a59081d1bdad95b88125160421b604482015260640161069e565b60006001600160a01b038216610e2c5760405162461bcd60e51b815260206004820152602960248201527f4552433732313a2061646472657373207a65726f206973206e6f7420612076616044820152683634b21037bbb732b960b91b606482015260840161069e565b506001600160a01b031660009081526003602052604090205490565b60405162461bcd60e51b815260206004820152602f60248201527f556e737570706f727465642063616c6c6261636b202d204265666f726520416760448201526e1c99595b595b9d081d5c19185d1959608a1b606482015260609060840161069e565b60606001805461058090612b72565b610ec5338383611d22565b5050565b610ed33383611b1c565b610eef5760405162461bcd60e51b815260040161069e90612c90565b610efb84848484611df0565b50505050565b6060610f0c8261165a565b6000610f2360408051602081019091526000815290565b90506000815111610f435760405180602001604052806000815250610f6e565b80610f4d84611e23565b604051602001610f5e929190612cfb565b6040516020818303038152906040525b9392505050565b60608989610f91826012546001600160a01b0391821691161490565b610fdd5760405162461bcd60e51b815260206004820152601f60248201527f5265646972656374416c6c3a206e6f7420616363657074656420746f6b656e00604482015260640161069e565b610fe68161172a565b6110025760405162461bcd60e51b815260040161069e90612bac565b600e546201000090046001600160a01b031633146110325760405162461bcd60e51b815260040161069e90612bed565b600e54604051631fb6491d60e11b81526000916201000090046001600160a01b031690633f6c923a9061106b9089908990600401612d2a565b600060405180830381865afa158015611088573d6000803e3d6000fd5b505050506040513d6000823e601f3d908101601f191682016040526110b09190810190612dc4565b6060810151600f54601254604051631cd43d1160e31b815293945091926000926001600160a01b039283169263e6a1e888926110f6929091169086903090600401612c2f565b608060405180830381865afa158015611113573d6000803e3d6000fd5b505050506040513d601f19601f820116820180604052508101906111379190612c52565b5050600c54909250600b90810b9083900b128015915061115e5750600e5460ff1615156001145b1561116b5761116b6117b6565b61117588886118da565b9f9e505050505050505050505050505050565b600954600854604051636eb1769f60e11b81523360048201523060248201526101009091046001600160a01b03169063dd62ed3e90604401602060405180830381865afa1580156111dd573d6000803e3d6000fd5b505050506040513d601f19601f820116820180604052508101906112019190612ecb565b101561124f5760405162461bcd60e51b815260206004820152601760248201527f6d7573742063616c6c20617070726f7665206669727374000000000000000000604482015260640161069e565b600d5442106112625761126061184b565b565b600b5460408051633fabe5a360e21b815290516000926001600160a01b03169163feaf968c9160048083019260a09291908290030181865afa1580156112ac573d6000803e3d6000fd5b505050506040513d601f19601f820116820180604052508101906112d09190612efe565b5050600854600b5492945060ff908116600160a01b9093041691909114915061134b905057600b546008546000916113159160ff600160a01b90920482169116612f64565b60ff16905060008112156113325761132f81600019612f87565b90505b61133d81600a6130f0565b61134790836130fc565b9150505b600f54601254604051631cd43d1160e31b81526000926001600160a01b039081169263e6a1e88892611387929091169033903090600401612c2f565b608060405180830381865afa1580156113a4573d6000803e3d6000fd5b505050506040513d601f19601f820116820180604052508101906113c89190612c52565b50509150506000600a54600a6113de91906130f0565b6009546113eb9085612f87565b6113f59190613131565b90506007548111156114495760405162461bcd60e51b815260206004820152601760248201527f6f7074696f6e206f7574206f6620746865206d6f6e6579000000000000000000604482015260640161069e565b600c54600b90810b9083900b121561149c5760405162461bcd60e51b8152602060048201526016602482015275696e73756666696369656e7420666c6f77207261746560501b604482015260640161069e565b6008546013546009546040516323b872dd60e01b81523360048201526001600160a01b039283166024820152604481019190915261010090920416906323b872dd906064016020604051808303816000875af1158015611500573d6000803e3d6000fd5b505050506040513d601f19601f820116820180604052508101906115249190612cde565b5060065460075460405163a9059cbb60e01b815233600482015260248101919091526001600160a01b039091169063a9059cbb906044016020604051808303816000875af115801561157a573d6000803e3d6000fd5b505050506040513d601f19601f8201168201806040525081019061159e9190612cde565b506013546012546115c09160109130916001600160a01b03908116911661161a565b6012546115dc90601090339030906001600160a01b031661161a565b5050600e805461ffff1916905550565b6001600160a01b03918216600090815260056020908152604080832093909416825291909152205460ff1690565b604080516000815260208101909152610efb908590859085908590611f24565b604080516000815260208101909152610efb908590859085908590612003565b6000818152600260205260409020546001600160a01b03166116b95760405162461bcd60e51b8152602060048201526018602482015277115490cdcc8c4e881a5b9d985b1a59081d1bdad95b88125160421b604482015260640161069e565b50565b600081815260046020526040902080546001600160a01b0319166001600160a01b03841690811790915581906116f182610d62565b6001600160a01b03167f8c5be1e5ebec7d5bd14f71427d1e84f3dd0314c0f7b2291e5b200ac8c7c3b92560405160405180910390a45050565b60007fa9214cc96615e0085d3bb077758db69497dc2dce3b2b1e97bc93c3d18d83efd3826001600160a01b0316637730599e6040518163ffffffff1660e01b8152600401602060405180830381865afa15801561178b573d6000803e3d6000fd5b505050506040513d601f19601f820116820180604052508101906117af9190612ecb565b1492915050565b6006546013546007546040516323b872dd60e01b81526001600160a01b03928316600482015230602482015260448101919091529116906323b872dd906064016020604051808303816000875af1158015611815573d6000803e3d6000fd5b505050506040513d601f19601f820116820180604052508101906118399190612cde565b50600e805461ff001916610100179055565b60065460135460075460405163a9059cbb60e01b81526001600160a01b039283166004820152602481019190915291169063a9059cbb906044016020604051808303816000875af11580156118a4573d6000803e3d6000fd5b505050506040513d601f19601f820116820180604052508101906118c89190612cde565b5042600d55600e805461ffff19169055565b606082828080601f0160208091040260200160405190810160405280939291908181526020018383808284376000920182905250600f5460125460405163e8e7e2d160e01b81526001600160a01b03918216600482015230602482015296975091959116935063e8e7e2d192506044019050602060405180830381865afa158015611969573d6000803e3d6000fd5b505050506040513d601f19601f8201168201806040525081019061198d919061315f565b600f54601254601354604051631cd43d1160e31b81529394506000936001600160a01b039384169363e6a1e888936119d19390821692309290911690600401612c2f565b608060405180830381865afa1580156119ee573d6000803e3d6000fd5b505050506040513d601f19601f82011682018060405250810190611a129190612c52565b505091505060008183611a25919061317c565b9050600b81900b611a5a57601354601254611a5391601091879130916001600160a01b039182169116612048565b9350611b13565b600b82900b15611aba57611a5386868080601f0160208091040260200160405190810160405280939291908181526020018383808284376000920191909152505060135460125460109493506001600160a01b0391821692501685612077565b611b1086868080601f0160208091040260200160405190810160405280939291908181526020018383808284376000920191909152505060135460125460109493506001600160a01b039182169250168561209c565b93505b50505092915050565b600080611b2883610d62565b9050806001600160a01b0316846001600160a01b03161480611b4f5750611b4f81856115ec565b80611b735750836001600160a01b0316611b6884610603565b6001600160a01b0316145b949350505050565b826001600160a01b0316611b8e82610d62565b6001600160a01b031614611bf25760405162461bcd60e51b815260206004820152602560248201527f4552433732313a207472616e736665722066726f6d20696e636f72726563742060448201526437bbb732b960d91b606482015260840161069e565b6001600160a01b038216611c545760405162461bcd60e51b8152602060048201526024808201527f4552433732313a207472616e7366657220746f20746865207a65726f206164646044820152637265737360e01b606482015260840161069e565b611c5f8383836120c1565b611c6a6000826116bc565b6001600160a01b0383166000908152600360205260408120805460019290611c939084906131d5565b90915550506001600160a01b0382166000908152600360205260408120805460019290611cc19084906131ec565b909155505060008181526002602052604080822080546001600160a01b0319166001600160a01b0386811691821790925591518493918716917fddf252ad1be2c89b69c2b068fc378daa952ba7f163c4a11628f55a4df523b3ef91a4505050565b816001600160a01b0316836001600160a01b031603611d835760405162461bcd60e51b815260206004820152601960248201527f4552433732313a20617070726f766520746f2063616c6c657200000000000000604482015260640161069e565b6001600160a01b03838116600081815260056020908152604080832094871680845294825291829020805460ff191686151590811790915591519182527f17307eab39ab6107e8899845ad3d59bd9653f200f220920489ca2b5937696c31910160405180910390a3505050565b611dfb848484611b7b565b611e0784848484612144565b610efb5760405162461bcd60e51b815260040161069e90613204565b606081600003611e4a5750506040805180820190915260018152600360fc1b602082015290565b8160005b8115611e745780611e5e81613256565b9150611e6d9050600a8361326f565b9150611e4e565b60008167ffffffffffffffff811115611e8f57611e8f6129fc565b6040519080825280601f01601f191660200182016040528015611eb9576020820181803683370190505b5090505b8415611b7357611ece6001836131d5565b9150611edb600a86613283565b611ee69060306131ec565b60f81b818381518110611efb57611efb613297565b60200101906001600160f81b031916908160001a905350611f1d600a8661326f565b9450611ebd565b845460018601546040805160008152602081019091526001600160a01b03928316926339255d5b921690819063b4b333c690611f699088908b908b90604481016132ad565b60408051808303601f1901815291815260208201805160e094851b6001600160e01b03909116179052519185901b6001600160e01b0319168252611fb49392509086906004016132e1565b6000604051808303816000875af1158015611fd3573d6000803e3d6000fd5b505050506040513d6000823e601f3d908101601f19168201604052611ffb9190810190613317565b505050505050565b845460018601546040805160008152602081019091526001600160a01b03928316926339255d5b92169081906362fc305e90611f699089908b908a906044810161334c565b60408051600081526020810190915260609061206d9087908790879087908790612245565b9695505050505050565b60408051600081526020810190915260609061206d908790879087908790879061232e565b60408051600081526020810190915260609061206d9087908790879087908790612395565b6120ca826123c2565b6001600160a01b0383161561073f5760145460405163dcd1624f60e01b81526001600160a01b039091169063dcd1624f9061210d90309087908790600401612c2f565b600060405180830381600087803b15801561212757600080fd5b505af115801561213b573d6000803e3d6000fd5b50505050505050565b60006001600160a01b0384163b1561223a57604051630a85bd0160e11b81526001600160a01b0385169063150b7a0290612188903390899088908890600401613382565b6020604051808303816000875af19250505080156121c3575060408051601f3d908101601f191682019092526121c0918101906133b5565b60015b612220573d8080156121f1576040519150601f19603f3d011682016040523d82523d6000602084013e6121f6565b606091505b5080516000036122185760405162461bcd60e51b815260040161069e90613204565b805181602001fd5b6001600160e01b031916630a85bd0160e11b149050611b73565b506001949350505050565b855460018701546040805160008152602081019091526060926001600160a01b0390811692634329d29392911690819063b4b333c69061228e9089908c908c90604481016132ad565b60408051808303601f1901815291815260208201805160e094851b6001600160e01b03909116179052519185901b6001600160e01b03191682526122db9392509087908c906004016133d2565b6000604051808303816000875af11580156122fa573d6000803e3d6000fd5b505050506040513d6000823e601f3d908101601f191682016040526123229190810190613427565b50979650505050505050565b855460018701546060916001600160a01b0390811691634329d2939116806350209a62888a8960005b6040519080825280601f01601f191660200182016040528015612381576020820181803683370190505b5060405160240161228e949392919061334c565b855460018701546060916001600160a01b0390811691634329d2939116806362fc305e888a896000612357565b6001600160a01b0381166123d557600080fd5b600e54604051631e51d6a760e11b81526001600160a01b0383811660048301526201000090920490911690633ca3ad4e90602401602060405180830381865afa158015612426573d6000803e3d6000fd5b505050506040513d601f19601f8201168201806040525081019061244a9190612cde565b1561245457600080fd5b6013546001600160a01b039081169082160361246d5750565b600f54601254601354604051631cd43d1160e31b81526000936001600160a01b039081169363e6a1e888936124ad93918316923092911690600401612c2f565b608060405180830381865afa1580156124ca573d6000803e3d6000fd5b505050506040513d601f19601f820116820180604052508101906124ee9190612c52565b5050915050600081600b0b13156125ad576013546012546125209160109130916001600160a01b03908116911661161a565b601354601254600f5460405163e8e7e2d160e01b81526001600160a01b03928316600482018190523060248301526125ad948416939092169063e8e7e2d190604401602060405180830381865afa15801561257f573d6000803e3d6000fd5b505050506040513d601f19601f820116820180604052508101906125a3919061315f565b601092919061163a565b601380546001600160a01b0319166001600160a01b0384169081179091556040519081527f7dfb1d59db37a3fd2e15e796c189dcab714cdbb18650d68a1de58f8fa60718c99060200160405180910390a15050565b6001600160e01b0319811681146116b957600080fd5b60006020828403121561262a57600080fd5b8135610f6e81612602565b60005b83811015612650578181015183820152602001612638565b83811115610efb5750506000910152565b60008151808452612679816020860160208601612635565b601f01601f19169290920160200192915050565b602081526000610f6e6020830184612661565b6000602082840312156126b257600080fd5b5035919050565b6001600160a01b03811681146116b957600080fd5b600080604083850312156126e157600080fd5b82356126ec816126b9565b946020939093013593505050565b60008083601f84011261270c57600080fd5b50813567ffffffffffffffff81111561272457600080fd5b60208301915083602082850101111561273c57600080fd5b9250929050565b600080600080600080600080600060c08a8c03121561276157600080fd5b893561276c816126b9565b985060208a013561277c816126b9565b975060408a0135965060608a013567ffffffffffffffff808211156127a057600080fd5b6127ac8d838e016126fa565b909850965060808c01359150808211156127c557600080fd5b6127d18d838e016126fa565b909650945060a08c01359150808211156127ea57600080fd5b506127f78c828d016126fa565b915080935050809150509295985092959850929598565b60008060006060848603121561282357600080fd5b833561282e816126b9565b9250602084013561283e816126b9565b929592945050506040919091013590565b600080600080600080600060a0888a03121561286a57600080fd5b8735612875816126b9565b96506020880135612885816126b9565b955060408801359450606088013567ffffffffffffffff808211156128a957600080fd5b6128b58b838c016126fa565b909650945060808a01359150808211156128ce57600080fd5b506128db8a828b016126fa565b989b979a50959850939692959293505050565b60ff811681146116b957600080fd5b80600b0b81146116b957600080fd5b600080600080600080600080610100898b03121561292957600080fd5b8835612934816126b9565b975060208901359650604089013561294b816128ee565b9550606089013561295b816126b9565b9450608089013561296b816128ee565b935060a089013561297b816128fd565b979a969950949793969295929450505060c08201359160e0013590565b6000602082840312156129aa57600080fd5b8135610f6e816126b9565b80151581146116b957600080fd5b600080604083850312156129d657600080fd5b82356129e1816126b9565b915060208301356129f1816129b5565b809150509250929050565b634e487b7160e01b600052604160045260246000fd5b604051610160810167ffffffffffffffff81118282101715612a3657612a366129fc565b60405290565b604051601f8201601f1916810167ffffffffffffffff81118282101715612a6557612a656129fc565b604052919050565b600067ffffffffffffffff821115612a8757612a876129fc565b50601f01601f191660200190565b60008060008060808587031215612aab57600080fd5b8435612ab6816126b9565b93506020850135612ac6816126b9565b925060408501359150606085013567ffffffffffffffff811115612ae957600080fd5b8501601f81018713612afa57600080fd5b8035612b0d612b0882612a6d565b612a3c565b818152886020838501011115612b2257600080fd5b8160208401602083013760006020838301015280935050505092959194509250565b60008060408385031215612b5757600080fd5b8235612b62816126b9565b915060208301356129f1816126b9565b600181811c90821680612b8657607f821691505b602082108103612ba657634e487b7160e01b600052602260045260246000fd5b50919050565b60208082526021908201527f5265646972656374416c6c3a206f6e6c7920434641763120737570706f7274656040820152601960fa1b606082015260800190565b60208082526022908201527f5265646972656374416c6c3a20737570706f7274206f6e6c79206f6e6520686f6040820152611cdd60f21b606082015260800190565b6001600160a01b0393841681529183166020830152909116604082015260600190565b60008060008060808587031215612c6857600080fd5b845193506020850151612c7a816128fd565b6040860151606090960151949790965092505050565b6020808252602e908201527f4552433732313a2063616c6c6572206973206e6f7420746f6b656e206f776e6560408201526d1c881b9bdc88185c1c1c9bdd995960921b606082015260800190565b600060208284031215612cf057600080fd5b8151610f6e816129b5565b60008351612d0d818460208801612635565b835190830190612d21818360208801612635565b01949350505050565b60208152816020820152818360408301376000818301604090810191909152601f909201601f19160101919050565b8051612d64816128ee565b919050565b8051612d64816126b9565b8051612d6481612602565b600082601f830112612d9057600080fd5b8151612d9e612b0882612a6d565b818152846020838601011115612db357600080fd5b611b73826020830160208701612635565b600060208284031215612dd657600080fd5b815167ffffffffffffffff80821115612dee57600080fd5b908301906101608286031215612e0357600080fd5b612e0b612a12565b612e1483612d59565b8152612e2260208401612d59565b602082015260408301516040820152612e3d60608401612d69565b6060820152612e4e60808401612d74565b608082015260a083015182811115612e6557600080fd5b612e7187828601612d7f565b60a08301525060c083015160c082015260e083015160e0820152610100915081830151828201526101209150612ea8828401612d69565b828201526101409150612ebc828401612d69565b91810191909152949350505050565b600060208284031215612edd57600080fd5b5051919050565b805169ffffffffffffffffffff81168114612d6457600080fd5b600080600080600060a08688031215612f1657600080fd5b612f1f86612ee4565b9450602086015193506040860151925060608601519150612f4260808701612ee4565b90509295509295909350565b634e487b7160e01b600052601160045260246000fd5b600060ff821660ff841680821015612f7e57612f7e612f4e565b90039392505050565b60006001600160ff1b0381841382841380821686840486111615612fad57612fad612f4e565b600160ff1b6000871282811687830589121615612fcc57612fcc612f4e565b60008712925087820587128484161615612fe857612fe8612f4e565b87850587128184161615612ffe57612ffe612f4e565b505050929093029392505050565b600181815b8085111561304757816000190482111561302d5761302d612f4e565b8085161561303a57918102915b93841c9390800290613011565b509250929050565b60008261305e5750600161056b565b8161306b5750600061056b565b8160018114613081576002811461308b576130a7565b600191505061056b565b60ff84111561309c5761309c612f4e565b50506001821b61056b565b5060208310610133831016604e8410600b84101617156130ca575081810a61056b565b6130d4838361300c565b80600019048211156130e8576130e8612f4e565b029392505050565b6000610f6e838361304f565b600081600019048311821515161561311657613116612f4e565b500290565b634e487b7160e01b600052601260045260246000fd5b6000826131405761314061311b565b600160ff1b82146000198414161561315a5761315a612f4e565b500590565b60006020828403121561317157600080fd5b8151610f6e816128fd565b600081600b0b83600b0b60008212826b7fffffffffffffffffffffff038213811516156131ab576131ab612f4e565b826b7fffffffffffffffffffffff190382128116156131cc576131cc612f4e565b50019392505050565b6000828210156131e7576131e7612f4e565b500390565b600082198211156131ff576131ff612f4e565b500190565b60208082526032908201527f4552433732313a207472616e7366657220746f206e6f6e20455243373231526560408201527131b2b4bb32b91034b6b83632b6b2b73a32b960711b606082015260800190565b60006001820161326857613268612f4e565b5060010190565b60008261327e5761327e61311b565b500490565b6000826132925761329261311b565b500690565b634e487b7160e01b600052603260045260246000fd5b6001600160a01b03858116825284811660208301528316604082015260806060820181905260009061206d90830184612661565b6001600160a01b038416815260606020820181905260009061330590830185612661565b828103604084015261206d8185612661565b60006020828403121561332957600080fd5b815167ffffffffffffffff81111561334057600080fd5b611b7384828501612d7f565b6001600160a01b03858116825284166020820152600b83900b604082015260806060820181905260009061206d90830184612661565b6001600160a01b038581168252841660208201526040810183905260806060820181905260009061206d90830184612661565b6000602082840312156133c757600080fd5b8151610f6e81612602565b6001600160a01b03851681526080602082018190526000906133f690830186612661565b82810360408401526134088186612661565b9050828103606084015261341c8185612661565b979650505050505050565b6000806040838503121561343a57600080fd5b825167ffffffffffffffff8082111561345257600080fd5b61345e86838701612d7f565b9350602085015191508082111561347457600080fd5b5061348185828601612d7f565b915050925092905056fea26469706673582212204ad3a31146d6c32c52ee07f029f78bf2363db0e5cb393b812e45e4daf594606f64736f6c634300080d0033a26469706673582212206e13f5aa42359e08a39c5af20e3c186662b1db3d00c7e83cd5e17d68d14fbcdf64736f6c634300080d0033",
  "linkReferences": {},
  "deployedLinkReferences": {}
}