{
  "_format": "hh-sol-artifact-1",
  "contractName": "RedirectAllCallOption",
  "sourceName": "contracts/RedirectAllCallOption.sol",
  "abi": [
    {
      "inputs": [
        {
          "internalType": "contract ISuperfluid",
          "name": "host",
          "type": "address"
        },
        {
          "internalType": "contract IConstantFlowAgreementV1",
          "name": "cfa",
          "type": "address"
        },
        {
          "internalType": "contract ISuperToken",
          "name": "acceptedToken",
          "type": "address"
        },
        {
          "internalType": "contract ERC20",
          "name": "dai",
          "type": "address"
        },
        {
          "internalType": "address",
          "name": "receiver",
          "type": "address"
        }
      ],
      "stateMutability": "nonpayable",
      "type": "constructor"
    },
    {
      "anonymous": false,
      "inputs": [
        {
          "indexed": false,
          "internalType": "address",
          "name": "receiver",
          "type": "address"
        }
      ],
      "name": "ReceiverChanged",
      "type": "event"
    },
    {
      "inputs": [],
      "name": "_acceptedToken",
      "outputs": [
        {
          "internalType": "contract ISuperToken",
          "name": "",
          "type": "address"
        }
      ],
      "stateMutability": "view",
      "type": "function"
    },
    {
      "inputs": [],
      "name": "_dai",
      "outputs": [
        {
          "internalType": "contract ERC20",
          "name": "",
          "type": "address"
        }
      ],
      "stateMutability": "view",
      "type": "function"
    },
    {
      "inputs": [],
      "name": "_expirationDate",
      "outputs": [
        {
          "internalType": "uint256",
          "name": "",
          "type": "uint256"
        }
      ],
      "stateMutability": "view",
      "type": "function"
    },
    {
      "inputs": [],
      "name": "_priceFeed",
      "outputs": [
        {
          "internalType": "contract AggregatorV3Interface",
          "name": "",
          "type": "address"
        }
      ],
      "stateMutability": "view",
      "type": "function"
    },
    {
      "inputs": [],
      "name": "_priceFeedDecimals",
      "outputs": [
        {
          "internalType": "uint8",
          "name": "",
          "type": "uint8"
        }
      ],
      "stateMutability": "view",
      "type": "function"
    },
    {
      "inputs": [],
      "name": "_receiver",
      "outputs": [
        {
          "internalType": "address",
          "name": "",
          "type": "address"
        }
      ],
      "stateMutability": "view",
      "type": "function"
    },
    {
      "inputs": [],
      "name": "_requiredFlowRate",
      "outputs": [
        {
          "internalType": "int96",
          "name": "",
          "type": "int96"
        }
      ],
      "stateMutability": "view",
      "type": "function"
    },
    {
      "inputs": [],
      "name": "_strikePrice",
      "outputs": [
        {
          "internalType": "int256",
          "name": "",
          "type": "int256"
        }
      ],
      "stateMutability": "view",
      "type": "function"
    },
    {
      "inputs": [],
      "name": "_underlyingAmount",
      "outputs": [
        {
          "internalType": "uint256",
          "name": "",
          "type": "uint256"
        }
      ],
      "stateMutability": "view",
      "type": "function"
    },
    {
      "inputs": [],
      "name": "_underlyingAsset",
      "outputs": [
        {
          "internalType": "contract ERC20",
          "name": "",
          "type": "address"
        }
      ],
      "stateMutability": "view",
      "type": "function"
    },
    {
      "inputs": [],
      "name": "_underlyingDecimals",
      "outputs": [
        {
          "internalType": "uint8",
          "name": "",
          "type": "uint8"
        }
      ],
      "stateMutability": "view",
      "type": "function"
    },
    {
      "inputs": [
        {
          "internalType": "contract ISuperToken",
          "name": "_superToken",
          "type": "address"
        },
        {
          "internalType": "address",
          "name": "_agreementClass",
          "type": "address"
        },
        {
          "internalType": "bytes32",
          "name": "",
          "type": "bytes32"
        },
        {
          "internalType": "bytes",
          "name": "",
          "type": "bytes"
        },
        {
          "internalType": "bytes",
          "name": "",
          "type": "bytes"
        },
        {
          "internalType": "bytes",
          "name": "_ctx",
          "type": "bytes"
        }
      ],
      "name": "afterAgreementCreated",
      "outputs": [
        {
          "internalType": "bytes",
          "name": "newCtx",
          "type": "bytes"
        }
      ],
      "stateMutability": "nonpayable",
      "type": "function"
    },
    {
      "inputs": [
        {
          "internalType": "contract ISuperToken",
          "name": "_superToken",
          "type": "address"
        },
        {
          "internalType": "address",
          "name": "_agreementClass",
          "type": "address"
        },
        {
          "internalType": "bytes32",
          "name": "",
          "type": "bytes32"
        },
        {
          "internalType": "bytes",
          "name": "",
          "type": "bytes"
        },
        {
          "internalType": "bytes",
          "name": "",
          "type": "bytes"
        },
        {
          "internalType": "bytes",
          "name": "_ctx",
          "type": "bytes"
        }
      ],
      "name": "afterAgreementTerminated",
      "outputs": [
        {
          "internalType": "bytes",
          "name": "newCtx",
          "type": "bytes"
        }
      ],
      "stateMutability": "nonpayable",
      "type": "function"
    },
    {
      "inputs": [
        {
          "internalType": "contract ISuperToken",
          "name": "_superToken",
          "type": "address"
        },
        {
          "internalType": "address",
          "name": "_agreementClass",
          "type": "address"
        },
        {
          "internalType": "bytes32",
          "name": "",
          "type": "bytes32"
        },
        {
          "internalType": "bytes",
          "name": "",
          "type": "bytes"
        },
        {
          "internalType": "bytes",
          "name": "",
          "type": "bytes"
        },
        {
          "internalType": "bytes",
          "name": "_ctx",
          "type": "bytes"
        }
      ],
      "name": "afterAgreementUpdated",
      "outputs": [
        {
          "internalType": "bytes",
          "name": "newCtx",
          "type": "bytes"
        }
      ],
      "stateMutability": "nonpayable",
      "type": "function"
    },
    {
      "inputs": [
        {
          "internalType": "contract ISuperToken",
          "name": "",
          "type": "address"
        },
        {
          "internalType": "address",
          "name": "",
          "type": "address"
        },
        {
          "internalType": "bytes32",
          "name": "",
          "type": "bytes32"
        },
        {
          "internalType": "bytes",
          "name": "",
          "type": "bytes"
        },
        {
          "internalType": "bytes",
          "name": "",
          "type": "bytes"
        }
      ],
      "name": "beforeAgreementCreated",
      "outputs": [
        {
          "internalType": "bytes",
          "name": "",
          "type": "bytes"
        }
      ],
      "stateMutability": "view",
      "type": "function"
    },
    {
      "inputs": [
        {
          "internalType": "contract ISuperToken",
          "name": "",
          "type": "address"
        },
        {
          "internalType": "address",
          "name": "",
          "type": "address"
        },
        {
          "internalType": "bytes32",
          "name": "",
          "type": "bytes32"
        },
        {
          "internalType": "bytes",
          "name": "",
          "type": "bytes"
        },
        {
          "internalType": "bytes",
          "name": "",
          "type": "bytes"
        }
      ],
      "name": "beforeAgreementTerminated",
      "outputs": [
        {
          "internalType": "bytes",
          "name": "",
          "type": "bytes"
        }
      ],
      "stateMutability": "view",
      "type": "function"
    },
    {
      "inputs": [
        {
          "internalType": "contract ISuperToken",
          "name": "",
          "type": "address"
        },
        {
          "internalType": "address",
          "name": "",
          "type": "address"
        },
        {
          "internalType": "bytes32",
          "name": "",
          "type": "bytes32"
        },
        {
          "internalType": "bytes",
          "name": "",
          "type": "bytes"
        },
        {
          "internalType": "bytes",
          "name": "",
          "type": "bytes"
        }
      ],
      "name": "beforeAgreementUpdated",
      "outputs": [
        {
          "internalType": "bytes",
          "name": "",
          "type": "bytes"
        }
      ],
      "stateMutability": "view",
      "type": "function"
    },
    {
      "inputs": [
        {
          "internalType": "contract ERC20",
          "name": "underlyingAsset",
          "type": "address"
        },
        {
          "internalType": "uint256",
          "name": "underlyingAmount",
          "type": "uint256"
        },
        {
          "internalType": "uint8",
          "name": "underlyingDecimals",
          "type": "uint8"
        },
        {
          "internalType": "contract AggregatorV3Interface",
          "name": "priceFeed",
          "type": "address"
        },
        {
          "internalType": "uint8",
          "name": "priceFeedDecimals",
          "type": "uint8"
        },
        {
          "internalType": "int96",
          "name": "requiredFlowRate",
          "type": "int96"
        },
        {
          "internalType": "uint256",
          "name": "expirationDate",
          "type": "uint256"
        },
        {
          "internalType": "int256",
          "name": "strikePrice",
          "type": "int256"
        }
      ],
      "name": "createOption",
      "outputs": [],
      "stateMutability": "nonpayable",
      "type": "function"
    },
    {
      "inputs": [],
      "name": "currentReceiver",
      "outputs": [
        {
          "internalType": "uint256",
          "name": "startTime",
          "type": "uint256"
        },
        {
          "internalType": "address",
          "name": "receiver",
          "type": "address"
        },
        {
          "internalType": "int96",
          "name": "flowRate",
          "type": "int96"
        }
      ],
      "stateMutability": "view",
      "type": "function"
    },
    {
      "inputs": [],
      "name": "exerciseOption",
      "outputs": [],
      "stateMutability": "nonpayable",
      "type": "function"
    },
    {
      "inputs": [],
      "name": "optionActive",
      "outputs": [
        {
          "internalType": "bool",
          "name": "",
          "type": "bool"
        }
      ],
      "stateMutability": "view",
      "type": "function"
    },
    {
      "inputs": [],
      "name": "optionReady",
      "outputs": [
        {
          "internalType": "bool",
          "name": "",
          "type": "bool"
        }
      ],
      "stateMutability": "view",
      "type": "function"
    }
  ],
  "bytecode": "0x60806040523480156200001157600080fd5b506040516200250d3803806200250d8339810160408190526200003491620002d3565b6001600160a01b0385166200004857600080fd5b6001600160a01b0384166200005c57600080fd5b6001600160a01b0383166200007057600080fd5b6001600160a01b0381166200008457600080fd5b604051631e51d6a760e11b81526001600160a01b038281166004830152861690633ca3ad4e90602401602060405180830381865afa158015620000cb573d6000803e3d6000fd5b505050506040513d601f19601f82011682018060405250810190620000f1919062000353565b15620000fc57600080fd5b60078054600880546001600160a01b03199081166001600160a01b0389811691909117909255600b8054821688841617905560028054610100600160a81b03191661010088851602179055600c80549091168583161790556001600160b01b031990911662010000888316810261ffff191691909117928390556040516315a722b960e31b81526415000000016004820181905293919091049091169063ad3915c890602401600060405180830381600087803b158015620001bd57600080fd5b505af1158015620001d2573d6000803e3d6000fd5b50506040805180820182526001600160a01b038a168082529151635b69006f60e11b81527fa9214cc96615e0085d3bb077758db69497dc2dce3b2b1e97bc93c3d18d83efd3600482015290935060208401925063b6d200de90602401602060405180830381865afa1580156200024c573d6000803e3d6000fd5b505050506040513d601f19601f820116820180604052508101906200027291906200037e565b6001600160a01b039081169091528151600980546001600160a01b0319908116928416929092179055602090920151600a80549093169116179055506200039e945050505050565b6001600160a01b0381168114620002d057600080fd5b50565b600080600080600060a08688031215620002ec57600080fd5b8551620002f981620002ba565b60208701519095506200030c81620002ba565b60408701519094506200031f81620002ba565b60608701519093506200033281620002ba565b60808701519092506200034581620002ba565b809150509295509295909350565b6000602082840312156200036657600080fd5b815180151581146200037757600080fd5b9392505050565b6000602082840312156200039157600080fd5b81516200037781620002ba565b61215f80620003ae6000396000f3fe608060405234801561001057600080fd5b50600436106101425760003560e01c80635c78db46116100b8578063884d1f401161007c578063884d1f40146102ce578063ad008184146102e1578063d86ed3e5146102f5578063db10b64214610308578063e9997cdd14610310578063fcedc2c11461033057600080fd5b80635c78db46146102685780635f9e7d771461027b57806361c83a451461028e57806377f78ad3146102a357806382776b62146102bb57600080fd5b806330d9c9151161010a57806330d9c915146101fe578063352fd128146102115780634e5b3c7c1461021a57806353c11f991461022d5780635838048d146102405780635c2fad3b1461025f57600080fd5b806302964ff11461014757806316c9b88014610177578063230dbd291461018e578063243c0465146101ae57806328d2bf94146101d0575b600080fd5b600c5461015a906001600160a01b031681565b6040516001600160a01b0390911681526020015b60405180910390f35b61018060045481565b60405190815260200161016e565b6101a161019c366004611718565b61033d565b60405161016e919061183b565b6007546101c090610100900460ff1681565b604051901515815260200161016e565b6101d8610524565b604080519384526001600160a01b039092166020840152600b0b9082015260600161016e565b6101a161020c366004611855565b6105d8565b61018060015481565b600b5461015a906001600160a01b031681565b6101a161023b366004611718565b61063b565b60025461024d9060ff1681565b60405160ff909116815260200161016e565b61018060065481565b60035461015a906001600160a01b031681565b6101a1610289366004611855565b6107fc565b6102a161029c366004611912565b610863565b005b60025461015a9061010090046001600160a01b031681565b60005461015a906001600160a01b031681565b6101a16102dc366004611855565b610916565b60035461024d90600160a01b900460ff1681565b6101a1610303366004611718565b610979565b6102a1610b8c565b60055461031d90600b0b81565b604051600b9190910b815260200161016e565b6007546101c09060ff1681565b6060898961035982600b546001600160a01b0391821691161490565b6103aa5760405162461bcd60e51b815260206004820152601f60248201527f5265646972656374416c6c3a206e6f7420616363657074656420746f6b656e0060448201526064015b60405180910390fd5b6103b381610fca565b6103cf5760405162461bcd60e51b81526004016103a19061199e565b6007546201000090046001600160a01b031633146103ff5760405162461bcd60e51b81526004016103a1906119df565b600854600b54604051631cd43d1160e31b81526000926001600160a01b039081169263e6a1e8889261043b929091169033903090600401611a21565b608060405180830381865afa158015610458573d6000803e3d6000fd5b505050506040513d601f19601f8201168201806040525081019061047c9190611a44565b5050600554909250600b90810b9083900b128015915061049d575060065442105b80156104b0575060075460ff1615156001145b80156104c45750600754610100900460ff16155b156104d6576104d1611056565b610509565b60075460ff61010090910416151560011480156104fc5750600554600b90810b9082900b125b15610509576105096110eb565b610513868661117a565b9d9c50505050505050505050505050565b600c54600090819081906001600160a01b0316156105d357600854600b54600c54604051631cd43d1160e31b81526001600160a01b039384169363e6a1e8889361057a9390821692309290911690600401611a21565b608060405180830381865afa158015610597573d6000803e3d6000fd5b505050506040513d601f19601f820116820180604052508101906105bb9190611a44565b5050600c549194506001600160a01b03909116925090505b909192565b60405162461bcd60e51b815260206004820152602f60248201527f556e737570706f727465642063616c6c6261636b202d204265666f726520416760448201526e1c99595b595b9d0810dc99585d1959608a1b60648201526060906084016103a1565b6007546060906201000090046001600160a01b0316331461066e5760405162461bcd60e51b81526004016103a1906119df565b600b546001600160a01b038b81169116141580610691575061068f89610fca565b155b156106d55782828080601f0160208091040260200160405190810160405280939291908181526020018383808284376000920191909152509293506107ef92505050565b426006556007805461ffff19169055600054600c5460015460405163a9059cbb60e01b81526001600160a01b039283166004820152602481019190915291169063a9059cbb906044016020604051808303816000875af1925050508015610759575060408051601f3d908101601f1916820190925261075691810190611a82565b60015b6107e057600054600c5460015460405163095ea7b360e01b81526001600160a01b039283166004820152602481019190915291169063095ea7b3906044016020604051808303816000875af11580156107b6573d6000803e3d6000fd5b505050506040513d601f19601f820116820180604052508101906107da9190611a82565b506107e2565b505b6107ec838361117a565b90505b9998505050505050505050565b60405162461bcd60e51b815260206004820152603360248201527f556e737570706f727465642063616c6c6261636b202d20204265666f7265204160448201527219dc99595b595b9d0815195c9b5a5b985d1959606a1b60648201526060906084016103a1565b600c546001600160a01b0316321461087a57600080fd5b600080546001600160a01b0319166001600160a01b03998a1617905560019687556002805460ff1990811660ff9889161790915560038054969099166001600160a81b031990961695909517600160a01b949096169390930294909417909555600455600580546bffffffffffffffffffffffff19166bffffffffffffffffffffffff9095169490941790935560065560078054909216179055565b60405162461bcd60e51b815260206004820152602f60248201527f556e737570706f727465642063616c6c6261636b202d204265666f726520416760448201526e1c99595b595b9d081d5c19185d1959608a1b60648201526060906084016103a1565b6060898961099582600b546001600160a01b0391821691161490565b6109e15760405162461bcd60e51b815260206004820152601f60248201527f5265646972656374416c6c3a206e6f7420616363657074656420746f6b656e0060448201526064016103a1565b6109ea81610fca565b610a065760405162461bcd60e51b81526004016103a19061199e565b6007546201000090046001600160a01b03163314610a365760405162461bcd60e51b81526004016103a1906119df565b600754604051631fb6491d60e11b81526000916201000090046001600160a01b031690633f6c923a90610a6f9089908990600401611aa4565b600060405180830381865afa158015610a8c573d6000803e3d6000fd5b505050506040513d6000823e601f3d908101601f19168201604052610ab49190810190611bc4565b6060810151600854600b54604051631cd43d1160e31b815293945091926000926001600160a01b039283169263e6a1e88892610afa929091169086903090600401611a21565b608060405180830381865afa158015610b17573d6000803e3d6000fd5b505050506040513d601f19601f82011682018060405250810190610b3b9190611a44565b5050600554909250600b90810b9083900b1280159150610b62575060075460ff1615156001145b15610b6f57610b6f611056565b610b79888861117a565b9f9e505050505050505050505050505050565b60048054600254604051636eb1769f60e11b8152339381019390935230602484015290916101009091046001600160a01b03169063dd62ed3e90604401602060405180830381865afa158015610be6573d6000803e3d6000fd5b505050506040513d601f19601f82011682018060405250810190610c0a9190611ccb565b1015610c585760405162461bcd60e51b815260206004820152601760248201527f6d7573742063616c6c20617070726f766520666972737400000000000000000060448201526064016103a1565b6006544210610c6b57610c696110eb565b565b60035460408051633fabe5a360e21b815290516000926001600160a01b03169163feaf968c9160048083019260a09291908290030181865afa158015610cb5573d6000803e3d6000fd5b505050506040513d601f19601f82011682018060405250810190610cd99190611cfe565b505060025460035492945060ff908116600160a01b90930416919091149150610d54905057600354600254600091610d1e9160ff600160a01b90920482169116611d64565b60ff1690506000811215610d3b57610d3881600019611d87565b90505b610d4681600a611ef2565b610d509083611efe565b9150505b600854600b54604051631cd43d1160e31b81526000926001600160a01b039081169263e6a1e88892610d90929091169033903090600401611a21565b608060405180830381865afa158015610dad573d6000803e3d6000fd5b505050506040513d601f19601f82011682018060405250810190610dd19190611a44565b5050915050600454821215610e285760405162461bcd60e51b815260206004820152601760248201527f6f7074696f6e206f7574206f6620746865206d6f6e657900000000000000000060448201526064016103a1565b600554600b90810b9082900b1215610e7b5760405162461bcd60e51b8152602060048201526016602482015275696e73756666696369656e7420666c6f77207261746560501b60448201526064016103a1565b600254600c54600480546040516323b872dd60e01b815233928101929092526001600160a01b039283166024830152604482015261010090920416906323b872dd906064016020604051808303816000875af1158015610edf573d6000803e3d6000fd5b505050506040513d601f19601f82011682018060405250810190610f039190611a82565b5060005460015460405163a9059cbb60e01b815233600482015260248101919091526001600160a01b039091169063a9059cbb906044016020604051808303816000875af1158015610f59573d6000803e3d6000fd5b505050506040513d601f19601f82011682018060405250810190610f7d9190611a82565b50600c54600b54610f9f9160099130916001600160a01b0390811691166113bc565b600b54610fbb90600990339030906001600160a01b03166113bc565b50506007805461ffff19169055565b60007fa9214cc96615e0085d3bb077758db69497dc2dce3b2b1e97bc93c3d18d83efd3826001600160a01b0316637730599e6040518163ffffffff1660e01b8152600401602060405180830381865afa15801561102b573d6000803e3d6000fd5b505050506040513d601f19601f8201168201806040525081019061104f9190611ccb565b1492915050565b600054600c546001546040516323b872dd60e01b81526001600160a01b03928316600482015230602482015260448101919091529116906323b872dd906064016020604051808303816000875af11580156110b5573d6000803e3d6000fd5b505050506040513d601f19601f820116820180604052508101906110d99190611a82565b506007805461ff001916610100179055565b600054600c5460015460405163a9059cbb60e01b81526001600160a01b039283166004820152602481019190915291169063a9059cbb906044016020604051808303816000875af1158015611144573d6000803e3d6000fd5b505050506040513d601f19601f820116820180604052508101906111689190611a82565b50426006556007805461ffff19169055565b606082828080601f0160208091040260200160405190810160405280939291908181526020018383808284376000920182905250600854600b5460405163e8e7e2d160e01b81526001600160a01b03918216600482015230602482015296975091959116935063e8e7e2d192506044019050602060405180830381865afa158015611209573d6000803e3d6000fd5b505050506040513d601f19601f8201168201806040525081019061122d9190611f1d565b600854600b54600c54604051631cd43d1160e31b81529394506000936001600160a01b039384169363e6a1e888936112719390821692309290911690600401611a21565b608060405180830381865afa15801561128e573d6000803e3d6000fd5b505050506040513d601f19601f820116820180604052508101906112b29190611a44565b5050915050600081836112c59190611f3a565b9050600b81900b6112fa57600c54600b546112f391600991879130916001600160a01b0391821691166113e2565b93506113b3565b600b82900b1561135a576112f386868080601f01602080910402602001604051908101604052809392919081815260200183838082843760009201919091525050600c54600b5460099493506001600160a01b0391821692501685611411565b6113b086868080601f01602080910402602001604051908101604052809392919081815260200183838082843760009201919091525050600c54600b5460099493506001600160a01b0391821692501685611436565b93505b50505092915050565b6040805160008152602081019091526113dc90859085908590859061145b565b50505050565b604080516000815260208101909152606090611407908790879087908790879061153a565b9695505050505050565b6040805160008152602081019091526060906114079087908790879087908790611623565b604080516000815260208101909152606090611407908790879087908790879061168a565b845460018601546040805160008152602081019091526001600160a01b03928316926339255d5b921690819063b4b333c6906114a09088908b908b9060448101611f93565b60408051808303601f1901815291815260208201805160e094851b6001600160e01b03909116179052519185901b6001600160e01b03191682526114eb939250908690600401611fc7565b6000604051808303816000875af115801561150a573d6000803e3d6000fd5b505050506040513d6000823e601f3d908101601f191682016040526115329190810190611ffd565b505050505050565b855460018701546040805160008152602081019091526060926001600160a01b0390811692634329d29392911690819063b4b333c6906115839089908c908c9060448101611f93565b60408051808303601f1901815291815260208201805160e094851b6001600160e01b03909116179052519185901b6001600160e01b03191682526115d09392509087908c9060040161203a565b6000604051808303816000875af11580156115ef573d6000803e3d6000fd5b505050506040513d6000823e601f3d908101601f19168201604052611617919081019061208f565b50979650505050505050565b855460018701546060916001600160a01b0390811691634329d2939116806350209a62888a8960005b6040519080825280601f01601f191660200182016040528015611676576020820181803683370190505b5060405160240161158394939291906120f3565b855460018701546060916001600160a01b0390811691634329d2939116806362fc305e888a89600061164c565b6001600160a01b03811681146116cc57600080fd5b50565b60008083601f8401126116e157600080fd5b50813567ffffffffffffffff8111156116f957600080fd5b60208301915083602082850101111561171157600080fd5b9250929050565b600080600080600080600080600060c08a8c03121561173657600080fd5b8935611741816116b7565b985060208a0135611751816116b7565b975060408a0135965060608a013567ffffffffffffffff8082111561177557600080fd5b6117818d838e016116cf565b909850965060808c013591508082111561179a57600080fd5b6117a68d838e016116cf565b909650945060a08c01359150808211156117bf57600080fd5b506117cc8c828d016116cf565b915080935050809150509295985092959850929598565b60005b838110156117fe5781810151838201526020016117e6565b838111156113dc5750506000910152565b600081518084526118278160208601602086016117e3565b601f01601f19169290920160200192915050565b60208152600061184e602083018461180f565b9392505050565b600080600080600080600060a0888a03121561187057600080fd5b873561187b816116b7565b9650602088013561188b816116b7565b955060408801359450606088013567ffffffffffffffff808211156118af57600080fd5b6118bb8b838c016116cf565b909650945060808a01359150808211156118d457600080fd5b506118e18a828b016116cf565b989b979a50959850939692959293505050565b60ff811681146116cc57600080fd5b80600b0b81146116cc57600080fd5b600080600080600080600080610100898b03121561192f57600080fd5b883561193a816116b7565b9750602089013596506040890135611951816118f4565b95506060890135611961816116b7565b94506080890135611971816118f4565b935060a089013561198181611903565b979a969950949793969295929450505060c08201359160e0013590565b60208082526021908201527f5265646972656374416c6c3a206f6e6c7920434641763120737570706f7274656040820152601960fa1b606082015260800190565b60208082526022908201527f5265646972656374416c6c3a20737570706f7274206f6e6c79206f6e6520686f6040820152611cdd60f21b606082015260800190565b6001600160a01b0393841681529183166020830152909116604082015260600190565b60008060008060808587031215611a5a57600080fd5b845193506020850151611a6c81611903565b6040860151606090960151949790965092505050565b600060208284031215611a9457600080fd5b8151801515811461184e57600080fd5b60208152816020820152818360408301376000818301604090810191909152601f909201601f19160101919050565b634e487b7160e01b600052604160045260246000fd5b604051610160810167ffffffffffffffff81118282101715611b0d57611b0d611ad3565b60405290565b8051611b1e816118f4565b919050565b8051611b1e816116b7565b80516001600160e01b031981168114611b1e57600080fd5b600082601f830112611b5757600080fd5b815167ffffffffffffffff80821115611b7257611b72611ad3565b604051601f8301601f19908116603f01168101908282118183101715611b9a57611b9a611ad3565b81604052838152866020858801011115611bb357600080fd5b6114078460208301602089016117e3565b600060208284031215611bd657600080fd5b815167ffffffffffffffff80821115611bee57600080fd5b908301906101608286031215611c0357600080fd5b611c0b611ae9565b611c1483611b13565b8152611c2260208401611b13565b602082015260408301516040820152611c3d60608401611b23565b6060820152611c4e60808401611b2e565b608082015260a083015182811115611c6557600080fd5b611c7187828601611b46565b60a08301525060c083015160c082015260e083015160e0820152610100915081830151828201526101209150611ca8828401611b23565b828201526101409150611cbc828401611b23565b91810191909152949350505050565b600060208284031215611cdd57600080fd5b5051919050565b805169ffffffffffffffffffff81168114611b1e57600080fd5b600080600080600060a08688031215611d1657600080fd5b611d1f86611ce4565b9450602086015193506040860151925060608601519150611d4260808701611ce4565b90509295509295909350565b634e487b7160e01b600052601160045260246000fd5b600060ff821660ff841680821015611d7e57611d7e611d4e565b90039392505050565b60006001600160ff1b0381841382841380821686840486111615611dad57611dad611d4e565b600160ff1b6000871282811687830589121615611dcc57611dcc611d4e565b60008712925087820587128484161615611de857611de8611d4e565b87850587128184161615611dfe57611dfe611d4e565b505050929093029392505050565b600181815b80851115611e47578160001904821115611e2d57611e2d611d4e565b80851615611e3a57918102915b93841c9390800290611e11565b509250929050565b600082611e5e57506001611eec565b81611e6b57506000611eec565b8160018114611e815760028114611e8b57611ea7565b6001915050611eec565b60ff841115611e9c57611e9c611d4e565b50506001821b611eec565b5060208310610133831016604e8410600b8410161715611eca575081810a611eec565b611ed48383611e0c565b8060001904821115611ee857611ee8611d4e565b0290505b92915050565b600061184e8383611e4f565b6000816000190483118215151615611f1857611f18611d4e565b500290565b600060208284031215611f2f57600080fd5b815161184e81611903565b600081600b0b83600b0b60008212826b7fffffffffffffffffffffff03821381151615611f6957611f69611d4e565b826b7fffffffffffffffffffffff19038212811615611f8a57611f8a611d4e565b50019392505050565b6001600160a01b0385811682528481166020830152831660408201526080606082018190526000906114079083018461180f565b6001600160a01b0384168152606060208201819052600090611feb9083018561180f565b8281036040840152611407818561180f565b60006020828403121561200f57600080fd5b815167ffffffffffffffff81111561202657600080fd5b61203284828501611b46565b949350505050565b6001600160a01b038516815260806020820181905260009061205e9083018661180f565b8281036040840152612070818661180f565b90508281036060840152612084818561180f565b979650505050505050565b600080604083850312156120a257600080fd5b825167ffffffffffffffff808211156120ba57600080fd5b6120c686838701611b46565b935060208501519150808211156120dc57600080fd5b506120e985828601611b46565b9150509250929050565b6001600160a01b03858116825284166020820152600b83900b60408201526080606082018190526000906114079083018461180f56fea2646970667358221220c7d4befb8e86bdfc30e021ecc4b79f927bdd47d23bc8a0727b5db8101a22cc8a64736f6c634300080d0033",
  "linkReferences": {},
  "deployedLinkReferences": {}
}