{
  "_format": "hh-sol-artifact-1",
  "contractName": "OptionFactory",
  "sourceName": "contracts/OptionFactory.sol",
  "abi": [
    {
      "inputs": [
        {
          "internalType": "uint256",
          "name": "",
          "type": "uint256"
        }
      ],
      "name": "callOptions",
      "outputs": [
        {
          "internalType": "address",
          "name": "",
          "type": "address"
        }
      ],
      "stateMutability": "view",
      "type": "function"
    },
    {
      "inputs": [
        {
          "internalType": "address",
          "name": "_option",
          "type": "address"
        },
        {
          "internalType": "address",
          "name": "_from",
          "type": "address"
        },
        {
          "internalType": "address",
          "name": "_to",
          "type": "address"
        }
      ],
      "name": "changeCallOptionOwner",
      "outputs": [],
      "stateMutability": "nonpayable",
      "type": "function"
    },
    {
      "inputs": [],
      "name": "getCallOptions",
      "outputs": [
        {
          "internalType": "address[]",
          "name": "",
          "type": "address[]"
        }
      ],
      "stateMutability": "view",
      "type": "function"
    },
    {
      "inputs": [
        {
          "internalType": "address",
          "name": "_wallet",
          "type": "address"
        }
      ],
      "name": "getCallOptionsByWallet",
      "outputs": [
        {
          "internalType": "address[]",
          "name": "",
          "type": "address[]"
        }
      ],
      "stateMutability": "view",
      "type": "function"
    },
    {
      "inputs": [
        {
          "internalType": "address",
          "name": "owner",
          "type": "address"
        },
        {
          "internalType": "string",
          "name": "_name",
          "type": "string"
        },
        {
          "internalType": "contract ISuperToken",
          "name": "acceptedToken",
          "type": "address"
        },
        {
          "internalType": "contract ERC20",
          "name": "dai",
          "type": "address"
        },
        {
          "internalType": "contract ERC20",
          "name": "underlyingAsset",
          "type": "address"
        },
        {
          "internalType": "uint256",
          "name": "underlyingAmount",
          "type": "uint256"
        },
        {
          "internalType": "uint8",
          "name": "underlyingDecimals",
          "type": "uint8"
        },
        {
          "internalType": "contract AggregatorV3Interface",
          "name": "priceFeed",
          "type": "address"
        },
        {
          "internalType": "uint8",
          "name": "priceFeedDecimals",
          "type": "uint8"
        },
        {
          "internalType": "int96",
          "name": "requiredFlowRate",
          "type": "int96"
        },
        {
          "internalType": "uint256",
          "name": "expirationDate",
          "type": "uint256"
        },
        {
          "internalType": "int256",
          "name": "strikePrice",
          "type": "int256"
        }
      ],
      "name": "mintCallOption",
      "outputs": [],
      "stateMutability": "nonpayable",
      "type": "function"
    },
    {
      "inputs": [
        {
          "internalType": "address",
          "name": "",
          "type": "address"
        },
        {
          "internalType": "uint256",
          "name": "",
          "type": "uint256"
        }
      ],
      "name": "walletToCallOptions",
      "outputs": [
        {
          "internalType": "address",
          "name": "",
          "type": "address"
        }
      ],
      "stateMutability": "view",
      "type": "function"
    }
  ],
  "bytecode": "0x6080604052600080546001600160a01b031990811673eb796bdb90ffa0f28255275e16936d25d341860317909155600180549091167349e565ed1bdc17f3d220f72df0857c26fa83f87317905534801561005857600080fd5b50614ce5806100686000396000f3fe60806040523480156200001157600080fd5b50600436106200006a5760003560e01c806370169fb6146200006f578063bcfa1a9c1462000088578063cb1b091714620000aa578063dca92f6214620000da578063ddeecdd414620000f1578063de65efe41462000108575b600080fd5b6200008662000080366004620006d5565b6200011f565b005b62000092620002d8565b604051620000a19190620007cd565b60405180910390f35b620000c1620000bb3660046200081c565b6200033c565b6040516001600160a01b039091168152602001620000a1565b620000c1620000eb36600462000836565b62000367565b620000926200010236600462000865565b620003a0565b62000086620001193660046200088c565b62000418565b600080546001546040518f928f926001600160a01b03918216929116908f908f906200014b90620005cc565b6200015c96959493929190620008de565b604051809103906000f08015801562000179573d6000803e3d6000fd5b506040516361c83a4560e01b81526001600160a01b038b81166004830152602482018b905260ff808b166044840152898216606484015288166084830152600b87900b60a483015260c4820186905260e48201859052919250908216906361c83a459061010401600060405180830381600087803b158015620001fb57600080fd5b505af115801562000210573d6000803e3d6000fd5b50505050600260008e6001600160a01b03166001600160a01b03168152602001908152602001600020819080600181540180825580915050600190039060005260206000200160009091909190916101000a8154816001600160a01b0302191690836001600160a01b031602179055506003819080600181540180825580915050600190039060005260206000200160009091909190916101000a8154816001600160a01b0302191690836001600160a01b0316021790555050505050505050505050505050565b606060038054806020026020016040519081016040528092919081815260200182805480156200033257602002820191906000526020600020905b81546001600160a01b0316815260019091019060200180831162000313575b5050505050905090565b600381815481106200034d57600080fd5b6000918252602090912001546001600160a01b0316905081565b600260205281600052604060002081815481106200038457600080fd5b6000918252602090912001546001600160a01b03169150829050565b6001600160a01b0381166000908152600260209081526040918290208054835181840281018401909452808452606093928301828280156200040c57602002820191906000526020600020905b81546001600160a01b03168152600190910190602001808311620003ed575b50505050509050919050565b60005b6001600160a01b038316600090815260026020526040902054811162000588576001600160a01b038381166000908152600260205260409020805491861691839081106200046d576200046d620009bb565b6000918252602090912001546001600160a01b03160362000573576001600160a01b03831660009081526002602052604090208054620004b090600190620009e7565b81548110620004c357620004c3620009bb565b60009182526020808320909101546001600160a01b03868116845260029092526040909220805491909216919083908110620005035762000503620009bb565b600091825260208083209190910180546001600160a01b0319166001600160a01b0394851617905591851681526002909152604090208054806200054b576200054b62000a01565b600082815260209020810160001990810180546001600160a01b031916905501905562000588565b806200057f8162000a17565b9150506200041b565b506001600160a01b0390811660009081526002602090815260408220805460018101825590835291200180546001600160a01b031916939091169290921790915550565b61427c8062000a3483390190565b6001600160a01b0381168114620005f057600080fd5b50565b80356200060081620005da565b919050565b634e487b7160e01b600052604160045260246000fd5b600082601f8301126200062d57600080fd5b813567ffffffffffffffff808211156200064b576200064b62000605565b604051601f8301601f19908116603f0116810190828211818310171562000676576200067662000605565b816040528381528660208588010111156200069057600080fd5b836020870160208301376000602085830101528094505050505092915050565b803560ff811681146200060057600080fd5b8035600b81900b81146200060057600080fd5b6000806000806000806000806000806000806101808d8f031215620006f957600080fd5b620007048d620005f3565b9b5067ffffffffffffffff60208e013511156200072057600080fd5b620007328e60208f01358f016200061b565b9a506200074260408e01620005f3565b99506200075260608e01620005f3565b98506200076260808e01620005f3565b975060a08d013596506200077960c08e01620006b0565b95506200078960e08e01620005f3565b94506200079a6101008e01620006b0565b9350620007ab6101208e01620006c2565b92506101408d013591506101608d013590509295989b509295989b509295989b565b6020808252825182820181905260009190848201906040850190845b81811015620008105783516001600160a01b031683529284019291840191600101620007e9565b50909695505050505050565b6000602082840312156200082f57600080fd5b5035919050565b600080604083850312156200084a57600080fd5b82356200085781620005da565b946020939093013593505050565b6000602082840312156200087857600080fd5b81356200088581620005da565b9392505050565b600080600060608486031215620008a257600080fd5b8335620008af81620005da565b92506020840135620008c181620005da565b91506040840135620008d381620005da565b809150509250925092565b60018060a01b03871681526000602060e08184015287518060e085015260005b818110156200091d5789810183015185820161010001528201620008fe565b818111156200093157600061010083870101525b50601f01601f1916830183810361010090810160408601529091506200096981830160038152620464f560ec1b602082015260400190565b925050506200098360608301876001600160a01b03169052565b6001600160a01b03851660808301526001600160a01b03841660a08301526001600160a01b03831660c0830152979650505050505050565b634e487b7160e01b600052603260045260246000fd5b634e487b7160e01b600052601160045260246000fd5b600082821015620009fc57620009fc620009d1565b500390565b634e487b7160e01b600052603160045260246000fd5b60006001820162000a2c5762000a2c620009d1565b506001019056fe60806040523480156200001157600080fd5b506040516200427c3803806200427c833981016040819052620000349162000a96565b838383838a8a8a816000908051906020019062000053929190620008ec565b50805162000069906001906020840190620008ec565b5050506001600160a01b0385166200008057600080fd5b6001600160a01b0384166200009457600080fd5b6001600160a01b038316620000a857600080fd5b6001600160a01b038116620000bc57600080fd5b604051631e51d6a760e11b81526001600160a01b038281166004830152861690633ca3ad4e90602401602060405180830381865afa15801562000103573d6000803e3d6000fd5b505050506040513d601f19601f8201168201806040525081019062000129919062000b6d565b156200013457600080fd5b600d8054600e80546001600160a01b03199081166001600160a01b038981169190911790925560118054821688841617905560088054610100600160a81b03191661010088851602179055601280549091168583161790556001600160b01b031990911662010000888316810261ffff191691909117928390556040516315a722b960e31b81526415000000016004820181905293919091049091169063ad3915c890602401600060405180830381600087803b158015620001f557600080fd5b505af11580156200020a573d6000803e3d6000fd5b50506040805180820182526001600160a01b038a168082529151635b69006f60e11b81527fa9214cc96615e0085d3bb077758db69497dc2dce3b2b1e97bc93c3d18d83efd3600482015290935060208401925063b6d200de90602401602060405180830381865afa15801562000284573d6000803e3d6000fd5b505050506040513d601f19601f82011682018060405250810190620002aa919062000b91565b6001600160a01b039081169091528151600f80546001600160a01b031990811692841692909217905560209092015160108054909316911617905550620002fc94508b9350600192506200031c915050565b5050601380546001600160a01b031916331790555062000dbe9350505050565b6001600160a01b038216620003785760405162461bcd60e51b815260206004820181905260248201527f4552433732313a206d696e7420746f20746865207a65726f206164647265737360448201526064015b60405180910390fd5b6000818152600260205260409020546001600160a01b031615620003df5760405162461bcd60e51b815260206004820152601c60248201527f4552433732313a20746f6b656e20616c7265616479206d696e7465640000000060448201526064016200036f565b620003ed6000838362000476565b6001600160a01b03821660009081526003602052604081208054600192906200041890849062000bb1565b909155505060008181526002602052604080822080546001600160a01b0319166001600160a01b03861690811790915590518392907fddf252ad1be2c89b69c2b068fc378daa952ba7f163c4a11628f55a4df523b3ef908290a45050565b620004818262000506565b6001600160a01b0383161562000501576013546040516337997bf960e21b81523060048201526001600160a01b03858116602483015284811660448301529091169063de65efe490606401600060405180830381600087803b158015620004e757600080fd5b505af1158015620004fc573d6000803e3d6000fd5b505050505b505050565b6001600160a01b0381166200051a57600080fd5b600d54604051631e51d6a760e11b81526001600160a01b0383811660048301526201000090920490911690633ca3ad4e90602401602060405180830381865afa1580156200056c573d6000803e3d6000fd5b505050506040513d601f19601f8201168201806040525081019062000592919062000b6d565b156200059d57600080fd5b6012546001600160a01b0390811690821603620005b75750565b600e54601154601254604051631cd43d1160e31b81526001600160a01b0392831660048201523060248201529082166044820152600092919091169063e6a1e88890606401608060405180830381865afa1580156200061a573d6000803e3d6000fd5b505050506040513d601f19601f8201168201806040525081019062000640919062000bf0565b5050915050600081600b0b131562000720576012546011546200068191600f9130916001600160a01b03908116911662000775602090811b6200160717901c565b601254601154600e5460405163e8e7e2d160e01b81526001600160a01b039283166004820181905230602483015262000720948416939092169063e8e7e2d190604401602060405180830381865afa158015620006e2573d6000803e3d6000fd5b505050506040513d601f19601f8201168201806040525081019062000708919062000c2f565b600f6200079d60201b6200162717909392919060201c565b601280546001600160a01b0319166001600160a01b0384169081179091556040519081527f7dfb1d59db37a3fd2e15e796c189dcab714cdbb18650d68a1de58f8fa60718c99060200160405180910390a15050565b60408051600081526020810190915262000797908590859085908590620007bf565b50505050565b60408051600081526020810190915262000797908590859085908590620008a5565b845460018601546040805160008152602081019091526001600160a01b03928316926339255d5b921690819063b4b333c690620008069088908b908b906044810162000c7b565b60408051808303601f1901815291815260208201805160e094851b6001600160e01b03909116179052519185901b6001600160e01b03191682526200085393925090869060040162000cbb565b6000604051808303816000875af115801562000873573d6000803e3d6000fd5b505050506040513d6000823e601f3d908101601f191682016040526200089d919081019062000cf5565b505050505050565b845460018601546040805160008152602081019091526001600160a01b03928316926339255d5b92169081906362fc305e90620008069089908b908a906044810162000d4a565b828054620008fa9062000d82565b90600052602060002090601f0160209004810192826200091e576000855562000969565b82601f106200093957805160ff191683800117855562000969565b8280016001018555821562000969579182015b82811115620009695782518255916020019190600101906200094c565b50620009779291506200097b565b5090565b5b808211156200097757600081556001016200097c565b6001600160a01b0381168114620009a857600080fd5b50565b634e487b7160e01b600052604160045260246000fd5b60005b83811015620009de578181015183820152602001620009c4565b83811115620007975750506000910152565b60006001600160401b038084111562000a0d5762000a0d620009ab565b604051601f8501601f19908116603f0116810190828211818310171562000a385762000a38620009ab565b8160405280935085815286868601111562000a5257600080fd5b62000a62866020830187620009c1565b5050509392505050565b600082601f83011262000a7e57600080fd5b62000a8f83835160208501620009f0565b9392505050565b600080600080600080600060e0888a03121562000ab257600080fd5b875162000abf8162000992565b60208901519097506001600160401b038082111562000add57600080fd5b62000aeb8b838c0162000a6c565b975060408a015191508082111562000b0257600080fd5b5062000b118a828b0162000a6c565b955050606088015162000b248162000992565b608089015190945062000b378162000992565b60a089015190935062000b4a8162000992565b60c089015190925062000b5d8162000992565b8091505092959891949750929550565b60006020828403121562000b8057600080fd5b8151801515811462000a8f57600080fd5b60006020828403121562000ba457600080fd5b815162000a8f8162000992565b6000821982111562000bd357634e487b7160e01b600052601160045260246000fd5b500190565b8051600b81900b811462000beb57600080fd5b919050565b6000806000806080858703121562000c0757600080fd5b8451935062000c196020860162000bd8565b6040860151606090960151949790965092505050565b60006020828403121562000c4257600080fd5b62000a8f8262000bd8565b6000815180845262000c67816020860160208601620009c1565b601f01601f19169290920160200192915050565b6001600160a01b03858116825284811660208301528316604082015260806060820181905260009062000cb19083018462000c4d565b9695505050505050565b6001600160a01b038416815260606020820181905260009062000ce19083018562000c4d565b828103604084015262000cb1818562000c4d565b60006020828403121562000d0857600080fd5b81516001600160401b0381111562000d1f57600080fd5b8201601f8101841362000d3157600080fd5b62000d4284825160208401620009f0565b949350505050565b6001600160a01b03858116825284166020820152600b83900b604082015260806060820181905260009062000cb19083018462000c4d565b600181811c9082168062000d9757607f821691505b60208210810362000db857634e487b7160e01b600052602260045260246000fd5b50919050565b6134ae8062000dce6000396000f3fe608060405234801561001057600080fd5b506004361061021c5760003560e01c80635f9e7d7711610125578063ad008184116100ad578063d86ed3e51161007c578063d86ed3e5146104b0578063db10b642146104c3578063e985e9c5146104cb578063e9997cdd146104de578063fcedc2c1146104fd57600080fd5b8063ad00818414610463578063b88d4fde14610477578063c45a01551461048a578063c87b56dd1461049d57600080fd5b806377f78ad3116100f457806377f78ad31461040a57806382776b6214610422578063884d1f401461043557806395d89b4114610448578063a22cb4651461045057600080fd5b80635f9e7d77146103be57806361c83a45146103d15780636352211e146103e457806370a08231146103f757600080fd5b806328d2bf94116101a85780634e5b3c7c116101775780634e5b3c7c1461035d57806353c11f99146103705780635838048d146103835780635c2fad3b146103a25780635c78db46146103ab57600080fd5b806328d2bf941461030057806330d9c9151461032e578063352fd1281461034157806342842e0e1461034a57600080fd5b8063095ea7b3116101ef578063095ea7b31461029c57806316c9b880146102b1578063230dbd29146102c857806323b872dd146102db578063243c0465146102ee57600080fd5b806301ffc9a71461022157806302964ff11461024957806306fdde0314610274578063081812fc14610289575b600080fd5b61023461022f366004612605565b61050a565b60405190151581526020015b60405180910390f35b60125461025c906001600160a01b031681565b6040516001600160a01b039091168152602001610240565b61027c61055c565b604051610240919061267a565b61025c61029736600461268d565b6105ee565b6102af6102aa3660046126bb565b610615565b005b6102ba600a5481565b604051908152602001610240565b61027c6102d6366004612730565b61072f565b6102af6102e93660046127fb565b61090e565b600d5461023490610100900460ff1681565b61030861093f565b604080519384526001600160a01b039092166020840152600b0b90820152606001610240565b61027c61033c36600461283c565b6109f3565b6102ba60075481565b6102af6103583660046127fb565b610a56565b60115461025c906001600160a01b031681565b61027c61037e366004612730565b610a71565b6008546103909060ff1681565b60405160ff9091168152602001610240565b6102ba600c5481565b60095461025c906001600160a01b031681565b61027c6103cc36600461283c565b610c32565b6102af6103df3660046128f9565b610c99565b61025c6103f236600461268d565b610d52565b6102ba610405366004612985565b610db2565b60085461025c9061010090046001600160a01b031681565b60065461025c906001600160a01b031681565b61027c61044336600461283c565b610e38565b61027c610e9b565b6102af61045e3660046129b0565b610eaa565b60095461039090600160a01b900460ff1681565b6102af610485366004612a82565b610eb9565b60135461025c906001600160a01b031681565b61027c6104ab36600461268d565b610ef1565b61027c6104be366004612730565b610f65565b6102af611177565b6102346104d9366004612b31565b6115d9565b600b80546104ea910b81565b604051600b9190910b8152602001610240565b600d546102349060ff1681565b60006001600160e01b031982166380ac58cd60e01b148061053b57506001600160e01b03198216635b5e139f60e01b145b8061055657506301ffc9a760e01b6001600160e01b03198316145b92915050565b60606000805461056b90612b5f565b80601f016020809104026020016040519081016040528092919081815260200182805461059790612b5f565b80156105e45780601f106105b9576101008083540402835291602001916105e4565b820191906000526020600020905b8154815290600101906020018083116105c757829003601f168201915b5050505050905090565b60006105f982611647565b506000908152600460205260409020546001600160a01b031690565b600061062082610d52565b9050806001600160a01b0316836001600160a01b0316036106925760405162461bcd60e51b815260206004820152602160248201527f4552433732313a20617070726f76616c20746f2063757272656e74206f776e656044820152603960f91b60648201526084015b60405180910390fd5b336001600160a01b03821614806106ae57506106ae81336115d9565b6107205760405162461bcd60e51b815260206004820152603e60248201527f4552433732313a20617070726f76652063616c6c6572206973206e6f7420746f60448201527f6b656e206f776e6572206e6f7220617070726f76656420666f7220616c6c00006064820152608401610689565b61072a83836116a9565b505050565b6060898961074b826011546001600160a01b0391821691161490565b6107975760405162461bcd60e51b815260206004820152601f60248201527f5265646972656374416c6c3a206e6f7420616363657074656420746f6b656e006044820152606401610689565b6107a081611717565b6107bc5760405162461bcd60e51b815260040161068990612b99565b600d546201000090046001600160a01b031633146107ec5760405162461bcd60e51b815260040161068990612bda565b600e54601154604051631cd43d1160e31b81526000926001600160a01b039081169263e6a1e88892610828929091169033903090600401612c1c565b608060405180830381865afa158015610845573d6000803e3d6000fd5b505050506040513d601f19601f820116820180604052508101906108699190612c3f565b5050600b805491935090810b9083900b12801591506108895750600c5442105b801561089c5750600d5460ff1615156001145b80156108b05750600d54610100900460ff16155b156108c2576108bd6117a3565b6108f3565b600d5460ff61010090910416151560011480156108e65750600b8054810b9082900b125b156108f3576108f3611838565b6108fd86866118c7565b9d9c50505050505050505050505050565b6109183382611b09565b6109345760405162461bcd60e51b815260040161068990612c7d565b61072a838383611b68565b601254600090819081906001600160a01b0316156109ee57600e54601154601254604051631cd43d1160e31b81526001600160a01b039384169363e6a1e888936109959390821692309290911690600401612c1c565b608060405180830381865afa1580156109b2573d6000803e3d6000fd5b505050506040513d601f19601f820116820180604052508101906109d69190612c3f565b50506012549194506001600160a01b03909116925090505b909192565b60405162461bcd60e51b815260206004820152602f60248201527f556e737570706f727465642063616c6c6261636b202d204265666f726520416760448201526e1c99595b595b9d0810dc99585d1959608a1b6064820152606090608401610689565b61072a83838360405180602001604052806000815250610eb9565b600d546060906201000090046001600160a01b03163314610aa45760405162461bcd60e51b815260040161068990612bda565b6011546001600160a01b038b81169116141580610ac75750610ac589611717565b155b15610b0b5782828080601f016020809104026020016040519081016040528093929190818152602001838380828437600092019190915250929350610c2592505050565b42600c55600d805461ffff1916905560065460125460075460405163a9059cbb60e01b81526001600160a01b039283166004820152602481019190915291169063a9059cbb906044016020604051808303816000875af1925050508015610b8f575060408051601f3d908101601f19168201909252610b8c91810190612ccb565b60015b610c165760065460125460075460405163095ea7b360e01b81526001600160a01b039283166004820152602481019190915291169063095ea7b3906044016020604051808303816000875af1158015610bec573d6000803e3d6000fd5b505050506040513d601f19601f82011682018060405250810190610c109190612ccb565b50610c18565b505b610c2283836118c7565b90505b9998505050505050505050565b60405162461bcd60e51b815260206004820152603360248201527f556e737570706f727465642063616c6c6261636b202d20204265666f7265204160448201527219dc99595b595b9d0815195c9b5a5b985d1959606a1b6064820152606090608401610689565b6012546001600160a01b03163214610cb057600080fd5b600680546001600160a01b03998a166001600160a01b03199091161790556007969096556008805460ff96871660ff19918216179091556009805494909616600160a01b026001600160a81b0319909416949097169390931791909117909255600a92909255600b80546bffffffffffffffffffffffff9092166bffffffffffffffffffffffff19909216919091179055600c55600d80549091166001179055565b6000818152600260205260408120546001600160a01b0316806105565760405162461bcd60e51b8152602060048201526018602482015277115490cdcc8c4e881a5b9d985b1a59081d1bdad95b88125160421b6044820152606401610689565b60006001600160a01b038216610e1c5760405162461bcd60e51b815260206004820152602960248201527f4552433732313a2061646472657373207a65726f206973206e6f7420612076616044820152683634b21037bbb732b960b91b6064820152608401610689565b506001600160a01b031660009081526003602052604090205490565b60405162461bcd60e51b815260206004820152602f60248201527f556e737570706f727465642063616c6c6261636b202d204265666f726520416760448201526e1c99595b595b9d081d5c19185d1959608a1b6064820152606090608401610689565b60606001805461056b90612b5f565b610eb5338383611d0f565b5050565b610ec33383611b09565b610edf5760405162461bcd60e51b815260040161068990612c7d565b610eeb84848484611ddd565b50505050565b6060610efc82611647565b6000610f1360408051602081019091526000815290565b90506000815111610f335760405180602001604052806000815250610f5e565b80610f3d84611e10565b604051602001610f4e929190612ce8565b6040516020818303038152906040525b9392505050565b60608989610f81826011546001600160a01b0391821691161490565b610fcd5760405162461bcd60e51b815260206004820152601f60248201527f5265646972656374416c6c3a206e6f7420616363657074656420746f6b656e006044820152606401610689565b610fd681611717565b610ff25760405162461bcd60e51b815260040161068990612b99565b600d546201000090046001600160a01b031633146110225760405162461bcd60e51b815260040161068990612bda565b600d54604051631fb6491d60e11b81526000916201000090046001600160a01b031690633f6c923a9061105b9089908990600401612d17565b600060405180830381865afa158015611078573d6000803e3d6000fd5b505050506040513d6000823e601f3d908101601f191682016040526110a09190810190612db1565b6060810151600e54601154604051631cd43d1160e31b815293945091926000926001600160a01b039283169263e6a1e888926110e6929091169086903090600401612c1c565b608060405180830381865afa158015611103573d6000803e3d6000fd5b505050506040513d601f19601f820116820180604052508101906111279190612c3f565b5050600b805491935090810b9083900b128015915061114d5750600d5460ff1615156001145b1561115a5761115a6117a3565b61116488886118c7565b9f9e505050505050505050505050505050565b600a54600854604051636eb1769f60e11b81523360048201523060248201526101009091046001600160a01b03169063dd62ed3e90604401602060405180830381865afa1580156111cc573d6000803e3d6000fd5b505050506040513d601f19601f820116820180604052508101906111f09190612eb8565b101561123e5760405162461bcd60e51b815260206004820152601760248201527f6d7573742063616c6c20617070726f76652066697273740000000000000000006044820152606401610689565b600c5442106112515761124f611838565b565b60095460408051633fabe5a360e21b815290516000926001600160a01b03169163feaf968c9160048083019260a09291908290030181865afa15801561129b573d6000803e3d6000fd5b505050506040513d601f19601f820116820180604052508101906112bf9190612eeb565b5050600854919350600092506112db9160ff169050600a613035565b6007546112e89084613041565b6112f291906130dc565b60085460095491925060ff908116600160a01b90920416146113645760095460085460009161132e9160ff600160a01b9092048216911661310a565b60ff169050600081121561134b5761134881600019613041565b90505b61135681600a613035565b611360908361312d565b9150505b600e54601154604051631cd43d1160e31b81526000926001600160a01b039081169263e6a1e888926113a0929091169033903090600401612c1c565b608060405180830381865afa1580156113bd573d6000803e3d6000fd5b505050506040513d601f19601f820116820180604052508101906113e19190612c3f565b5050915050600a548212156114385760405162461bcd60e51b815260206004820152601760248201527f6f7074696f6e206f7574206f6620746865206d6f6e65790000000000000000006044820152606401610689565b600b8054810b9082900b12156114895760405162461bcd60e51b8152602060048201526016602482015275696e73756666696369656e7420666c6f77207261746560501b6044820152606401610689565b600854601254600a546040516323b872dd60e01b81523360048201526001600160a01b039283166024820152604481019190915261010090920416906323b872dd906064016020604051808303816000875af11580156114ed573d6000803e3d6000fd5b505050506040513d601f19601f820116820180604052508101906115119190612ccb565b5060065460075460405163a9059cbb60e01b815233600482015260248101919091526001600160a01b039091169063a9059cbb906044016020604051808303816000875af1158015611567573d6000803e3d6000fd5b505050506040513d601f19601f8201168201806040525081019061158b9190612ccb565b506012546011546115ad91600f9130916001600160a01b039081169116611607565b6011546115c990600f90339030906001600160a01b0316611607565b5050600d805461ffff1916905550565b6001600160a01b03918216600090815260056020908152604080832093909416825291909152205460ff1690565b604080516000815260208101909152610eeb908590859085908590611f11565b604080516000815260208101909152610eeb908590859085908590611ff0565b6000818152600260205260409020546001600160a01b03166116a65760405162461bcd60e51b8152602060048201526018602482015277115490cdcc8c4e881a5b9d985b1a59081d1bdad95b88125160421b6044820152606401610689565b50565b600081815260046020526040902080546001600160a01b0319166001600160a01b03841690811790915581906116de82610d52565b6001600160a01b03167f8c5be1e5ebec7d5bd14f71427d1e84f3dd0314c0f7b2291e5b200ac8c7c3b92560405160405180910390a45050565b60007fa9214cc96615e0085d3bb077758db69497dc2dce3b2b1e97bc93c3d18d83efd3826001600160a01b0316637730599e6040518163ffffffff1660e01b8152600401602060405180830381865afa158015611778573d6000803e3d6000fd5b505050506040513d601f19601f8201168201806040525081019061179c9190612eb8565b1492915050565b6006546012546007546040516323b872dd60e01b81526001600160a01b03928316600482015230602482015260448101919091529116906323b872dd906064016020604051808303816000875af1158015611802573d6000803e3d6000fd5b505050506040513d601f19601f820116820180604052508101906118269190612ccb565b50600d805461ff001916610100179055565b60065460125460075460405163a9059cbb60e01b81526001600160a01b039283166004820152602481019190915291169063a9059cbb906044016020604051808303816000875af1158015611891573d6000803e3d6000fd5b505050506040513d601f19601f820116820180604052508101906118b59190612ccb565b5042600c55600d805461ffff19169055565b606082828080601f0160208091040260200160405190810160405280939291908181526020018383808284376000920182905250600e5460115460405163e8e7e2d160e01b81526001600160a01b03918216600482015230602482015296975091959116935063e8e7e2d192506044019050602060405180830381865afa158015611956573d6000803e3d6000fd5b505050506040513d601f19601f8201168201806040525081019061197a919061314c565b600e54601154601254604051631cd43d1160e31b81529394506000936001600160a01b039384169363e6a1e888936119be9390821692309290911690600401612c1c565b608060405180830381865afa1580156119db573d6000803e3d6000fd5b505050506040513d601f19601f820116820180604052508101906119ff9190612c3f565b505091505060008183611a129190613169565b9050600b81900b611a4757601254601154611a4091600f91879130916001600160a01b039182169116612035565b9350611b00565b600b82900b15611aa757611a4086868080601f01602080910402602001604051908101604052809392919081815260200183838082843760009201919091525050601254601154600f9493506001600160a01b0391821692501685612064565b611afd86868080601f01602080910402602001604051908101604052809392919081815260200183838082843760009201919091525050601254601154600f9493506001600160a01b0391821692501685612089565b93505b50505092915050565b600080611b1583610d52565b9050806001600160a01b0316846001600160a01b03161480611b3c5750611b3c81856115d9565b80611b605750836001600160a01b0316611b55846105ee565b6001600160a01b0316145b949350505050565b826001600160a01b0316611b7b82610d52565b6001600160a01b031614611bdf5760405162461bcd60e51b815260206004820152602560248201527f4552433732313a207472616e736665722066726f6d20696e636f72726563742060448201526437bbb732b960d91b6064820152608401610689565b6001600160a01b038216611c415760405162461bcd60e51b8152602060048201526024808201527f4552433732313a207472616e7366657220746f20746865207a65726f206164646044820152637265737360e01b6064820152608401610689565b611c4c8383836120ae565b611c576000826116a9565b6001600160a01b0383166000908152600360205260408120805460019290611c809084906131c2565b90915550506001600160a01b0382166000908152600360205260408120805460019290611cae9084906131d9565b909155505060008181526002602052604080822080546001600160a01b0319166001600160a01b0386811691821790925591518493918716917fddf252ad1be2c89b69c2b068fc378daa952ba7f163c4a11628f55a4df523b3ef91a4505050565b816001600160a01b0316836001600160a01b031603611d705760405162461bcd60e51b815260206004820152601960248201527f4552433732313a20617070726f766520746f2063616c6c6572000000000000006044820152606401610689565b6001600160a01b03838116600081815260056020908152604080832094871680845294825291829020805460ff191686151590811790915591519182527f17307eab39ab6107e8899845ad3d59bd9653f200f220920489ca2b5937696c31910160405180910390a3505050565b611de8848484611b68565b611df484848484612131565b610eeb5760405162461bcd60e51b8152600401610689906131f1565b606081600003611e375750506040805180820190915260018152600360fc1b602082015290565b8160005b8115611e615780611e4b81613243565b9150611e5a9050600a8361325c565b9150611e3b565b60008167ffffffffffffffff811115611e7c57611e7c6129e9565b6040519080825280601f01601f191660200182016040528015611ea6576020820181803683370190505b5090505b8415611b6057611ebb6001836131c2565b9150611ec8600a86613270565b611ed39060306131d9565b60f81b818381518110611ee857611ee8613284565b60200101906001600160f81b031916908160001a905350611f0a600a8661325c565b9450611eaa565b845460018601546040805160008152602081019091526001600160a01b03928316926339255d5b921690819063b4b333c690611f569088908b908b906044810161329a565b60408051808303601f1901815291815260208201805160e094851b6001600160e01b03909116179052519185901b6001600160e01b0319168252611fa19392509086906004016132ce565b6000604051808303816000875af1158015611fc0573d6000803e3d6000fd5b505050506040513d6000823e601f3d908101601f19168201604052611fe89190810190613304565b505050505050565b845460018601546040805160008152602081019091526001600160a01b03928316926339255d5b92169081906362fc305e90611f569089908b908a9060448101613339565b60408051600081526020810190915260609061205a9087908790879087908790612232565b9695505050505050565b60408051600081526020810190915260609061205a908790879087908790879061231b565b60408051600081526020810190915260609061205a9087908790879087908790612382565b6120b7826123af565b6001600160a01b0383161561072a576013546040516337997bf960e21b81526001600160a01b039091169063de65efe4906120fa90309087908790600401612c1c565b600060405180830381600087803b15801561211457600080fd5b505af1158015612128573d6000803e3d6000fd5b50505050505050565b60006001600160a01b0384163b1561222757604051630a85bd0160e11b81526001600160a01b0385169063150b7a029061217590339089908890889060040161336f565b6020604051808303816000875af19250505080156121b0575060408051601f3d908101601f191682019092526121ad918101906133a2565b60015b61220d573d8080156121de576040519150601f19603f3d011682016040523d82523d6000602084013e6121e3565b606091505b5080516000036122055760405162461bcd60e51b8152600401610689906131f1565b805181602001fd5b6001600160e01b031916630a85bd0160e11b149050611b60565b506001949350505050565b855460018701546040805160008152602081019091526060926001600160a01b0390811692634329d29392911690819063b4b333c69061227b9089908c908c906044810161329a565b60408051808303601f1901815291815260208201805160e094851b6001600160e01b03909116179052519185901b6001600160e01b03191682526122c89392509087908c906004016133bf565b6000604051808303816000875af11580156122e7573d6000803e3d6000fd5b505050506040513d6000823e601f3d908101601f1916820160405261230f9190810190613414565b50979650505050505050565b855460018701546060916001600160a01b0390811691634329d2939116806350209a62888a8960005b6040519080825280601f01601f19166020018201604052801561236e576020820181803683370190505b5060405160240161227b9493929190613339565b855460018701546060916001600160a01b0390811691634329d2939116806362fc305e888a896000612344565b6001600160a01b0381166123c257600080fd5b600d54604051631e51d6a760e11b81526001600160a01b0383811660048301526201000090920490911690633ca3ad4e90602401602060405180830381865afa158015612413573d6000803e3d6000fd5b505050506040513d601f19601f820116820180604052508101906124379190612ccb565b1561244157600080fd5b6012546001600160a01b039081169082160361245a5750565b600e54601154601254604051631cd43d1160e31b81526000936001600160a01b039081169363e6a1e8889361249a93918316923092911690600401612c1c565b608060405180830381865afa1580156124b7573d6000803e3d6000fd5b505050506040513d601f19601f820116820180604052508101906124db9190612c3f565b5050915050600081600b0b131561259a5760125460115461250d91600f9130916001600160a01b039081169116611607565b601254601154600e5460405163e8e7e2d160e01b81526001600160a01b039283166004820181905230602483015261259a948416939092169063e8e7e2d190604401602060405180830381865afa15801561256c573d6000803e3d6000fd5b505050506040513d601f19601f82011682018060405250810190612590919061314c565b600f929190611627565b601280546001600160a01b0319166001600160a01b0384169081179091556040519081527f7dfb1d59db37a3fd2e15e796c189dcab714cdbb18650d68a1de58f8fa60718c99060200160405180910390a15050565b6001600160e01b0319811681146116a657600080fd5b60006020828403121561261757600080fd5b8135610f5e816125ef565b60005b8381101561263d578181015183820152602001612625565b83811115610eeb5750506000910152565b60008151808452612666816020860160208601612622565b601f01601f19169290920160200192915050565b602081526000610f5e602083018461264e565b60006020828403121561269f57600080fd5b5035919050565b6001600160a01b03811681146116a657600080fd5b600080604083850312156126ce57600080fd5b82356126d9816126a6565b946020939093013593505050565b60008083601f8401126126f957600080fd5b50813567ffffffffffffffff81111561271157600080fd5b60208301915083602082850101111561272957600080fd5b9250929050565b600080600080600080600080600060c08a8c03121561274e57600080fd5b8935612759816126a6565b985060208a0135612769816126a6565b975060408a0135965060608a013567ffffffffffffffff8082111561278d57600080fd5b6127998d838e016126e7565b909850965060808c01359150808211156127b257600080fd5b6127be8d838e016126e7565b909650945060a08c01359150808211156127d757600080fd5b506127e48c828d016126e7565b915080935050809150509295985092959850929598565b60008060006060848603121561281057600080fd5b833561281b816126a6565b9250602084013561282b816126a6565b929592945050506040919091013590565b600080600080600080600060a0888a03121561285757600080fd5b8735612862816126a6565b96506020880135612872816126a6565b955060408801359450606088013567ffffffffffffffff8082111561289657600080fd5b6128a28b838c016126e7565b909650945060808a01359150808211156128bb57600080fd5b506128c88a828b016126e7565b989b979a50959850939692959293505050565b60ff811681146116a657600080fd5b80600b0b81146116a657600080fd5b600080600080600080600080610100898b03121561291657600080fd5b8835612921816126a6565b9750602089013596506040890135612938816128db565b95506060890135612948816126a6565b94506080890135612958816128db565b935060a0890135612968816128ea565b979a969950949793969295929450505060c08201359160e0013590565b60006020828403121561299757600080fd5b8135610f5e816126a6565b80151581146116a657600080fd5b600080604083850312156129c357600080fd5b82356129ce816126a6565b915060208301356129de816129a2565b809150509250929050565b634e487b7160e01b600052604160045260246000fd5b604051610160810167ffffffffffffffff81118282101715612a2357612a236129e9565b60405290565b604051601f8201601f1916810167ffffffffffffffff81118282101715612a5257612a526129e9565b604052919050565b600067ffffffffffffffff821115612a7457612a746129e9565b50601f01601f191660200190565b60008060008060808587031215612a9857600080fd5b8435612aa3816126a6565b93506020850135612ab3816126a6565b925060408501359150606085013567ffffffffffffffff811115612ad657600080fd5b8501601f81018713612ae757600080fd5b8035612afa612af582612a5a565b612a29565b818152886020838501011115612b0f57600080fd5b8160208401602083013760006020838301015280935050505092959194509250565b60008060408385031215612b4457600080fd5b8235612b4f816126a6565b915060208301356129de816126a6565b600181811c90821680612b7357607f821691505b602082108103612b9357634e487b7160e01b600052602260045260246000fd5b50919050565b60208082526021908201527f5265646972656374416c6c3a206f6e6c7920434641763120737570706f7274656040820152601960fa1b606082015260800190565b60208082526022908201527f5265646972656374416c6c3a20737570706f7274206f6e6c79206f6e6520686f6040820152611cdd60f21b606082015260800190565b6001600160a01b0393841681529183166020830152909116604082015260600190565b60008060008060808587031215612c5557600080fd5b845193506020850151612c67816128ea565b6040860151606090960151949790965092505050565b6020808252602e908201527f4552433732313a2063616c6c6572206973206e6f7420746f6b656e206f776e6560408201526d1c881b9bdc88185c1c1c9bdd995960921b606082015260800190565b600060208284031215612cdd57600080fd5b8151610f5e816129a2565b60008351612cfa818460208801612622565b835190830190612d0e818360208801612622565b01949350505050565b60208152816020820152818360408301376000818301604090810191909152601f909201601f19160101919050565b8051612d51816128db565b919050565b8051612d51816126a6565b8051612d51816125ef565b600082601f830112612d7d57600080fd5b8151612d8b612af582612a5a565b818152846020838601011115612da057600080fd5b611b60826020830160208701612622565b600060208284031215612dc357600080fd5b815167ffffffffffffffff80821115612ddb57600080fd5b908301906101608286031215612df057600080fd5b612df86129ff565b612e0183612d46565b8152612e0f60208401612d46565b602082015260408301516040820152612e2a60608401612d56565b6060820152612e3b60808401612d61565b608082015260a083015182811115612e5257600080fd5b612e5e87828601612d6c565b60a08301525060c083015160c082015260e083015160e0820152610100915081830151828201526101209150612e95828401612d56565b828201526101409150612ea9828401612d56565b91810191909152949350505050565b600060208284031215612eca57600080fd5b5051919050565b805169ffffffffffffffffffff81168114612d5157600080fd5b600080600080600060a08688031215612f0357600080fd5b612f0c86612ed1565b9450602086015193506040860151925060608601519150612f2f60808701612ed1565b90509295509295909350565b634e487b7160e01b600052601160045260246000fd5b600181815b80851115612f8c578160001904821115612f7257612f72612f3b565b80851615612f7f57918102915b93841c9390800290612f56565b509250929050565b600082612fa357506001610556565b81612fb057506000610556565b8160018114612fc65760028114612fd057612fec565b6001915050610556565b60ff841115612fe157612fe1612f3b565b50506001821b610556565b5060208310610133831016604e8410600b841016171561300f575081810a610556565b6130198383612f51565b806000190482111561302d5761302d612f3b565b029392505050565b6000610f5e8383612f94565b60006001600160ff1b038184138284138082168684048611161561306757613067612f3b565b600160ff1b600087128281168783058912161561308657613086612f3b565b600087129250878205871284841616156130a2576130a2612f3b565b878505871281841616156130b8576130b8612f3b565b505050929093029392505050565b634e487b7160e01b600052601260045260246000fd5b6000826130eb576130eb6130c6565b600160ff1b82146000198414161561310557613105612f3b565b500590565b600060ff821660ff84168082101561312457613124612f3b565b90039392505050565b600081600019048311821515161561314757613147612f3b565b500290565b60006020828403121561315e57600080fd5b8151610f5e816128ea565b600081600b0b83600b0b60008212826b7fffffffffffffffffffffff0382138115161561319857613198612f3b565b826b7fffffffffffffffffffffff190382128116156131b9576131b9612f3b565b50019392505050565b6000828210156131d4576131d4612f3b565b500390565b600082198211156131ec576131ec612f3b565b500190565b60208082526032908201527f4552433732313a207472616e7366657220746f206e6f6e20455243373231526560408201527131b2b4bb32b91034b6b83632b6b2b73a32b960711b606082015260800190565b60006001820161325557613255612f3b565b5060010190565b60008261326b5761326b6130c6565b500490565b60008261327f5761327f6130c6565b500690565b634e487b7160e01b600052603260045260246000fd5b6001600160a01b03858116825284811660208301528316604082015260806060820181905260009061205a9083018461264e565b6001600160a01b03841681526060602082018190526000906132f29083018561264e565b828103604084015261205a818561264e565b60006020828403121561331657600080fd5b815167ffffffffffffffff81111561332d57600080fd5b611b6084828501612d6c565b6001600160a01b03858116825284166020820152600b83900b604082015260806060820181905260009061205a9083018461264e565b6001600160a01b038581168252841660208201526040810183905260806060820181905260009061205a9083018461264e565b6000602082840312156133b457600080fd5b8151610f5e816125ef565b6001600160a01b03851681526080602082018190526000906133e39083018661264e565b82810360408401526133f5818661264e565b90508281036060840152613409818561264e565b979650505050505050565b6000806040838503121561342757600080fd5b825167ffffffffffffffff8082111561343f57600080fd5b61344b86838701612d6c565b9350602085015191508082111561346157600080fd5b5061346e85828601612d6c565b915050925092905056fea2646970667358221220d6cd12e0fea6b620180f058c045e4ba6febaa45d97bb82c46f3ff5069bdb654264736f6c634300080d0033a2646970667358221220b40ae8f178cdc8b2481756536da91ee87cd03041de0fa1464754277fb04d522b64736f6c634300080d0033",
  "linkReferences": {},
  "deployedLinkReferences": {}
}